:1000000095C20000A7C20000A5C20000A3C2000064
:10001000A1C200009FC200009DC200009BC2000060
:1000200099C200000C94281095C200000C94FA3A72
:1000300091C200008FC200008DC200008BC2000080
:1000400089C200000C94A52F85C2000083C2000065
:1000500081C200007FC200007DC200000C94C63146
:1000600079C200000C94772A0C943B2A73C20000DA
:1000700071C200006FC200006DC200006BC20000C0
:1000800069C2000067C2000065C200000C94032E24
:1000900061C200005FC200005DC200005BC20000E0
:1000A00059C2000057C2000055C2000053C20000F0
:1000B00051C200004FC200004DC200004BC2000000
:1000C00049C2000047C2000045C2000043C2000010
:1000D00041C200003FC200003DC200003BC2000020
:1000E00039C200003F053F053F053F052005C60E0C
:1000F000C60EC60EC60EC60E1405C60EC60EC60E1B
:10010000C60EC60EC60E6905690569058A058A050B
:10011000C60EC60EC60EC60EC60EC60E1405C60EFA
:100120001405C60EC60EC60EC60EC60EC60EC60EEA
:100130003F05C60EB505C60EC60E9005C60EC60E08
:10014000C60EC60EC60E9005C60EC60EC60E2005FD
:10015000A905A905A905A905A905A905C60EAF0503
:10016000C60EC60EC60EC60EC60EC60EC60EC60EEF
:10017000C60EC60EC60EC60EC60EC60EC60EC60EDF
:10018000C60EC60E4505C60EC60EC60EC60EC60E59
:10019000C60EC60EC60EC60E6F056F051405840585
:1001A0008405E005E005E005EF05EF05EF05E00E4D
:1001B000060606060606E00EE00EE00EE00EE00E75
:1001C000E00EE00EE00EE00EE00EE00EE00EE00EBF
:1001D000E00EE00EE00EE00EE00EE00EE00EE005B8
:1001E0004606E40EE40E50065D066A067706E40E47
:1001F0007B06E40E8906E40E93069D06A706E40E30
:10020000E40EE40EB706C406D106632567256B2508
:100210006F25732577257B257F25832587258B25CE
:10022000B82ABC2AC42A1B2B1B2B1B2B1B2B1B2BBA
:100230001B2B1B2B1B2B1B2BCD2AD12AD52AD92AB2
:10024000DD2AE12AE52AE92A1B2BED2AF12AF52AE3
:10025000F92AFD2A012B1B2B052B092BD12CD72C7E
:10026000DA2CDE2CE22CF02CFE2CB32DB32DB32D8A
:100270000F2D122D1B2D242DB32DB32DB32DB32DEA
:10028000B32DB32D342D442D542D622D652D6E2D9F
:10029000772D7E2DB32DB32D872D912D9B2D084AC3
:1002A000D73B3BCE016E84BCBFFDC12F3D6C74318A
:1002B0009ABD56833DDA3D00C77F11BED9E4BB4CE1
:1002C0003E916BAAAABE000000803F05A84CCDB2AB
:1002D000D44EB93836A9020C50B9918688083CA68C
:1002E000AAAA2ABE000000803F007C413A007C4F51
:1002F000763A007C57434F3A007C506E3A007C4679
:10030000533A007C4C6E3A007C42663A007C57506F
:100310006F733A007C4D506F733A00536C65657093
:1003200000446F6F723A00436865636B00416C6113
:10033000726D00486F6D65004A6F6700486F6C64AE
:100340003A0052756E0049646C65005B4F50543A38
:10035000005B5645523A312E31672E3230313830FB
:100360003831332E4D6567613A00244E00204D0030
:1003700020470020530020460020540033382E0030
:100380005B47433A47005B544C4F3A005B47393276
:100390003A003330003238005B47005B5052423A3B
:1003A000005B484C503A2424202423202447202456
:1003B0004920244E2024783D76616C20244E783DDF
:1003C0006C696E6520244A3D6C696E652024534C2F
:1003D00050202443202458202448207E2021203FE0
:1003E000206374726C2D785D0D0A000D0A477262ED
:1003F0006C20312E3167286261636B6C61736820F9
:10040000636F6D7029205B27242720666F72206838
:10041000656C705D0D0A00536C656570696E6700F0
:10042000526573746F72696E67207370696E646C65
:100430006500526573746F72696E672064656661EA
:10044000756C74730050676D20456E640043686579
:10045000636B204C696D69747300436865636B203E
:10046000446F6F720044697361626C656400456E2D
:1004700061626C65640043617574696F6E3A205502
:100480006E6C6F636B656400272448277C272458B3
:100490002720746F20756E6C6F636B0052657365F7
:1004A0007420746F20636F6E74696E7565005B4DA8
:1004B00053473A00414C41524D3A000D0A006572D3
:1004C000726F723A006F6B0D0A0000007A430000F1
:1004D0007A4300007A4300000000000000000000A2
:1004E00000000000FA430000FA430000FA4300A0B5
:1004F0000C4700A00C4700A00C47000048C30000B8
:1005000048C3000048C30A000019010AD7233C6F02
:1005100012033B00007A440000000000000000C805
:10052000410000FA43FA000000803F0011241FBE82
:10053000CFEFD1E2DEBFCDBF00E00CBF20E1A0E0F5
:10054000B2E001C01D92A333B207E1F70E949612F8
:100550000C94CF4255CD83E0EEE1FDE0DF011D922A
:100560008A95E9F786E0E1E2FDE0DF011D928A95D8
:10057000E9F708952F923F924F925F926F927F9288
:100580008F929F92AF92BF92CF92DF92EF92FF92A3
:100590000F931F93CF93DF93082F192FFB018485AF
:1005A00081FF0CC02CE0E2ECFDE080E090E0A82FA1
:1005B000B92F01900D922A95E1F702C00E94491AC5
:1005C000CEE1DDE0C02ED12E0F2EF1EDAF2EFFE0FB
:1005D000BF2EF02DE82EF92E0F2EF4E28F2EFDE027
:1005E0009F2EF02D8E011E011C821B82F60161914F
:1005F0007191819191916F01F501419051906190BC
:1006000071905F01A30192010E94D5410E94A54112
:10061000F70121913191419151917F01DC01CB0191
:10062000821B930BA40BB50B181619061A061B0692
:100630008CF1BB0F880B982FDC01F801208122235D
:1006400009F10097A105B105E9F004C081E090E04F
:10065000A0E0B0E0422F220F550B660B770B481736
:1006600059076A077B0771F0F501208531854285BE
:100670005385C301B2010E94D5410E940B40F10194
:100680007483638322960F5F1F4FC815D90509F045
:10069000AACF05C0F80120812223A1F3D7CFDF9193
:1006A000CF911F910F91FF90EF90DF90CF90BF906F
:1006B000AF909F908F907F906F905F904F903F9002
:1006C0002F9008958091020185FF02C080E401C04F
:1006D00080E09091020196FD80680895E2E0F1E0EB
:1006E00080818F7D808380818F7B80830895E1E08E
:1006F000F1E0808180628083808180648083EECF9E
:1007000008959091A30D91111CC086FF06C0E2E0F0
:10071000F1E090819062908305C0E2E0F1E0908189
:100720009F7D9083882334F4E2E0F1E0808180644F
:10073000808305C0E2E0F1E080818F7B80831092AE
:10074000AD0D0895CF939091A20D923029F0C82F4E
:100750000E94DB248C2FD5DFCF910895F999FECF2D
:1007600092BD81BD81E08FBB80B50895F894F99961
:10077000FECF92BD81BD81E08FBB80B58627962FCD
:10078000982359F06F3F29F060BD84E08FBBF99A40
:100790000AC084E18FBBF99A06C0882321F060BDAE
:1007A00084E28FBBF99A789408958F929F92AF92CA
:1007B000BF92CF92DF92EF92FF920F931F93CF934E
:1007C000DF937C018B016A014115510501F15A014A
:1007D000C0E0D1E001C0C401C11108C06C2FCC0F32
:1007E000770BC72FCC1FCC27CC1F01C0CD2FF80112
:1007F00061918F01C60F4C01FFEF8F1A9F0AB6DF80
:1008000021E0A21AB10839F7EC0CFD1C01C0C0E0D0
:100810006C2FC701ABDFDF91CF911F910F91FF903C
:10082000EF90DF90CF90BF90AF909F908F90089502
:100830008F929F92AF92BF92CF92DF92EF92FF92F0
:100840000F931F93CF93DF937B016A0141155105ED
:1008500009F1C82FD92F5A01CB01912C88248394F8
:100860008C010F5F1F4F7ADF911008C0292D990C62
:10087000330B232F221F2227221F01C0282D982E41
:10088000920E899381E0A81AB108C80149F7EC0CCF
:10089000FD1C01C0912CC70161DF21E030E089150A
:1008A00011F020E030E0C901DF91CF911F910F914D
:1008B000FF90EF90DF90CF90BF90AF909F908F9080
:1008C000089580E4E7E2FDE0DF011D928A95E9F7F3
:1008D0006BE47DE080E00E94FF2B811103C087E084
:1008E0000C943325089562EC7DE08FE39DE00C9439
:1008F000853B08952F923F924F925F926F927F9225
:100900008F929F92AF92BF92CF92DF92EF92FF921F
:100910000F931F93CF93DF93CDB7DEB7E2970FB658
:10092000F894DEBF0FBECDBF8C018AE3E7E6FDE0A1
:10093000DF011D928A95E9F78BE0E7E2FDE0A8E68A
:10094000BDE001900D928A95E1F7F8018081843233
:1009500011F00C94300FE7E6FDE081E08183128214
:1009600083E08983F1E0FDA3212C312CE12CF12CD3
:100970001CA21AA21BA2CC24C394D12C0F2EF1E6E8
:100980008F2EF3E09F2EF02D19A308A337C29FEB03
:10099000910F9A3110F00C94C20E8F5F8983AE01D3
:1009A0004E5F5F4FBE016F5F7F4F88A199A10E948C
:1009B000D716882311F40C94C40E4A805B806C8097
:1009C0007D80C301B2010E94A3420E940B40A62E6B
:1009D00070E080E090E00E9439409B01AC01C301CF
:1009E000B2010E94BD3E20E030E048EC52E40E949B
:1009F000D5410E9438420E940B40862F972F9C01C0
:100A0000173421F01D3409F4C9C030C18A2D90E09B
:100A10008F35910510F00C94C60EFC018827EE5816
:100A2000FF4F8F4F0C94A63E2115310511F00C9409
:100A3000340F4BA1442311F40C943C0F0C94C80EBA
:100A4000A7E6BDE0AC92BCE1AB1631F0EEE1AE162C
:100A500019F0FCE5AF128BC02115310551F02A3099
:100A6000310539F00C94CA0E21E02BA302C031E00D
:100A70003BA36A0DA7E6BDE06C9380E07FC0BBA1FD
:100A8000B1110C94CC0EE2E0EBA3A092680DF6E25B
:100A9000AF126FC02431310559F02E31310541F0CC
:100AA0002832310529F02233310511F00C94CE0E95
:100AB000262F372FADECBCEC0E94AE3E9695879565
:100AC000969587959695879586578093680D81E0D2
:100AD00055C06FEE6A0D60936C0D82E04BC021151E
:100AE000310531F466EA6A0D60936B0D83E046C010
:100AF0002A30310511F00C94D00E2AE5A21611F41B
:100B00000C94D20E84E03AC08EE58A198093690D68
:100B100085E030C085E18A1980936A0D86E02AC09D
:100B20004BA141110C94D40E81E3A81206C010927F
:100B30006D0D88E093E09BA321C02A30310511F0B0
:100B40000C94D60EA1E0A0936D0D88E0B3E0BBA39A
:100B500015C06AEC6A0D60936E0D89E00BC0232B03
:100B600011F00C94D80E8AE009C087E003C080E041
:100B700001C081E0232B11F00C94DA0EF60102C0C3
:100B8000EE0FFF1F8A95E2F797012E233F23232BB9
:100B900011F00C94DC0EEE2AFF2A30C1232B11F049
:100BA0000C94DE0E8A2D90E08F31910510F00C949C
:100BB000E00EFC018827EF52FF4F8F4F0C94A63EAA
:100BC000AA2021F0F1E0AF16E1F105C023E0209367
:100BD0006F0D8BE03BC0A0926F0D8BE037C034E00F
:100BE000A31659F045E0A41669F083E0A8122BC0C3
:100BF00080E18093710D8CE029C080E28093710DBB
:100C00008CE024C01092710D8CE020C098E0A916F1
:100C100069F0A9E0AA1689F0B7E0AB1216C080917E
:100C2000700D80688093700D8DE010C08091700D04
:100C300080648093700D8DE009C01092700D8DE07E
:100C400005C08BE003C08CE001C08DE0F60102C05E
:100C5000EE0FFF1F8A95E2F797012E233F23232BE8
:100C600011F00C94E20EEE2AFF2AC8C0812F90E00A
:100C7000FC01E654F109E531F10510F00C94E40EA5
:100C80008827E051FF4F8F4F0C94A63E4092730D82
:100C90005092740D6092750D7092760D80E08DC04B
:100CA0004092770D5092780D6092790D70927A0D86
:100CB000FCA1F160FCA381E080C040927B0D5092CA
:100CC0007C0D60927D0D70927E0D2CA122602CA374
:100CD00082E073C040927F0D5092800D6092810D32
:100CE0007092820D3CA134603CA383E066C0A09268
:100CF000830D84E062C0C301B2010E94064060938C
:100D0000840D7093850D8093860D9093870D85E0FB
:100D100054C04092880D5092890D60928A0D709255
:100D20008B0D86E04AC040928C0D50928D0D6092E2
:100D30008E0D70928F0D87E040C04092900D5092C2
:100D4000910D6092920D7092930D88E036C020E074
:100D500030E04FE753E4C301B2010E949A411816F4
:100D600014F40C94E60EA092940D89E026C04092F3
:100D7000950D5092960D6092970D7092980D4AA124
:100D800041604AA38AE019C04092990D50929A0D91
:100D900060929B0D70929C0D8AA182608AA38BE069
:100DA0000CC040929D0D50929E0D60929F0D7092CE
:100DB000A00D9AA194609AA38CE05601082E02C05F
:100DC000AA0CBB1C0A94E2F791012A213B21232B98
:100DD00009F0FEC7D40102C0B595A7958A95E2F740
:100DE000A0FF0AC020E030E0A901C301B2010E94C7
:100DF000973F88230CF4EEC72A283B288981E8A175
:100E0000F9A1E80FF11D10811111C1CDBAA1BB23C9
:100E100029F0EBA1E11102C0F2E0FBA325FE0EC018
:100E20008091840D9091850DA091860DB091870DD4
:100E300081389649A849B1050CF0CEC73DA13323AE
:100E4000E1F020FECBC780916A0D813009F054C0DB
:100E500007E61DE023E333E34BEC51E4D8011C9695
:100E60006D917D918D919C911F970E94D541F801C4
:100E700064877587868797873FC08091690D813029
:100E800061F4FBA1F230C1F58091680D8035A1F1CC
:100E9000882391F120FEA4C72FC08091280D8111D5
:100EA0002BC020FE19C080916A0D813029F507E61C
:100EB0001DE023E333E34BEC51E4D8011C966D9124
:100EC0007D918D919C911F970E94D541F801648777
:100ED00075878687978710C08091360D9091370D62
:100EE000A091380DB091390D8093730D9093740DCE
:100EF000A093750DB093760D30FC10C08091320D2B
:100F00009091330DA091340DB091350D8093900DDB
:100F10009093910DA093920DB093930D8091670DD6
:100F2000843021F426FE5EC7E89426F880916C0D8B
:100F3000882349F0813009F4A7C718AAF2E0FFA37B
:100F400021E02EA3A6C780916A0D8130A1F532E081
:100F500038AB41E04FA31EA20F2EF7E6AF2EFDE007
:100F6000BF2EF02D00E010E08AA1C82ED12CC601C2
:100F7000002E02C0959587950A94E2F780FF12C073
:100F800023E333E34BEC51E4D5019E966D917D91C3
:100F90008D919C91D1970E94D541F50166A777A7C5
:100FA00080AB91AB0F5F1F4FF4E0AF0EB11C03306D
:100FB0001105E9F605C022E028AB31E03FA31EA2EF
:100FC0004BA1433041F480916D0D813021F48AA111
:100FD000843009F009C78CE0EBE4FDE0DE011696F1
:100FE00001900D928A95E1F7F1FE11C080916E0D8E
:100FF000873008F0FBC690912D0D891741F0BE0196
:101000006A5F7F4F0E94FF2B882309F4F1C6B090DE
:10101000670D9AE0B91629F0ACE5BA1609F49AC042
:101020000EC1BAA1BB2309F4E5C6C1018075992799
:10103000892B09F4E1C66091880D7091890D80912A
:101040008A0D90918B0D0E94A3420E940B40673045
:1010500008F0D4C68091830D843129F0823009F0E4
:10106000CFC627FCCFC6EFEA2E22662319F06150C7
:1010700068A303C0F0916E0DF8A367E77DE088A137
:101080000E94FF2B882309F4BFC62091830D28A757
:101090004090630D5090640D6090650D7090660DEA
:1010A00007E61DE00F2EF7E2CF2EFDE0DF2EF02D3C
:1010B000A12CB12C3AA1832E912CC4010A2C02C080
:1010C000959587950A94E2F780FF36C048A544318C
:1010D00051F5D601D0962D913D914D915C91D397CC
:1010E00058966D917D918D919C915B970E94BD3E2C
:1010F000F80126A537A540A951A90E94BD3ED801F7
:1011000050966D937D938D939C935397B2E0AB1261
:1011100013C0A30192010E94BD3EF801608B718B48
:10112000828B938B09C0F80186A597A5A0A9B1A9C8
:10113000808B918BA28BB38BFFEFAF1ABF0A0C5F32
:101140001F4F24E0C20ED11C33E0A316B10409F0F6
:10115000B4CFB1C64AA1442309F458C60F2EF7E212
:10116000AF2EFDE0BF2EF02D4E0186E0880E911CC3
:1011700007E61DE0C12CD12C642E712CC3010C2C70
:1011800002C0959587950A94E2F780FF3CC0D40190
:101190002D913D914D915C91F501608D718D828D08
:1011A000938D0E94BD3ED8019E962D913D914D910B
:1011B0005C91D1970E94BD3EF80166A777A780ABEE
:1011C00091ABF2E0CF1229C08601000F111F000F72
:1011D000111F0959124F2091630D3091640D4091F8
:1011E000650D5091660D0E94BD3ED8019E966D938F
:1011F0007D938D939C93D1971091680D103509F4D0
:1012000007C618A2F8C0F50180A991A9A2A9B3A99F
:10121000F80186A797A7A0ABB1ABFFEFCF1ADF0A03
:1012200024E0A20EB11C34E0830E911C0C5F1F4F12
:1012300043E0C416D10409F0A1CF18A23CC68BA18B
:10124000833009F490C09AA1992309F48CC0A0902E
:101250006B0D0F2EF7E2CF2EFDE0DF2EF02D07E60F
:101260001DE03E01A6E06A0E711C812C912C492ED6
:10127000512C99A288A2C201082C02C0959587958D
:101280000A94E2F780FD0BC0F601808D918DA28D4E
:10129000B38DF80186A797A7A0ABB1AB54C0F5E317
:1012A000BF1609F450C0A1103BC0D601D0962D91B5
:1012B0003D914D915C91D397F30160817181828161
:1012C00093810E94BE3ED8019E962D913D914D91F5
:1012D0005C91D1970E94BE3E9B01AC01F80166A7CC
:1012E00077A780AB91ABF2E08F122DC008A119A1B6
:1012F000000F111F000F111F0959124F6091630D4C
:101300007091640D8091650D9091660D0E94BE3EB6
:10131000D8019E966D937D938D939C93D19723C016
:10132000F601208D318D428D538DD8019E966D91A1
:101330007D918D919C91D1970E94BE3EF80166A748
:1013400077A780AB91ABFFEF8F1A9F0A24E0C20E04
:10135000D11C0C5F1F4F34E0630E711C43E08416F8
:10136000910409F086CF8EE1B81631F095E3B916F5
:1013700099F1ACE1BA1235C0BCE1BB1209C067E714
:101380007DE086E00E94FF2B882309F443C587C5D2
:1013900067E77DE087E00E94FF2B882309F43CC5C6
:1013A0007EC5A901082E02C0559547950A94E2F71B
:1013B00040FD0AC058964D915D916D917C915B976F
:1013C000408B518B628B738B0196149634968330CD
:1013D000910539F718A26FC58091680D823008F029
:1013E0001DC51091680D103529F4EAA1E11118C549
:1013F00018A246C218A2FBA1F23009F041C2111195
:1014000005C02AA121113CC21BA23AC220E030E053
:10141000A9016091730D7091740D8091750D90917B
:10142000760D0E94973F882309F4FCC41C3809F408
:101430000FC240F41230A1F01330A9F0113009F0BE
:101440001FC209C01E3809F403C208F4FEC11F38C8
:1014500009F4FBC115C23AA1311112C21BA210C27C
:101460004DA144604DA38AA1882309F4DDC4BEA127
:10147000AB2FB0E0BAABA9ABEFA1CE2ED12C81E05F
:1014800090E08C010EA002C0000F111F0A94E2F739
:1014900002C0880F991FEA95E2F7082B192BFAA1D1
:1014A0008F2F90E080239123892B09F4BFC4FD0185
:1014B000EE0FFF1FEE0FFF1FE959F24FAA0FBB1FE0
:1014C000AA0FBB1FA15CB24F2D913D914D915C9134
:1014D00066A577A580A991A90E94BD3E68A779A7B6
:1014E0008AA79BA7F601EE0FFF1FEE0FFF1FE9591A
:1014F000F24FD601AA0FBB1FAA0FBB1FA15CB24FB0
:101500002D913D914D915C9166A577A580A991A9FA
:101510000E94BD3E6CA77DA78EA79FA727FEEAC0AD
:10152000E89427F84CE050E065E97DE08FE39DE02A
:101530000E94C242892B09F47BC480916A0D8130DC
:10154000A1F407E61DE023E333E34BEC51E4D801BB
:1015500095966D917D918D919C9198970E94D54122
:10156000F80165A376A387A390A780908C0D909037
:101570008D0DA0908E0DB0908F0D20E030E040E8F2
:1015800050E4C501B4010E94D541A50194010E9417
:10159000D5414B015C0128A539A54AA55BA5CA0127
:1015A000B9010E94D5419B01AC01C501B4010E9463
:1015B000BD3E4B015C012CA53DA54EA55FA5CA0112
:1015C000B9010E94D5419B01AC01C501B4010E9443
:1015D000BD3E4B015C0120E030E0A9010E94973F35
:1015E00088230CF427C4C501B4010E9462424B0158
:1015F0005C012CA53DA54EA55FA568A579A58AA58A
:101600009BA50E94E5179B01AC01C501B401905850
:101610000E949E3F4B015C018091680D833021F454
:10162000B7FAB094B7F8B09440908C0D50908D0DEF
:1016300060908E0D70908F0D20E030E0A901C30105
:10164000B2010E94973F882384F4B7FAB094B7F8A8
:10165000B09477FA709477F8709440928C0D509211
:101660008D0D60928E0D70928F0D09A91AA9000F31
:10167000111F000F111F0958124F2CA53DA54EA593
:101680005FA5C501B4010E94D5419B01AC0168A5CD
:1016900079A58AA59BA50E94BD3E20E030E040E0F0
:1016A0005FE30E94D541D8016D937D938D939C9308
:1016B00013978601000F111F000F111F0958124FB9
:1016C00028A539A54AA55BA5C501B4010E94D5414D
:1016D0002CA53DA54EA55FA50E94BE3E20E030E0B2
:1016E00040E05FE30E94D541F8016083718382830B
:1016F0009383C6C0FCA18F2E912C08211921012BA8
:1017000009F49AC321EF222280916A0D813041F5BC
:1017100007E61DE0A12CB12CC4010A2C02C095954E
:1017200087950A94E2F780FF12C023E333E34BEC82
:1017300051E4D80150966D917D918D919C91539774
:101740000E94D541F801608B718B828B938BFFEFE8
:10175000AF1ABF0A0C5F1F4F23E0A216B104E1F6D7
:10176000C601880F991F880F991FDC01A958B24F35
:101770006D012D913D914D915C916CA57DA58EA53E
:101780009FA50E94BD3E4B015C0109A91AA9000F4B
:10179000111F000F111F0958124FF80120813181CC
:1017A0004281538168A579A58AA59BA50E94BD3E6B
:1017B000A50194010E94E5174B015C01D6012D9112
:1017C0003D914D915C91F80160817181828193819D
:1017D0000E94E5172B013C0160938C0D70938D0DD9
:1017E00080938E0D90938F0D9B01AC01C501B401C8
:1017F0000E94BD3E4B015C01E894B7F82AE037ED4A
:1018000043EA5BE3C501B4010E949A411816C4F58E
:1018100020E030E040E05FE3C501B4010E949A415E
:1018200018160CF40BC32FE632E143E85AE3C30168
:10183000B2010E94D5419B01AC01C501B4010E94D7
:101840009A4118160CF4FCC21BC0FDA1F061FDA367
:101850001E58123018F42DA128602DA33AA133236D
:1018600009F4F0C24CE050E065E97DE08FE39DE0D3
:101870000E94C242892B09F4E7C202C018A21BA22F
:101880004DA14170D42E8DA180FF03C0C1018E7D7A
:1018900003C0C1018E7D9C7FABA1A111937E892BDA
:1018A00009F0D4C2FE0172968EE0DF011D928A9586
:1018B000E9F7DD2061F1B6EBEB22EF2809F0C8C2B1
:1018C0008091670D853311F08111C4C2E7E2FDE01C
:1018D00083859485A585B6858E8B9F8BA88FB98FC0
:1018E00091858085892B90E09F8F8E8F67E67DE0C4
:1018F000CE01429616D38111FBC29CE0E5E9FDE0E2
:10190000AFE3BDE001900D929A95E1F7F1C28091AD
:10191000221081FF26C08091680D8150833018F01D
:10192000EDA1E064EDA3FAA1FF2339F02BA1223051
:1019300021F43DA130683DA314C08091300D803169
:1019400081F48091270D8150833030F44DA146FF02
:1019500008C040624DA305C08DA186FD02C0806213
:101960008DA3A7E6BDE05D964D915D916D917C9153
:101970009097E7E2FDE0448B558B668B778B4A8F1F
:101980005B8F6C8F7D8F12968C918183882321F0E1
:1019900088E090E09F8F8E8FA7E6BDE01C964D916A
:1019A0005D916D917C911F97E7E2FDE04787508B39
:1019B000618B728B4A8B5B8B6C8B7D8B99968D9038
:1019C0009D90AD90BC909C97A50194016385748512
:1019D000858596850E94973F811103C09DA195FF43
:1019E00023C08091300D882379F0ADA1AA2364F043
:1019F000A6FF06C040E050E0BA010E94472F04C095
:101A0000B501A4010E94472F8091900D9091910DF6
:101A1000A091920DB091930D8093320D9093330D60
:101A2000A093340DB093350DBDA1B6FD0CC08091CF
:101A3000320D9091330DA091340DB091350D8E8BF8
:101A40009F8BA88FB98FE7E2FDE0A7E6BDE09D96EA
:101A50008C919D97838B1A968C919185981751F054
:101A60004E895F89688D798D0E94472F8091710D15
:101A70008093300DE7E2FDE021858E8D9F8D822BD6
:101A80009F8F8E8F8091700D9085981731F00E94F6
:101A9000A2038091700D80932F0D20912F0D8E8DBC
:101AA0009F8D822B9F8F8E8F8091670D843051F494
:101AB0006091880D7091890D80918A0D90918B0DA8
:101AC0000E941716E7E2FDE0A7E6BDE015968C91AF
:101AD0001597848313968C918283EBA1E33071F583
:101AE00080916D0D80932C0D811108C010929D0D79
:101AF00010929E0D10929F0D1092A00D80909D0D42
:101B000090909E0DA0909F0DB090A00DA501940106
:101B10006091630D7091640D8091650D9091660DDB
:101B20000E94973F882351F08092630D9092640D3C
:101B3000A092650DB092660D0E94663B80916E0D7D
:101B400090912D0D981769F080932D0D8CE0FE017A
:101B50003696ABE4BDE001900D928A95E1F70E94C4
:101B6000663BE7E6FDE0848180932A0D8081863222
:101B700009F446C038F48C3129F18E3119F18A30DC
:101B800059F05FC08C3509F447C0863609F450C05F
:101B9000883209F056C03AC067E77DE088A10E940C
:101BA000522B80912D0DF8A18F134BC08CE0E7E7ED
:101BB000FDE0ABE4BDE001900D928A95E1F70E9453
:101BC000663B3FC08E8D9F8D81609F8F8E8F2BA136
:101BD000222331F0BE016E5E7F4F85E99DE001D585
:101BE000BE016E5E7F4F87E79DE0FBD48CE0E7E7A8
:101BF000FDE0AFE3BDE001900D928A95E1F721C0D1
:101C00006FE37DE086E00E94522B1BC06FE37DE016
:101C100087E00E94522B15C08CE0E5E9FDE0A7E5C6
:101C2000BDE001900D928A95E1F70E94663B09C0E4
:101C30008CE0E7E5FDE0DF011D928A95E9F70E945F
:101C4000663B8091680D8093270D803509F456C05E
:101C5000BBA1B23009F052C0813039F4BE016E5ED2
:101C60007F4F85E99DE0BDD43BC081110CC08E8DB6
:101C70009F8D81609F8F8E8FBE016E5E7F4F85E945
:101C80009DE0AFD42DC082508230E0F4E0908C0D06
:101C9000F0908D0D00918E0D10918F0DEDA1E2FB56
:101CA000882780F98F9388A8AFA0CEA027E73DE0D2
:101CB0004FE35DE0BE016E5E7F4F85E99DE0D4D4C9
:101CC0000F900EC08E8D9F8D84609F8F8E8F4DA143
:101CD000BE016E5E7F4F85E99DE0CFD781110AC0BE
:101CE0008CE0E5E9FDE0AFE3BDE001900D928A955F
:101CF000E1F704C0813011F40E94730480916F0DEC
:101D000080932E0D882309F4F3C00E94DB24809178
:101D10002E0D833051F48091A20D823079F188E04C
:101D20000E94043C0E94112329C0E7E2FDE081E00B
:101D30008083148213821182168211861086E2EA51
:101D4000FDE084E68783808781878081823099F0F7
:101D50006BE47DE080E00E94FF2B882309F47CC0C7
:101D60000E94663B40E050E0BA0180E00E941D2FD7
:101D700080E00E94810388E00E94512510922E0D80
:101D80008D2DB6C081E0B4C082E0B2C084E1B0C0A5
:101D900088E1AEC084E1ACC088E1AAC084E1A8C0FB
:101DA00084E1A6C084E1A4C088E1A2C084E1A0C00F
:101DB00084E19EC087E19CC085E19AC087E198C01C
:101DC00084E196C085E194C084E192C086E290C02F
:101DD00089E18EC084E08CC08BE18AC086E188C036
:101DE00086E186C08CE184C085E282C08DE180C03E
:101DF00087E07EC08AE17CC08CE17AC08DE178C04A
:101E000084E176C084E174C087E072C08AE170C06A
:101E10008FE16EC087E06CC087E06AC08EE168C069
:101E20008FE166C086E164C08AE162C080E260C082
:101E300081E25EC082E25CC083E25AC081E258C0A7
:101E400081E256C08AE154C081E252C084E250C0AF
:101E500080E14EC080E14CC087E04AC08FE148C0BD
:101E600019821DA20C94B404A7E6BDE0AC92BCE1BB
:101E7000AB1227C00C942F05E7E6FDE0A082FCE141
:101E8000AF1225C00C94340521E028AB1FA232E02C
:101E90003EA380916A0D813009F092C85DC84AA1C5
:101EA0004423F1F0A7E2BDE0E7E6FDE080E090E04A
:101EB000242F30E076CA1091680D103509F09BCAC6
:101EC000CDCF8EE1A8120C9429050C942F059EE12C
:101ED000A91611F40C943705A1E0ABA30C942905C5
:101EE0001091680D103509F4C9CC18A21BA283CA41
:101EF000E2960FB6F894DEBF0FBECDBFDF91CF9153
:101F00001F910F91FF90EF90DF90CF90BF90AF9017
:101F10009F908F907F906F905F904F903F902F9009
:101F200008950F931F93CF93DF93EC018B01FB0177
:101F300084859585A685B78588839983AA83BB8385
:101F40008C859D8584609D878C87858D968DA78DDA
:101F5000B0A188879987AA87BB878091221085FFC7
:101F600006C0CB018E960E949F3B811114C0BE011A
:101F7000C8018E9636D3C091A20DC1110EC00E9429
:101F80007C1A892B59F080E28093A20D0E948D3239
:101F90000E945F2F03C0CFE001C0C0E08C2FDF9113
:101FA000CF911F910F910895EBE6F0E080818F783B
:101FB0008083E8E6F0E080818E7F8083089584B19D
:101FC0008F7884B985B1806785B98091221083FFAD
:101FD0000BC0EBE6F0E0808180678083E8E6F0E00C
:101FE0008081816080830895DFCF0895EF92FF9212
:101FF0000F931F93CF93DF9313B11077809122102B
:1020000086FD1BC080E7182718C0C0E0D0E000E0C4
:10201000EE24E394F12C8C2F0E94E72D812341F0D4
:10202000C7010C2E02C0880F991F0A94E2F7082BF3
:102030002196C330D10579F703C01111E6CF00E036
:10204000802FDF91CF911F910F91FF90EF90089516
:102050001F920F920FB60F9211240BB60F922F936F
:102060003F934F935F936F937F938F939F93AF9320
:10207000BF93EF93FF938091A20D813041F0809147
:10208000CE0D811104C06FD681E00E945A3EFF91AF
:10209000EF91BF91AF919F918F917F916F915F91E0
:1020A0004F913F912F910F900BBE0F900FBE0F904D
:1020B0001F9018952F923F924F925F926F927F924E
:1020C0008F929F92AF92BF92CF92DF92EF92FF9248
:1020D0000F931F93CF93DF93CDB7DEB7AA970FB6B9
:1020E000F894DEBF0FBECDBF9091A30D9111E3C157
:1020F00088A7FE0131968EE0DF011D928A95E9F7EF
:1021000086E090E09E878D87E1EDFFE0FDA3ECA3E4
:102110007F019E01215F3F4F590100E010E0412CFB
:10212000512C320138A5C32ED12C802F0E94D32DE3
:10213000D5018D935D01DF8ECE8EC601002E02C0CB
:10214000959587950A94E2F780FF19C020E030E06A
:1021500040EC5FEBF70160A971A982A993A90E94E5
:10216000D541862E972E282E392EA30192010E944A
:10217000973F882324F0482C592C622C732C0F5F36
:102180001F4FF4E0EF0EF11C0330110571F62E8C99
:102190003F8C8091281090912910A0912A10B09125
:1021A0002B1088A399A3AAA3BBA394E09E8F01E060
:1021B0000F2EF2EACF2EFDE0DF2EF02D62EC7DE057
:1021C000CE0142960E94853BA3E2B0E1EC90F12C57
:1021D000AE014E5E5F4FE2ECFDE0FFA3EEA3DE0139
:1021E0001F9680E090E060E010E053014201B7FAF2
:1021F000B094B7F8B094BAA7A9A79101082E02C06D
:10220000359527950A94E2F720FF31C06F5F108261
:102210001182128213829701082E02C035952795EC
:102220000A94E2F720FF10C0002339F0DA018D9202
:102230009D92AD92BC92139716C0DA014D925D92B9
:102240006D927C9213970FC0002339F0DA014D9202
:102250005D926D927C92139706C0DA018D929D92E9
:10226000AD92BC921397A9A5BAA52C91122B0196F9
:1022700029A53AA52F5F3F4F3AA729A74C5F5F4F8B
:1022800034968330910509F0B8CF462E512C612C3D
:10229000712CC301B2010E9437400E9462429B012F
:1022A000AC01D60116961C9368A179A18AA19BA1C5
:1022B0000E94D54169837A838B839C83BE016F5FC3
:1022C0007F4FCE0142960E94E31B24E0F601248357
:1022D0000E948D320E945F2F0023F1F087DEFE0105
:1022E0003F9620E030E0682F70E08191982F912395
:1022F00059F0AB01022E02C0559547950A94E2F7BA
:1023000040FF02C0809518232F5F3F4F23303105D7
:1023100061F7D60116961C930E948D328091B40D00
:10232000847329F11091B40D14FF03C086E00E945C
:102330005A3E15FF03C087E00E945A3E0111B8C003
:1023400055DEB8A58B2339F088E00E945A3E03C0C1
:1023500089E00E945A3E8091CE0D882321F003D55A
:102360000E941123A8C084E00E94503E04C0812F27
:102370008C7109F0B1CF0E941A32ECE2F0E1808159
:10238000918118D6F1E00F27D1F020E030E040EA4B
:1023900050E4AEE2B0E16D917D918D919C910E94EF
:1023A000D5412B013C01A4E2B0E18D919D910D90AE
:1023B000BC91A02D88A399A3AAA3BBA311C0EEE250
:1023C000F0E14080518062807380A8E2B0E18D919D
:1023D0009D910D90BC91A02D88A399A3AAA3BBA306
:1023E000BE8DB150BE8FB111E9CEE0902310F12C1B
:1023F00080902E1090902F10A0903010B09031103F
:102400002401350177FA709477F8709400E010E0B9
:10241000CEA0DFA0C101002E02C0959587950A9439
:10242000E2F780FF34C0C701002E02C09595879562
:102430000A94E2F780FF15C0ECA1FDA120A931A903
:1024400042A953A9C501B4010E94BE3EACA1BDA1E1
:102450002D913D914D915C910E94D5410E94A541E5
:102460000CC0ECA1FDA12081318142815381C301C7
:10247000B2010E94D5410E94A541D6016C931196EC
:102480007C93119712968C93129713969C930F5FDF
:102490001F4FB4E0CB0ED11CECA1FDA13496FDA3DF
:1024A000ECA30330110509F0B5CF1092A60D03C0BF
:1024B00012FF51CF4DCFAA960FB6F894DEBF0FBED4
:1024C000CDBFDF91CF911F910F91FF90EF90DF90E3
:1024D000CF90BF90AF909F908F907F906F905F90C4
:1024E0004F903F902F900895CF93DF930E949F3B92
:1024F0008823C9F0E2EAFDE081E0838380818830AF
:1025000061F40E94043CC2EADDE00E94112389814B
:10251000811109C088818111F8CF25D482E00E9401
:102520005A3E0E941123DF91CF9108950E94122AF2
:102530000E94C82D0E944B320E94D13A8CE0E2ECFE
:10254000FDE0DF011D928A95E9F778941092A20DC3
:102550008091221084FF03C081E08093A20DC2EA23
:10256000DDE00F2EF1E1DF2EF02D14E60F2EF6EB5D
:10257000EF2EFDE0FF2EF02D0CE08881FE019D2D59
:1025800011929A95E9F788831F8318871987D701D5
:10259000E02F1D92EA95E9F71092B50D1092B40D57
:1025A0001092CE0D1092A10D1092B30D0E942E2B01
:1025B0000E9461040E94312E0E94770300DD0E9478
:1025C0001C210E94F12D72D70E941A320E94AB0288
:1025D0000E94441F0E9473040E9491250E942F2490
:1025E000CCCFEF92FF920F931F93CF93DF938C0189
:1025F0007B018091221085FF06C08091A20D803260
:1026000031F0C80171DF8091A20D823031F1B70144
:10261000C8010E94BA02C2EADDE00E94112389814A
:1026200081111BC092D7882319F00E944421F5CF55
:10263000B701C8010E94E31B81110FC080912210D5
:1026400081FF0BC0F701848584FF07C04481558159
:102650006681778180E10E94472FDF91CF911F91A2
:102660000F91FF90EF9008952F923F924F925F92BB
:102670006F927F928F929F92AF92BF92CF92DF9292
:10268000EF92FF920F931F93CF93DF93CDB7DEB7F7
:10269000E2970FB6F894DEBF0FBECDBF9AAB89AB01
:1026A000788B6F875E874D873901ED82FE820F83BD
:1026B0001887898AD12CCC0CDD1CCC0CDD1CCA01FE
:1026C0008C0D9D1D9E8B8D8BD901AC0DBD1DBEA7A4
:1026D000ADA72D903D904D905C90FC012081318103
:1026E00042815381C201B1010E94BE3E6F8B788F3F
:1026F000898F9A8F0A2D10E0000F111F000F111FF4
:102700008D859E85800F911F9C8F8B8FD301A00F8D
:10271000B11FB8ABAFA78D909D90AD90BC90FC0160
:102720002081318142815381C501B4010E94BE3EA6
:102730006D8F7E8F8F8F98A3D201C101B05889838E
:102740009A83AB83BC83D501C401B05889879A872B
:10275000AB87BC87E9A9FAA9EC0DFD1D2F89388D3F
:10276000498D5A8D60817181828193810E94BD3E25
:102770006B017C01E9A9FAA9E00FF11F2D8D3E8DB7
:102780004F8D58A160817181828193810E94BD3EED
:102790004B015C01A701960169817A818B819C8143
:1027A0000E94D5412B013C01A501940169857A85E0
:1027B0008B859C850E94D5419B01AC01C301B20170
:1027C0000E94BE3E2B013C01A501940169817A81E2
:1027D0008B819C810E94D5414B015C01A701960130
:1027E00069857A858B859C850E94D5419B01AC01CA
:1027F000C501B4010E94BD3EA30192010E94313F78
:102800004B015C0129968FAD29978823A9F02DEB08
:1028100037E346E055EBC501B4010E949A41882395
:10282000FCF02BED3FE049EC50E4C501B4010E94FF
:10283000BD3E4B015C0114C02DEB37E346E055E390
:10284000C501B4010E94973F181654F02BED3FE0EC
:1028500049EC50E4C501B4010E94BE3E4B015C014D
:10286000C0901610D0901710E0901810F09019102A
:102870002D813E814F815885CA01B9010E94BE3E1B
:102880002B013C01A7019601C301B2010E94BD3E8C
:10289000A70196010E94D5410E9462426B017C0112
:1028A00020E030E040E05FE3C501B4010E94D54183
:1028B0002D813E814F8158850E94D5419F77A70188
:1028C00096010E949E3F0E9474400E940B406B0143
:1028D0007C013B016115710509F48BC1AF85B88995
:1028E0001C960D911C911D9703FF1AC080E090E08B
:1028F0000E9437409B01AC01EF85F88960817181AE
:10290000828193810E94D541AF85B8896D937D9373
:102910008D939C931397077F1D961C930E931C9782
:10292000B60180E090E00E9437406B017C019B0182
:10293000AC01C501B4010E949E3F69A77AA78BA78D
:102940009CA7B9898B2E912C880C991C880C991CFA
:102950004D845E84480C591CE9A9FAA9E80DF91DBB
:10296000D2012D913D914D915C9160817181828167
:1029700093810E94BD3EA70196010E949E3F698BF4
:102980007A8B8B8B9C8B29A53AA54BA55CA5CA019C
:10299000B9010E94D5419B01AC0160E070E080E08C
:1029A00090E40E94BD3E6B017C012BEA3AEA4AE2C8
:1029B0005EE369A57AA58BA59CA50E94D5414B0134
:1029C0005C0120E030E040E850E4C701B6010E941D
:1029D000BE3E9B01AC01C501B4010E94D54169A373
:1029E0007AA38BA39CA320E030E040E05FE3C70123
:1029F000B6010E94D5416DA37EA38FA398A7B2E034
:102A00006B16710408F4F5C010E022242394312CD5
:102A1000C984DA84EB84FC841C3008F044C0A7012C
:102A200096016DA17EA18FA198A50E94D5414B0171
:102A30005C0129813A814B815C8169A17AA18BA1DA
:102A40009CA10E94D541A50194010E94BE3E962EF4
:102A5000A72EB82E092F29813A814B815C816DA167
:102A60007EA18FA198A50E94D54169837A838B832B
:102A70009C83A701960169A17AA18BA19CA10E94C8
:102A8000D5419B01AC0169817A818B819C810E9437
:102A9000BD3E69837A838B839C831F5FC92CDA2CAC
:102AA000EB2CF02E66C0B10180E090E00E94374030
:102AB00029A53AA54BA55CA50E94D5416B017C01D7
:102AC0000E949B3F6D837E838F839887C701B601E9
:102AD0000E94584269877A878B879C87EDA5FEA55F
:102AE000C080D180E280F380F7FAF094F7F8F09498
:102AF000AFA5B8A98D909D90AD90BC90A70196010F
:102B00006D817E818F8198850E94D54169837A830A
:102B10008B839C83A501940169857A858B859C852F
:102B20000E94D5419B01AC0169817A818B819C8196
:102B30000E94BE3E69837A838B839C83A7019601A2
:102B400069857A858B859C850E94D5416B017C01C6
:102B5000A50194016D817E818F8198850E94D54168
:102B60009B01AC01C701B6010E94BD3E6B017C0117
:102B700010E02F89388D498D5A8D69817A818B813A
:102B80009C810E94BE3EED89FE89608371838283B1
:102B900093832D8D3E8D4F8D58A1C701B6010E94A4
:102BA000BE3EAB8DBC8D6D937D938D939C9313979F
:102BB00029893A894B895C89F2016081718182811E
:102BC00093810E94BE3ED2016D937D938D939C9321
:102BD00013976F8578898D859E8503DD8091A30D80
:102BE00081110CC0BFEF2B1A3B0A6214730409F069
:102BF00013CF6F85788989A99AA9F3DCE2960FB67D
:102C0000F894DEBF0FBECDBFDF91CF911F910F9122
:102C1000FF90EF90DF90CF90BF90AF909F908F90FC
:102C20007F906F905F904F903F902F900895CF923C
:102C3000DF92EF92FF922091A20D223041F06B01C2
:102C40007C010E94DB2440E0C701B60176D1FF90F1
:102C5000EF90DF90CF900895A7D984E02BDA83E03E
:102C600029DA0E9411238091A30D811105C00E94D1
:102C700073040E94441FA3C90895DF92EF92FF924C
:102C80000F931F93CF93DF932091A20D223009F46D
:102C90005DC0D42E7B018C010E94DB248091A30DAA
:102CA000811156C01092A70DD3FA882780F90E948F
:102CB0000B210E942921882351F084E00E945A3E72
:102CC0000E94112380E00E940B2182E044C0B701E2
:102CD000C80187DC81E08093B50D82E00E94043C4E
:102CE000C2EADDE00E9411238981811133C088810D
:102CF0008111F8CF8091B50D813081F4D4FE0AC0E6
:102D00008CE0E2ECFDE0A6EBBDE001900D928A952F
:102D1000E1F707C085E00E945A3E03C081E080933E
:102D2000A70D1092B50D80E00E940B210E94112387
:102D30000E941A32BBD30E94441F0E94AB2681E03E
:102D40009091A70D911107C080E005C080E003C0FD
:102D500082E001C082E0DF91CF911F910F91FF903F
:102D6000EF90DF9008958091B40D84FD1FC080E145
:102D70000E94043C0E94262E0E946E038091A20DA8
:102D8000982F9C7221F49091A60D967079F0843062
:102D900041F48091CE0D811107C086E00E945A3E19
:102DA00003C083E00E945A3E0C94772F08954F92FF
:102DB0005F926F927F928F929F92AF92BF92CF92CB
:102DC000DF92EF92FF920F931F93CF93DF93DC017B
:102DD000FB01C081D0E0FC01EC0FFD1F90819D3212
:102DE00029F4EF012296918101E00BC09B3229F07A
:102DF0002196CA0FDB1F00E004C0EF0122969181EB
:102E000000E080E020E010E0412C512C320131E064
:102E1000FE0190539A3010F52F5F2930D8F48111BC
:102E2000115053014201880C991CAA1CBB1C880C30
:102E3000991CAA1CBB1C840C951CA61CB71C880CD6
:102E4000991CAA1CBB1C24013501490E511C611C94
:102E5000711C09C0811107C01F5F05C09E3F31F47E
:102E6000811104C0832F90812196D2CF222309F4AF
:102E700052C06A017B015D01C301B2010E9437406B
:102E80002B013C0120E030E0A9010E94973F8823FC
:102E900051F11F3F6CF42AE037ED43E25CE3C301DC
:102EA000B2010E94D5412B013C011E5F1F3F9CF3E4
:102EB00011235CF42DEC3CEC4CEC5DE3C301B2015E
:102EC0000E94D5412B013C010EC0111664F420E094
:102ED00030E040E251E4C301B2010E94D5412B0130
:102EE0003C011150A1F7002351F077FA709477F864
:102EF0007094F601408251826282738205C0F601AD
:102F00004082518262827382CA19DB09C150F70183
:102F1000C08381E001C080E0DF91CF911F910F91CC
:102F2000FF90EF90DF90CF90BF90AF909F908F90E9
:102F30007F906F905F904F900895FF920F931F9333
:102F4000CF93DF93F42E20E030E040EA51E40E947A
:102F5000D5410E94843F0E940B406115710521F10B
:102F60002091A30D211120C0EB0102EA1DE005C054
:102F70002197F8018181811117C0F11003C00E94CF
:102F8000112306C00E944B21F801828181FD0CC0F3
:102F9000FFEF20E782E0F15020408040E1F700C0E1
:102FA0000000C130D10521F7DF91CF911F910F9122
:102FB000FF900895009741F0EFE9FFE03197F1F7B6
:102FC00000C000000197C1F708954F925F926F9281
:102FD0007F928F929F92AF92BF92CF92DF92EF92A9
:102FE000FF924B015C0169017A01A5019401C501C1
:102FF000B4010E94D5414B015C01A7019601C701B4
:10300000B6010E94D5419B01AC01C501B4010E94EB
:10301000BE3E0E946242FF90EF90DF90CF90BF9043
:10302000AF909F908F907F906F905F904F9008959A
:103030004F925F926F927F92AF92BF92CF92DF9248
:10304000EF92FF920F931F93CF93DF93EC015C01FC
:103050008CE0A80EB11C8E01412C512C3201F801DC
:10306000C190D190E190F1908F0120E030E0A90172
:10307000C701B6010E94973F882371F0A70196010E
:10308000C701B6010E94D5419B01AC01C301B20149
:103090000E94BE3E2B013C010A151B0501F7C3012E
:1030A000B2010E9462422B013C019B01AC0160E035
:1030B00070E080E89FE30E949E3F6B017C01A701C6
:1030C0009601688179818A819B810E94D5416993AB
:1030D000799389939993CA15DB0589F7C301B201E6
:1030E000DF91CF911F910F91FF90EF90DF90CF90E4
:1030F000BF90AF907F906F905F904F9008956F92C8
:103100007F928F929F92AF92BF92CF92DF92EF9277
:10311000FF920F931F93CF93DF93EB018C017B0101
:103120008CE0E80EF11C0F2EF9E97F2EF02D0F2E0A
:10313000F6E7CF2EF02D0F2EF6E9DF2EF02D0F2E15
:10314000FEE76F2EF02D89909990A990B99020E01C
:1031500030E0A901C501B4010E94973F8823D9F04E
:10316000A5019401F80160817181828193810E949F
:103170009E3F4B015C01E894B7F8272D3C2D4D2D67
:10318000562DC501B4010E949A41181624F0782CDE
:10319000C92CDA2C6B2C0C5F1F4FCE15DF0599F66E
:1031A000672D7C2D8D2D962DDF91CF911F910F9145
:1031B000FF90EF90DF90CF90BF90AF909F908F9057
:1031C0007F906F9008952F923F924F925F926F92EF
:1031D0007F928F929F92AF92BF92CF92DF92EF92A7
:1031E000FF920F931F93CF93DF93C0911E02C111E3
:1031F00001C0C4E2C150D0911C02DC1709F436C1F1
:103200000C2F10E02CE3C29FC0011124FC01E05EF2
:10321000FD4F6F01E28CF38C948C858C668D778DDD
:1032200080A191A19B01AC010E94BE3EF60122A1AA
:1032300033A144A155A10E94D541A62EB72EC82E78
:10324000D92E262F372F482F592F6E2D7F2D892DC0
:10325000982D0E94973F882324F0EA2CFB2C9C2C6D
:103260008D2C8CE3809FF001819FF00D1124E05E96
:10327000FD4F8E2D9F2DA92DB82D868B978BA08F5E
:10328000B18FC11101C0C4E2C150DC1307C08091ED
:103290001F02D8137CC00E946D3279C02CE3209F9E
:1032A000C001219F900D11249C01205E3D4F6901BA
:1032B000DCE3EC2EF12CDE9D8001DF9D100D11244E
:1032C000005E1D4FC11101C0C4E2C15080911F02B8
:1032D0008C1302C00E946D32DE9DF001DF9DF00D67
:1032E0001124E05EFD4F428C538C648C758CA301DD
:1032F000920166897789808D918D0E94973F8823FE
:1033000009F440C0DE9DC001DF9D900D1124FC0139
:10331000E05EFD4F5F01668D778D80A191A19B01DD
:10332000AC010E94BE3EF50122A133A144A155A1EA
:103330000E94D541F60126893789408D518D0E9422
:10334000BE3E4B015C019B01AC01C301B2010E9476
:103350009A41181664F4DE9DF001DF9DF00D1124F2
:10336000E05EFD4F868A978AA08EB18E0BC0DE9DEF
:10337000F001DF9DF00D1124E05EFD4F468A578A73
:10338000608E718E680180911C028C1392CF209008
:103390001C02FCE32F9EC00111249C01205E3D4FC6
:1033A0007901C1E0C20DC43209F4C0E030901E02C0
:1033B000DCE358C0CC2ED12CDC9D8001DD9D100DAE
:1033C0001124005E1D4FF70146885788608C718C70
:1033D000F80186889788A08CB18CA5019401C3015F
:1033E000B2010E94973F882324F5F701668D778DFF
:1033F00080A191A19B01AC010E94BE3EF70122A1D8
:1034000033A144A155A10E94D541A30192010E947C
:10341000BE3E2B013C019B01AC01C501B4010E94E1
:103420009A41181634F4F801468A578A608E718ED4
:103430002C2EDC9DF001DD9DF00D1124E05EFD4F92
:10344000228D338D448D558D66897789808D918D40
:103450000E94973F811101C02C2ECF5FC43209F426
:10346000C0E07801C311A6CF20921C02DF91CF915A
:103470001F910F91FF90EF90DF90CF90BF90AF9092
:103480009F908F907F906F905F904F903F902F9084
:10349000089580E092E0089510921F0210921E029B
:1034A00081E080931D0210921C0208958CE1E0E0FF
:1034B000F2E0DF011D928A95E9F7EECF0895809141
:1034C0001F0290911E02981769F091E0980F9432B4
:1034D00009F490E020911C02821302C090931C0218
:1034E00090931F02089580911E022CE3829FC001D9
:1034F0001124805E9D4F089580911F0290911E02BD
:10350000981739F02CE3829FC0011124805E9D4FF3
:10351000089580E090E00895E0911F02EF5FE432AB
:1035200009F4E0E080911E028E1759F08CE3E89FC9
:10353000F0011124E05EFD4F66897789808D918DC1
:10354000089560E070E0CB01089581E020911F02B2
:1035500090911D02291380E00895AF92BF92CF92FF
:10356000DF92EF92FF920F931F93CF93DF93EC01C3
:103570001EA5AFA4E8A809A9898980FF1AC0609197
:10358000AA0D70E080E090E00E9439402AE037ED1B
:1035900043E25CE30E94D5419B01AC01612F7A2D8F
:1035A0008E2D902F0E94D541162FA72EE82E092F81
:1035B0002FC082FD19C06091A90D70E080E090E0FD
:1035C0000E9439402AE037ED43E25CE30E94D54196
:1035D0009B01AC01612F7A2D8E2D902F0E94D54139
:1035E000162FA72EE82E092FBAA4CBA4DCA4FDA485
:1035F0002B2D3C2D4D2D5F2D612F7A2D8E2D902F53
:103600000E949A41181624F41B2DAC2CED2C0F2D82
:1036100020E030E040E85FE3612F7A2D8E2D902F7F
:103620000E949A4118161CF4DA2DCE2D04C010E029
:10363000D0E0C0E80FE3612F7D2F8C2F902FDF911A
:10364000CF911F910F91FF90EF90DF90CF90BF909F
:10365000AF9008955F926F927F928F929F92AF92F8
:10366000BF92CF92DF92EF92FF920F931F93CF936F
:10367000DF9310911F0250901E020F2EF9E99F2E2A
:10368000F02D0F2EF6E78F2EF02D0F2EF6E97F2E60
:10369000F02D0F2EFEE76F2EF02D0F2EFCE3CF2E18
:1036A000F02D73C0C12FD0E0CC9EC001CD9E900DF7
:1036B0001124805E9D4F51DF062FF72EE82ED92E64
:1036C000262F372F482F592F692D782D872D962D8E
:1036D0000E94973F8823CCF4CC9EC001CD9E900DD4
:1036E00011249C01205E3D4F5901292D382D472D75
:1036F000562D692D782D872D962D0E94D541F501E7
:10370000628F738F848F958F18C0CC9EC001CD9E21
:10371000900D11249C01205E3D4F5901202F3F2D1B
:103720004E2D5D2D602F7F2D8E2D9D2D0E94D5411C
:10373000F501628F738F848F958FCC9EF001CD9EA3
:10374000F00D1124E05EFD4F86A097A0A0A4B1A4C7
:10375000A5019401628D738D848D958D0E949A418F
:1037600018165CF4CC9EF001CD9EF00D1124E05EA5
:10377000FD4F828E938EA48EB58E1F5F143209F496
:1037800010E0902E8F2C7E2C6D2C15118BCF892D57
:10379000982DA72DB62D8093180290931902A0930F
:1037A0001A02B0931B02DF91CF911F910F91FF90EE
:1037B000EF90DF90CF90BF90AF909F908F907F90D1
:1037C0006F905F9008952F923F924F925F926F9209
:1037D0007F928F929F92AF92BF92CF92DF92EF92A1
:1037E000FF920F931F93CF93DF93CDB7DEB7CE54E5
:1037F000D1090FB6F894DEBF0FBECDBF2B967FAFB9
:103800006EAF2B9720911E02222E312C3CE3329D6D
:10381000A001339D500D1124BA01605E7D4F2996A1
:103820007FAF6EAF2997DB011D923A95E9F72B9692
:10383000EEADFFAD2B973485DB0151963C9344816F
:103840005581668177812996EEADFFAD299742AB10
:1038500053AB64AB75AB2B96AEADBFAD2B97189643
:103860004D915D916D917C911B97428B538B648B35
:10387000758B31FF0AC03CE0E2ECFDE0DE011D96F5
:1038800001900D923A95E1F79BC23CE0E0E0F2E056
:10389000DE011D9601900D923A95E1F791C2A9A91A
:1038A000BAA96D917D918D919D91BAABA9ABEDA90E
:1038B000FEA9C190D190E190F190FEABEDABA701D4
:1038C00096010E94D5410E94A54127966CAF7DAF1D
:1038D0008EAF9FAF2797AFA9B8AD6D937D938D93B2
:1038E0009D93B8AFAFABE9ADFAAD41905190619007
:1038F0007190FAAFE9AF6419750986099709ABAD04
:10390000BCADED91FD91BCAFABAF2B013C01992358
:103910003CF4442455243201461A570A680A790AAD
:10392000A30192012E0F3F1F411D511DADADBEAD34
:103930002D933D934D935D93BEAFADAF2196AEAD4C
:10394000BFAD2197ED93FD932196BFAFAEAF219709
:10395000F4014080518062807380421653066406F1
:10396000750610F429013A01D4014D925D926D92D1
:103970007C9213970E943940A70196010E949E3FB6
:103980002396EEADFFAD239761937193819391934D
:103990002396FFAFEEAF239727962CAD3DAD4EADEE
:1039A0005FAD2797232B242B252B11F0D5010C93EA
:1039B00020E030E0A9010E94973F88236CF4812F1A
:1039C0000E94DD2D2F96EEADFFAD2F979081892BB4
:1039D0008083EFEFD501EC931F5FFFEFAF1ABF0AB3
:1039E000133009F05CCF8CE3829DF001839DF00DD4
:1039F0001124E05EFD4F84859585A685B785892BCA
:103A00008A2B8B2B09F4D8C1CE01499611DB2CE30C
:103A1000229D8001239D100D1124005E1D4FD801B1
:103A200092966D937D938D939C939597BE01675E5F
:103A30007F4F85EF9FE063DBF801668F778F80A370
:103A400091A3BE01675E7F4F89EE9FE058DBD801EE
:103A50009A966D937D938D939C939D9751961C910F
:103A6000519710FF06C0FD0166A777A780AB91AB09
:103A700022C02B96EEADFFAD2B9720813181428184
:103A800053818CE3829DF001839DF00D1124E05E53
:103A9000FD4F26A737A740AB51AB13FF0CC07F01EA
:103AA00062A173A184A195A10E94D541F70166A7E7
:103AB00077A780AB91AB90911E0280911F0298175F
:103AC00011F011FF11C08CE3829DF001839DF00D78
:103AD0001124E05EFD4F168A178A108E118E16A2F1
:103AE00017A210A611A6D6C00CE012E02E01F5E236
:103AF0004F0E511C320119AA1AAA1BAA1CAAD801DE
:103B0000CD90DD90ED90FD908D012D96EEADFFAD49
:103B10002D9781909190A190B1902D96FFAFEEAF2F
:103B20002D97A5019401C701B6010E94D5419B01C3
:103B3000AC0169A97AA98BA99CA90E94BD3E69AB79
:103B40007AAB8BAB9CABA7019601C501B4010E9477
:103B5000BD3ED2016D937D938D939D932D012D9646
:103B6000EEADFFAD2D97E615F70549F62FEE3FEFC9
:103B70004FE75FE369A97AA98BA99CA90E949A41A2
:103B800018166CF48CE3829DF001839DF00D1124D6
:103B9000E05EFD4F16A217A210A611A67BC02FEE65
:103BA0003FEF4FE75FEB69A97AA98BA99CA90E9417
:103BB000973F88238CF48CE3829DF001839DF00D68
:103BC0001124E05EFD4F89E996E7A6E9BEE786A3EA
:103BD00097A3A0A7B1A75EC0CE01859629DABE0142
:103BE0006B5D7F4F85EF9FE08ADA6B017C0129A92D
:103BF0003AA94BA95CA960E070E080E89FE30E94CD
:103C0000BD3E20E030E040E05FE30E94D5410E94ED
:103C100062424B015C0120911210309113104091CF
:103C2000141050911510C701B6010E94D541A5018D
:103C300094010E94D5416B017C01A501940160E0D3
:103C400070E080E89FE30E94BD3E9B01AC01C7018C
:103C5000B6010E949E3FE62EF72E082F192F20E076
:103C600030E0A9010E94973F882324F4E12CF12C35
:103C700000E010E08CE3829DF001839DF00D1124A3
:103C8000E05EFD4F4E2D5F2D602F712F46A357A391
:103C900060A771A78CE3829DF001839DF00D112434
:103CA000E05EFD4F818981FD89C029968EAD9FAD73
:103CB000299753DC6B017C018090180290901902C7
:103CC000A0901A02B0901B02A50194010E949A4193
:103CD0001816B4F48CE3829D8001839D100D11248D
:103CE000005E1D4FA5019401C501B4010E94D5419C
:103CF000D8015A966D937D938D939C935D9713C0D5
:103D00008CE3829D8001839D100D1124005E1D4F68
:103D1000A7019601C701B6010E94D541F801628F43
:103D2000738F848F958F8CE3829DF001839DF00DBE
:103D30001124E05EFD4F86A097A0A0A4B1A4A50128
:103D40009401628D738D848D958D0E949A41181611
:103D500064F48CE3829DF001839DF00D1124E05EFC
:103D6000FD4F828E938EA48EB58EC0921802D09293
:103D70001902E0921A02F0921B028CE0FE01799681
:103D8000ACE0B2E001900D928A95E1F78CE0FE0183
:103D90003196A0E0B2E001900D928A95E1F7809112
:103DA0001D0280931E028F5F843209F480E08093AD
:103DB0001D0209DA81E04EC080E04CC081E04AC0BB
:103DC00089AB9AAB41ED5FE05EAB4DABBE016F5F7F
:103DD0007F4F78AF6FABCE010D969AAF89AFA1E25E
:103DE000BDE0BCAFABAFBCE32B9FC0011124FC0115
:103DF000E05EFD4FFEAFEDAF9C012A5A3D4F21968C
:103E00003FAF2EAF2197AE01475E5F4F2D965FAF5C
:103E10004EAF2D970F2EFEE1AF2EFDE0BF2EF02D01
:103E200023965FAF4EAF239710E02CE3229DC00195
:103E3000239D900D1124805E9D4F4C015CE0850E0A
:103E4000911C01E0BC01605F7F4F2F967FAF6EAF8A
:103E50002F9725CDC25BDF4F0FB6F894DEBF0FBEA4
:103E6000CDBFDF91CF911F910F91FF90EF90DF9029
:103E7000CF90BF90AF909F908F907F906F905F900A
:103E80004F903F902F900895E2ECFDE0A0E0B2E06B
:103E90008EEC9DE041915191619171914D935D93B3
:103EA0006D937D93E817F907A9F7089590911E0285
:103EB00080911F02981718F08D5D891B089581501D
:103EC000891B08950E946D3280911F0280931C020D
:103ED0007AC90895CF93DF93EC018881882331F06C
:103EE00021960E94222A89918111FBCFDF91CF91E7
:103EF0000895CF93DF93EC012196FC0184918823F0
:103F000039F00E94222AFE01849121968111F9CF75
:103F1000DF91CF910895CF93DF93843690F09DEC9D
:103F2000899F912D1124969596959695392F330F4B
:103F3000232F220F220F230F821BD0E3D80F892FAC
:103F400001C0D0E08A30F8F09DEC899F912D1124BA
:103F5000969596959695392F330F232F220F220F82
:103F6000230FC82FC21BC05D80E3890F0E94222A45
:103F7000CC2319F08C2F0E94222ADD2341F08D2FB3
:103F80000E94222A04C0805D0E94222AF6CFDF917F
:103F9000CF9108958F929F92AF92BF92EF92FF922E
:103FA0001F93CF93DF93CDB7DEB72A970FB6F89460
:103FB000DEBF0FBECDBF611571058105910521F4EE
:103FC00080E30E94222A2CC020E00F2EFAE08F2EE0
:103FD000912CA12CB12CF02D11E0120FEE24E394C2
:103FE000F12CEC0EFD1EE20EF11CA50194010E94C5
:103FF000843EF7016083622F732F842F952F212F2A
:10400000611571058105910539F7112349F0FE010C
:10401000E10FF11D8081805D0E94222A1150B9F7C5
:104020002A960FB6F894DEBF0FBECDBFDF91CF91B9
:104030001F91FF90EF90BF90AF909F908F90089549
:10404000CF92DF92EF92FF926B017C01992364F48F
:104050008DE20E94222A66277727CB016C197D0901
:104060008E099F0997DF01C095DFFF90EF90DF90E9
:10407000CF9008958F929F92AF92BF92CF92DF928E
:10408000EF92FF920F931F93CF93DF93CDB7DEB7DD
:104090002D970FB6F894DEBF0FBECDBF6B017C012C
:1040A000042F20E030E0A9010E94973F88233CF4D0
:1040B0008DE20E94222AF7FAF094F7F8F094023089
:1040C00088F0102F20E030E048EC52E4C701B60140
:1040D0000E94D5416B017C011250123098F7802F5D
:1040E000817001C0802F882351F020E030E040E251
:1040F00051E4C701B6010E94D5416B017C0120E06B
:1041000030E040E05FE3C701B6010E94BE3E0E947E
:104110000640611571058105910519F120E00F2E0A
:10412000FAE08F2E912CA12CB12CF02D11E0120F62
:10413000EE24E394F12CEC0EFD1EE20EF11CA50121
:1041400094010E94843E605DF7016083622F732FAB
:10415000842F952F212F611571058105910531F768
:1041600001C010E0101760F480E3E1E0F0E0EC0F34
:10417000FD1FE10FF11D80831F5F0113F6CF02C009
:10418000011307C011E0100F80E3FE01E00FF11DE5
:104190008183112369F0011303C08EE20E94222A59
:1041A000FE01E10FF11D80810E94222A115099F732
:1041B0002D960FB6F894DEBF0FBECDBFDF91CF9125
:1041C0001F910F91FF90EF90DF90CF90BF90AF9035
:1041D0009F908F9008952091221020FF09C02BE816
:1041E00032E441E25DE30E94D54144E043CF0895CB
:1041F00043E040CF08952091221020FF09C02BE812
:1042000032E441E25DE30E94D54141E033CF0895BD
:1042100040E030CF08951092D00D90912210992354
:104220001CF090E89093D00D882329F08091D00D58
:1042300080588093D00D0895E7E0F1E080818F777A
:104240008083E8E0F1E080818068808380E0E3CFD4
:1042500008958091060180789091D00D8927089566
:10426000F8DF882381F01092B50D8CE0E2ECFDE0E0
:10427000A6EBBDE001900D928A95E1F78091B40D17
:1042800080648093B40D089537D9892B19F082E0AA
:104290000C94043C0895CF93DF93C091CE0DCC23B2
:1042A00099F081E08093A20D8C2FEDD3C150C230E4
:1042B00048F481E0F6D380E10E94503E8091B40D35
:1042C00084FFFCCF0E94603EC091B40DCC2309F462
:1042D000F2C0C4FF04C081E08093A30D9FC1C0FF62
:1042E00004C09ED681E00E94503E8C2F887E09F447
:1042F00063C08091A20D982F937009F04CC0887212
:1043000099F08091A40D807C79F40E946D32E2EAEC
:10431000FDE082E084838081803231F4CC23BCF0E4
:1043200092819068928313C08091A20D811106C082
:1043300091E09093A40DC6FD05C068C1C6FF07C0FB
:1043400085FD05C0E2EAFDE0928190649283C3FF9F
:1043500005C0807E19F480E18093A20DC5FF1BC0CB
:1043600086E09FD38091A40D882384F09091A20DC4
:10437000903439F483FF07C0837E82608093A40D5C
:1043800002C0903819F080E48093A20DE2EAFDE0CB
:10439000828180628283CC2364F48091A20D81307B
:1043A00029F4E2EAFDE082818560828380E88093DF
:1043B000A20D88EE0E94503EC1FF42C08C2F88762D
:1043C000E1F58091A20D803479F48091A40D85FDF2
:1043D00034C084FF03C01092A20D18C082FF2DC00C
:1043E00088608093A40D29C0882381F084FF25C0B4
:1043F0009091A40D90FF21C0803141F48091AC0DCB
:10440000882321F088608093AC0D17C01092A60D10
:1044100073D8892B71F08091A40D86FD0AC0E2EA61
:10442000FDE0128288E080830E948D320E945F2F1F
:1044300004C0E2EAFDE01282108282E00E94503E57
:10444000C2FF39C08091A20D807DB1F08091A50D91
:10445000811112C08091A40D882394F033DD8091E6
:10446000A60D81FF05C0E2EAFDE092819160928392
:10447000897F8093A60D1CC08091A40D882344F4ED
:104480001092A60D13D80E941A320E947304FCDC0D
:104490008091A40D85FF08C0E2EAFDE08F7781607E
:1044A000828380E4808304C0E2EAFDE0128210820D
:1044B00084E00E94503EC091A10DCC2371F10E9476
:1044C000783E2091A90DC0FF02C084E601C0822F72
:1044D000C1FD865FC2FD8A50C3FD8F5FC4FD815060
:1044E000893C08F088EC8A3008F48AE03091AA0D03
:1044F000C5FF02C094E601C0932FC6FD92E3CC2312
:104500000CF499E1281302C0931739F0E2EAFDE0B8
:104510008783908713869ED8D5DCC091B30DCC23BA
:1045200009F462C00E947E3E9091AB0DC0FF02C0B4
:1045300084E601C0892FC1FD865FC2FD8A50C3FD9C
:104540008F5FC4FD8150893C08F088EC8A3008F404
:104550008AE09817B9F0E2EAFDE081878081811155
:104560000AC0E7E2FDE0438554856585768581854F
:104570000E941D2F05C0E2EAFDE0848188608483EB
:104580001092AD0DC5FF12C08091A20D803171F463
:104590008091AC0D811104C082E08093AC0D32C0DB
:1045A00080FF30C084608093AC0D2CC08C2F807C49
:1045B000D9F08091A20D882311F08873A9F0D091D1
:1045C0002F0DCC232CF4DD2314F4DF7701C0D06849
:1045D000C6FF05C0D6FF02C0DF7B01C0D0648D2FAF
:1045E0000E948103D0932F0D8091CF0D882319F065
:1045F0000BD71092CF0D8091A20D8C7F79F00E9485
:104600008D320CC08C2F807CD1F603C0C3FDA3CEAD
:10461000A5CE8091CF0D882391F3EACFDF91CF9182
:1046200008957F928F929F92AF92BF92CF92DF9226
:10463000EF92FF920F931F93CF93DF932CDE809125
:10464000A40D882309F4FDC00E947C1AEC01892B7B
:1046500051F4E7E2FDE0D1848085D82A83849484F4
:10466000A584B6840BC08989182F10730E94620339
:10467000D82ED12A8AA89BA8ACA8BDA880912210C8
:1046800081FF03C080E20E946F3E9091A40D9923A8
:1046900009F4D7C08091A30D8111D3C0C2EADDE037
:1046A0008D2D8073C82E07E21DE00F2EF2E2EF2E53
:1046B000F0E1FF2EF02D77247394ED2DE07CDE2EBB
:1046C00003C029812111BDC090FFAFC02881322FC6
:1046D000307C09F46FC092FD0FC01A8640E050E0B4
:1046E000BA0180E00E941D2F80E00E9481038A8130
:1046F0008D7F84608A8399C02038C1F48BE0D1D14A
:1047000040E050E0BA0180E00E941D2F80E00E944E
:1047100081030E94772F8091A30D811192C0C2EA7C
:10472000DDE0B9DD89818823E1F38BC0203439F4E1
:104730000E943F3B811103C08A818F7D8A838A81D9
:1047400083FF73C0F80191859923D1F081FD72C078
:10475000F701808181FF08C08C8188608C83F8011B
:104760008085811114C06BC0B501A4018C2D0E94FD
:104770001D2F472D60E070E080E890E40E949D17B7
:10478000F8018085882369F08A8181FD4EC08D2DD6
:104790000E948103472D60E070E080E89FE30E9463
:1047A0009D178A8181FD41C080618A8382E00E94D9
:1047B000043C3BC09A85992369F191FF0EC0F80132
:1047C0008185882341F040E050E0BA0180E00E94FA
:1047D0001D2F7A862AC01A8628C09C7031F1F801F4
:1047E0008185882379F08AE05CD1F701808181FF9F
:1047F00004C08C8188608C8305C0B501A4018C2D18
:104800000E941D2F8A8583FF03C082E00E94043C22
:104810001A860BC08C8183FF08C0B501A4018C2DC2
:104820000E941D2F8C81877F8C8335DD9A819111A9
:1048300048CF07C0F80180858111F7CFB2CF8A81B8
:10484000B3CFDF91CF911F910F91FF90EF90DF9049
:10485000CF90BF90AF909F908F907F900895DF9200
:10486000EF92FF920F931F93CF93DF9380912210CB
:1048700083FF09C00E94F60F882329F081E080930E
:10488000A20D87E00ED18091A20D817869F082E0BF
:1048900008D181E08093A20DF12CE12CC2EADDE089
:1048A00000E91AE0D12C76C01092A20D0E943F3B85
:1048B000882331F08091B40D80628093B40DB1DE15
:1048C00080E99AE00E94423BE7CF8A3011F08D30B8
:1048D00089F5A7DE8981811166C0EF2DF0E0E057F0
:1048E000F54F1082E0FE05C08BE0BDD0FD2CE12C21
:1048F00051C0F8018081811105C08D2DB4D0FD2CEF
:10490000E12C48C0843239F4C8010E940D3CABD080
:10491000FD2CE12C3FC08881817229F089E0A3D071
:10492000FD2CE12C37C0C8010E947A049CD0FD2CDC
:10493000E12C30C0EE2031F0893261F5FE2DFD7F93
:10494000EF2E28C0813230F18F3221F18832C1F050
:104950008B33D1F09FEFF916D9F09FE9980F9A3178
:1049600040F4EF2DF0E0E057F54F80528083F39450
:1049700011C0EF2DF0E0E057F54F8083F3940AC0AB
:104980006894EE24E1F806C06894EE24E2F802C0D0
:10499000EE24E3949BD58F3F09F097CF75DC41DE81
:1049A00089818823B9F3DF91CF911F910F91FF90F7
:1049B000EF90DF900895CF93DF9366DCC2EADDE0ED
:1049C00030DE8981811107C00E947C1A892BC1F7D2
:1049D00088818830A9F3DF91CF9108958BEB94E023
:1049E00088CA08958DE52ED5F9CF08950F931F93AA
:1049F000CF938C01C0E0F801619171918191919107
:104A00008F01E9DBC23010F48CE21CD5CF5FC330DC
:104A100091F7CF911F910F910895CF93C82F84E202
:104A200011D58C2F78DA8DE30DD5CF910895CF93E2
:104A3000C62FF3DF8C2F6FDAD1DFCF910895CF929D
:104A4000DF92EF92FF92CF936A017B01C22FE5DFE5
:104A50004C2FC701B6010EDBC1DFCF91FF90EF9065
:104A6000DF90CF900895CF93C82F811104C085ECBB
:104A700094E03FDA06C08EEB94E03BDA8C2F4BDA01
:104A8000ADDFCF910895CF93C82F84EB94E031DA56
:104A90008C2F41DAA3DF84EF91E00E94DA17CF91E7
:104AA0000895CF93C82F8EEA94E023DA8C2F90E0FC
:104AB000FC013197EB30F10588F58827EB5FFE4F5D
:104AC0008F4F0C94A63E8CE994E013DA27C088E857
:104AD00094E00FDA23C086E794E00BDA1FC08EE67D
:104AE00094E007DA1BC085E694E003DA17C08AE594
:104AF00094E0FFD913C08DE494E0FBD90FC085E4A6
:104B000094E0F7D90BC082E394E0F3D907C080E2C8
:104B100094E0EFD903C087E194E0EBD963DFCF9154
:104B200008958BEE93E0E5C9089581EA93E0E1C929
:104B30000895EF92FF920F931F93CF93DF93C1EDF0
:104B4000DFE06CAD70E080E072DF6FAD70E081E0BF
:104B50006EDF6DAD70E082E06ADF6EAD70E083E025
:104B600066DFC2E2D0E1688162FB662760F970E02F
:104B700084E05DDF688166FB662760F970E085E0B0
:104B800056DF8881082E000C990B692F661F662757
:104B9000661F70E086E04BDF6091111070E08AE0E4
:104BA00046DF4091121050911310609114107091D3
:104BB000151023E08BE043DF409116105091171041
:104BC000609118107091191023E08CE038DF688133
:104BD000617070E08DE02BDF688165FB662760F90E
:104BE00070E084E124DF688163FB662760F970E090
:104BF00085E11DDF68816295617070E086E117DFF5
:104C00006091231070E087E112DF409124105091F1
:104C10002510609126107091271023E088E10FDFA6
:104C2000409128105091291060912A1070912B10FA
:104C300023E089E104DF60912C1070912D108AE14E
:104C4000F6DE40912E1050912F106091301070912F
:104C5000311023E08BE1F3DE40911A1050911B10CC
:104C600060911C1070911D1020E08EE1E8DE4091F3
:104C70001E1050911F10609120107091211020E0A3
:104C80008FE1DDDE68816695617070E080E2CFDEE5
:104C90000F2EF4E6FF2EF02DD0E04DC0D230E9F01B
:104CA00028F4DD2341F0D13079F03AC0D33031F12E
:104CB000D43071F135C0F801408151816281738136
:104CC00023E08C2FBCDE2CC0F801408D518D628D0D
:104CD000738D23E08C2FB3DE23C020E030E041E66B
:104CE00055E4F80164A175A186A197A10E949E3F99
:104CF000AB01BC0123E08C2FA2DE12C0F80140A959
:104D000051A962A973A9705823E08C2F98DE08C0BE
:104D1000F801448555856685778523E08C2F8FDEE5
:104D20000C5F1F4FCF5FCE11B9CFFAE0FF0EDF5FF0
:104D300086E9F81649F001ED1FE00F2EF3E0EF2EA3
:104D4000F02DEF0CCF2DAACFDF91CF911F910F91B6
:104D5000FF90EF900895CF93DF93CDB7DEB72C97F8
:104D60000FB6F894DEBF0FBECDBF8BE993E0C1D87C
:104D700066EB7DE0CE0101960E94853BCE01019657
:104D800035DE8AE35FD38091A70DC5D82BDE2C9644
:104D90000FB6F894DEBF0FBECDBFDF91CF9108955F
:104DA0000F931F93CF93DF93CDB7DEB72C970FB63A
:104DB000F894DEBF0FBECDBF01E001C00F5F1FEF53
:104DC000100FBE016F5F7F4F812F19D5811103C076
:104DD00087E049DE3DC088E993E08BD8163019F0B2
:104DE000173059F014C085E993E083D88AE32AD3B9
:104DF000CE010196FBDDF6DDE1CF82E993E079D8C3
:104E00008AE320D3CE010196F1DDECDD0CC085E311
:104E1000800F81D88AE316D3CE010196E7DDE2DD6B
:104E2000083008F4CBCF8CE893E063D887E59DE0A9
:104E3000DDDDD8DD86E893E05CD86091630D70918C
:104E4000640D8091650D9091660DC5D9CBDD83DF32
:104E50002C960FB6F894DEBF0FBECDBFDF91CF9179
:104E60001F910F910895CF93DF9380E893E041D88D
:104E70008091270D8C3840F08CE793E03AD88091F0
:104E8000270D8A5848D801C046D880E793E031D82A
:104E9000C7E2DDE08E818A5C3ED880E793E029D8C6
:104EA0008C818F5E38D880E793E023D89A8185E1A2
:104EB000891B31D880E793E01CD88B81865A2BD888
:104EC00080E793E016D899818EE5891B24D88F81DD
:104ED000882381F08DE693E00CD880912E0D8330ED
:104EE00029F08E3131F0823029F403C080E3AAD258
:104EF00001C011D88DE693E00E94791F8091300D9A
:104F0000803129F0803231F0811109C006C083E37D
:104F100099D205C084E396D202C085E393D28DE690
:104F200093E00E94791F80912F0D882351F014F493
:104F300087E388D280912F0D86FF05C088E382D257
:104F400002C089E37FD289E793E00E94791FC7E21C
:104F5000DDE08B890E948B1F86E793E00E94791F1A
:104F60006F85788989899A8946D983E793E00E9479
:104F7000791F6B857C858D859E8540E07BD832DDF1
:104F8000DF91CF9108951F93CF93DF93182FEB01FB
:104F90008AE693E00E94791F812F0E948B1F8DE388
:104FA00051D2CE010E946A1F19DDDF91CF911F916E
:104FB00008950F931F93CF938C01C62F8EE342D297
:104FC000C8010E946A1F8AE33DD28C2F4CDDCF912D
:104FD0001F910F910895CF93DF93EC0181E593E04A
:104FE0000E94791FCE010E946A1FFCDC8BE493E0D3
:104FF0000E94791F86E526D28EE424D28DE422D247
:105000008BE220D28CE21ED283E20E948B1F8CE2C4
:1050100019D28FEF0E948B1FE5DCDF91CF910895AD
:105020004F925F926F927F928F929F92AF92BF92B8
:10503000CF92DF92EF92FF920F931F93CF93DF9364
:10504000CDB7DEB7A4970FB6F894DEBF0FBECDBFC5
:105050008CE0E2ECFDE0DE01119601900D928A9564
:10506000E1F7BE016F5F7F4FCE010D960E94853B39
:105070008CE3E8D18091A20D8830D1F040F48130EA
:10508000C1F188F08230D1F1843071F158C08032A2
:1050900031F118F4803189F052C08034A1F18038A8
:1050A00009F449C04CC086E493E00E94791F47C0D0
:1050B00082E493E00E94791F42C08091A40D88236E
:1050C00074F08CE393E00E94791F8091A40D80FF1F
:1050D00003C080E3B7D133C081E3B4D130C088E3EB
:1050E00093E00E94791F2BC083E393E00E94791F15
:1050F00026C08DE293E00E94791F21C087E293E0F1
:105100000E94791F1CC081E293E00E94791F809168
:10511000A40D83FF03C083E395D111C082FF08C0B3
:1051200085FF03C081E38ED10AC080E38BD107C025
:1051300082E388D104C08BE193E00E94791F8091C3
:105140001110282F2170E22E80FF04C08091AE0D37
:10515000811155C04090630D5090640D6090650DB5
:105160007090660D0F2EFBE4CF2EFDE0DF2EF02DAC
:105170008E01075E1F4F5E018DE0A80EB11CF12C61
:10518000F60161917191819191916F012085318535
:10519000428553850E94BE3E4801F80160837183B9
:1051A00082839383F2E0FF120CC0A30192010E945C
:1051B000BE3EF8016083718382839383E1101FC038
:1051C00002C0E11011C0F40120813181428153817C
:1051D000F50160817181828193810E94BD3EF5015C
:1051E0006083718382839383F3940C5F1F4FF4E099
:1051F000AF0EB11C23E0F212C3CFEE2029F084E100
:1052000093E00E94791F04C08DE093E00E94791F13
:10521000CE010D96EBDB8091111081FF0DC088E06F
:1052200093E00E94791F0E94561F0E948B1F8CE200
:1052300009D1EBD00E948B1F0E947C1A009791F03D
:10524000FC01C288D388E488F588C114D104E10444
:10525000F10441F083E093E00E94791FC701B60199
:105260000E9420208EEF92E00E94791F0E94C03A97
:105270000E94FB208CE2E6D06091AF0D7091B00DE2
:105280008091B10D9091B20D40E00E943A200E94B1
:10529000F60F082F0E94E63A182F0E942921F82EB7
:1052A000802F812B8F2941F189EF92E00E94791F95
:1052B000FF2011F080E5C6D0002361F000FF02C09E
:1052C00088E5C0D001FF02C089E5BCD002FF02C062
:1052D0008AE5B8D0112381F010FF02C084E4B2D077
:1052E00011FF02C082E5AED012FF02C088E4AAD04E
:1052F00013FF02C083E5A6D08091AE0D882321F074
:1053000081508093AE0D19C08091A20D8C7721F051
:105310008DE18093AE0D03C089E08093AE0D809146
:10532000AD0D811103C081E08093AD0D83EF92E05C
:105330000E94791FCE01499659DB8091AD0D8823DB
:1053400021F081508093AD0D38C08091A20D8C77F3
:1053500021F083E18093AD0D03C089E08093AD0D12
:105360008EEE92E00E94791F02EA1DE0F80187812B
:105370000E948B1F8CE266D0F80180850E948B1FF3
:105380008CE260D0F80181850E948B1F4DD4082FDC
:105390000E946203182F011114C0811119C00DC0A1
:1053A00083E550D002C083E44DD016FF02C086E4EE
:1053B00049D0112314F48DE445D08EE343D00EDBA5
:1053C0000CC08AEE92E00E94791F013061F7E8CFAD
:1053D0008AEE92E00E94791FE8CFA4960FB6F89467
:1053E000DEBF0FBECDBFDF91CF911F910F91FF9018
:1053F000EF90DF90CF90BF90AF909F908F907F9075
:105400006F905F904F90089508958091920B9091C6
:10541000930B981720F0981B892F80950895815041
:10542000891B0895E0ECF0E0808182608083109217
:10543000C50080E18093C400E1ECF0E080818869E0
:1054400080830895E091910B21E02E0F04C090918C
:10545000B40D94FD0FC09091900B2917C1F3F0E0AB
:10546000EF52F24F80832093910BE1ECF0E08081CA
:105470008062808308951F920F920FB60F921124BD
:105480000BB60F928F939F93EF93FF938091900BA6
:10549000E82FF0E0EF52F24F90819093C6008F5FBB
:1054A0008093900B9091910B891305C0E1ECF0E093
:1054B00080818F7D8083FF91EF919F918F910F90DD
:1054C0000BBE0F900FBE0F901F9018959091920BEE
:1054D0008091930B981749F0E92FF0E0EF52F14FCC
:1054E00080819F5F9093920B08958FEF08951F9294
:1054F0000F920FB60F9211240BB60F922F933F937A
:105500004F935F936F937F938F939F93AF93BF93CB
:10551000EF93FF93E091C600E132A1F018F4E83177
:1055200031F014C0EF3331F0EE3741F00FC00E947C
:10553000B31681C081E00E94043C7DC082E00E94DD
:10554000043C79C088E00E94043C75C0EE230CF056
:1055500064C08E2F90E0FC01E458F109EE31F105B2
:1055600008F069C08827E05FFE4F8F4F0C94A63E7D
:1055700080E20E94043C5FC08091A20D85FF5BC069
:1055800080E40E94043C57C09FB7F8948091CF0DEF
:1055900081608093CF0D9FBF4EC081E00E94663E28
:1055A0004AC082E00E94663E46C084E00E94663E99
:1055B00042C088E00E94663E3EC080E10E94663E96
:1055C0003AC080E20E94663E36C080E40E94663E99
:1055D00032C080E80E94663E2EC081E00E946F3E8D
:1055E0002AC082E00E946F3E26C084E00E946F3E87
:1055F00022C088E00E946F3E1EC080E10E946F3E84
:105600001AC080E20E946F3E16C080E40E946F3E86
:1056100012C080E80E946F3E0EC0A091930B81E003
:105620008A0F9091920B891731F0B0E0AF52B14FD1
:10563000EC938093930BFF91EF91BF91AF919F916A
:105640008F917F916F915F914F913F912F910F902B
:105650000BBE0F900FBE0F901F9018958091930B6B
:105660008093920B08951F93CF93DF93182FEB0134
:10567000A2D921E031E0129FC001139F900D1124A7
:1056800040E051E0BE019D5F0E94D503DF91CF91C4
:105690001F91089540E051E0BC018EEA93E00C9424
:1056A000D50308950F931F93CF93C82F8B0183D9F0
:1056B0002DE0C29FC00111244CE050E0B8019E5F74
:1056C0000E94D503CF911F910F9108956AE080E069
:1056D00090E00E94B60341E650E061ED7FE081E09A
:1056E00090E00C94D50308950F931F93CF93DF930D
:1056F000CDB7DEB72C970FB6F894DEBF0FBECDBF87
:10570000082F80FF0AC081E6EAECF4E0A1EDBFE0DB
:1057100005900D928A95E1F7D9DF01FF10C0FE01D7
:1057200031968CE0DF011D928A95E9F710E0BE0109
:105730006F5F7F4F812FB6DF1F5F1830C1F702FF09
:1057400014C060E080E093E00E94B60360E081E076
:1057500093E00E94B60360E081E094E00E94B6030B
:1057600060E082E094E00E94B60303FF0AC060E0BC
:105770008EEA93E00E94B60360E08FEA93E00E9415
:10578000B6032C960FB6F894DEBF0FBECDBFDF91E7
:10579000CF911F910F9108951F93CF93DF93182FEF
:1057A000EB0181E091E0189FB001199F700D112469
:1057B0007D5F40E051E0CE010E941804892B31F456
:1057C0001882BE01812F4FDF80E001C081E0DF91B0
:1057D000CF911F910895CF93DF93EC0140E051E00A
:1057E0006EEA73E00E941804892B29F41882CE0116
:1057F00051DF80E001C081E0DF91CF9108951F93D8
:10580000CF93DF93182FEB018DE0189FB001112487
:105810007E5F4CE050E0CE010E941804892B51F4C9
:105820008CE0FE0111928A95E9F7BE01812F3ADFE3
:1058300080E001C081E0DF91CF911F91089580E069
:1058400090E00E94AE038A3069F441E650E061E0E6
:1058500070E081ED9FE00E94180421E0892B19F48B
:1058600020E001C020E0822F0895CF92DF92EF92D6
:10587000FF92CF93DF93C82F6A017B0120E030E0D5
:10588000A901C701B6010E94973F88230CF463C1A8
:10589000C43608F473C0ECE9EC0FE330A8F0EA304A
:1058A00008F067C15AC1E33008F05DC0923021F1C1
:1058B00028F4992349F0913099F04AC19330B9F115
:1058C000943009F444C044C1F0E0EE0FFF1FEE0F26
:1058D000FF1FEF52F04FC082D182E282F38238C1C3
:1058E000F0E0EE0FFF1FEE0FFF1FE751F04FC082F9
:1058F000D182E282F3822CC1CE2FD0E0CC0FDD1F0B
:10590000CC0FDD1FCB50D04F20E030E040E752E419
:10591000C701B6010E94D54120E030E040E752E4E3
:105920000E94D541688379838A839B8311C1F0E00B
:10593000EE0FFF1FEE0FFF1FEF5FFF4EF7FAF09421
:10594000F7F8F094C082D182E282F38201C1F0E0E4
:10595000EE0FFF1FEE0FFF1FE352F04FC082D18208
:10596000E282F382F5C09F5FEA3008F4F8C08E1738
:1059700009F4F7C0EA50E21396CFEAC0C701B601B6
:105980000E94A3420E940B408C2F90E0813291052F
:1059900008F0E9C0FC018827E25DFE4F8F4F0C94B0
:1059A000A63E633008F4E1C060930D10D1C060934F
:1059B0001010CEC060930E10FFD4CAC060930F10B9
:1059C000FBD4C6C0662331F0E2E2F0E1808184605E
:1059D0008083BEC0E2E2F0E180818B7F8083B8C02B
:1059E000662331F0E2E2F0E1808180648083B0C020
:1059F000E2E2F0E180818F7B8083AAC0662331F0F0
:105A0000E2E2F0E180818068808305C0E2E2F0E1BB
:105A100080818F77808380E00E940B2199C0609302
:105A2000111096C0C0921210D0921310E092141070
:105A3000F09215108DC0C0921610D0921710E092FF
:105A40001810F092191084C0662331F0E2E2F0E100
:105A500080818160808305C0E2E2F0E180818E7FF9
:105A600080830E94663B74C0662341F080912210BF
:105A700084FF7DC08062809322106AC0E2E2F0E180
:105A800080818F7D808364C0662331F0E2E2F0E1A3
:105A900080818860808305C0E2E2F0E18081877FB9
:105AA00080830E94DF0F54C0662331F0E2E2F0E110
:105AB0008081806180834CC0E2E2F0E180818F7C54
:105AC000808346C06093231043C0C0922410D092BC
:105AD0002510E0922610F09227103AC0C0922810AC
