:1000000095C20000B4C20000B2C20000B0C200003D
:10001000AEC20000ACC20000AAC20000A8C200002C
:10002000A6C200000C948F10A2C200000C942C3BBE
:100030009EC200009CC200009AC2000098C200004C
:1000400096C200000C94173092C2000090C20000CB
:100050008EC200008CC200008AC200000C940E32D6
:1000600086C200000C94E92A0C94AD2A80C20000DC
:100070007EC200007CC200007AC2000078C200008C
:1000800076C2000074C2000072C200000C94752E8B
:100090006EC200006CC200006AC2000068C20000AC
:1000A00066C2000064C2000062C2000060C20000BC
:1000B0005EC200005CC200005AC2000058C20000CC
:1000C00056C2000054C2000052C2000050C20000DC
:1000D0004EC200004CC200004AC2000048C20000EC
:1000E00046C20000A605A605A605A60587052D0F94
:1000F0002D0F2D0F2D0F2D0F7B052D0F2D0F2D0FDC
:100100002D0F2D0F2D0FD005D005D005F105F105D0
:100110002D0F2D0F2D0F2D0F2D0F2D0F7B052D0FBB
:100120007B052D0F2D0F2D0F2D0F2D0F2D0F2D0FAB
:10013000A6052D0F1C062D0F2D0FF7052D0F2D0FCA
:100140002D0F2D0F2D0FF7052D0F2D0F2D0F8705BF
:100150001006100610061006100610062D0F1606C3
:100160002D0F2D0F2D0F2D0F2D0F2D0F2D0F2D0FAF
:100170002D0F2D0F2D0F2D0F2D0F2D0F2D0F2D0F9F
:100180002D0F2D0FAC052D0F2D0F2D0F2D0F2D0F1A
:100190002D0F2D0F2D0F2D0FD605D6057B05EB0549
:1001A000EB05470647064706560656065606470F0E
:1001B0006D066D066D06470F470F470F470F470F38
:1001C000470F470F470F470F470F470F470F470F7F
:1001D000470F470F470F470F470F470F470F470678
:1001E000AD064B0F4B0FB706C406D106DE064B0F0C
:1001F000E2064B0FF0064B0FFA0604070E074B0FF3
:100200004B0F4B0F1E072B073807D525D925DD25AA
:10021000E125E525E925ED25F125F525F925FD253E
:100220002A2B2E2B362B8D2B8D2B8D2B8D2B8D2B27
:100230008D2B8D2B8D2B8D2B3F2B432B472B4B2B1E
:100240004F2B532B572B5B2B8D2B5F2B632B672B4C
:100250006B2B6F2B732B8D2B772B7B2B432D492DEA
:100260004C2D502D542D622D702D252E252E252EF2
:10027000812D842D8D2D962D252E252E252E252E56
:10028000252E252EA62DB62DC62DD42DD72DE02D0D
:10029000E92DF02D252E252EF92D032E0D2E084AA1
:1002A000D73B3BCE016E84BCBFFDC12F3D6C74318A
:1002B0009ABD56833DDA3D00C77F11BED9E4BB4CE1
:1002C0003E916BAAAABE000000803F05A84CCDB2AB
:1002D000D44EB93836A9020C50B9918688083CA68C
:1002E000AAAA2ABE000000803F007C413A007C4F51
:1002F000763A007C57434F3A007C506E3A007C4679
:10030000533A007C4C6E3A007C42663A007C57506F
:100310006F733A007C4D506F733A00536C65657093
:1003200000446F6F723A00436865636B00416C6113
:10033000726D00486F6D65004A6F6700486F6C64AE
:100340003A0052756E0049646C65005B4F50543A38
:10035000005B5645523A312E31672E3230313830FB
:100360003831332E4D6567613A00244E00204D0030
:1003700020470020530020460020540033382E0030
:100380005B47433A47005B544C4F3A005B47393276
:100390003A003330003238005B47005B5052423A3B
:1003A000005B484C503A2424202423202447202456
:1003B0004920244E2024783D76616C20244E783DDF
:1003C0006C696E6520244A3D6C696E652024534C2F
:1003D00050202443202458202448207E2021203FE0
:1003E000206374726C2D785D0D0A000D0A477262ED
:1003F0006C20312E3167286261636B6C61736820F9
:10040000636F6D7029205B27242720666F72206838
:10041000656C705D0D0A00536C656570696E6700F0
:10042000526573746F72696E67207370696E646C65
:100430006500526573746F72696E672064656661EA
:10044000756C74730050676D20456E640043686579
:10045000636B204C696D69747300436865636B203E
:10046000446F6F720044697361626C656400456E2D
:1004700061626C65640043617574696F6E3A205502
:100480006E6C6F636B656400272448277C272458B3
:100490002720746F20756E6C6F636B0052657365F7
:1004A0007420746F20636F6E74696E7565005B4DA8
:1004B00053473A00414C41524D3A000D0A006572D3
:1004C000726F723A006F6B0D0A0000007A430000F1
:1004D0007A4300007A4300000000000000000000A2
:1004E00000000000FA430000FA430000FA4300A0B5
:1004F0000C4700A00C4700A00C47000048C30000B8
:1005000048C3000048C30A000019010AD7233C6F02
:1005100012033B00007A440000000000000000C805
:10052000410000FA43FA000000803F0011241FBE82
:10053000CFEFD1E2DEBFCDBF00E00CBF12E0A0E004
:10054000B2E0E6E0F6E800E00BBF02C007900D92D3
:10055000A832B107D9F72FE0A8E2B2E001C01D929E
:10056000A138B207E1F70E94FD120C94014348CD77
:1005700083E0E6E6FCE0DF011D928A95E9F78CE076
:10058000E9E6FCE0DF011D928A95E9F708952F92D4
:100590003F924F925F926F927F928F929F92AF9213
:1005A000BF92CF92DF92EF92FF920F931F93CF9360
:1005B000DF93CDB7DEB7A1970FB6F894DEBF0FBEBD
:1005C000CDBFC82ED92E78A36F8FFB01848581FF04
:1005D0000CC08CE0E0E1FDE0E12CF12CAE2DBF2D54
:1005E00001900D928A95E1F704C00E94B51AE82E99
:1005F000F92E80E092E00E94DC1F05E61CE0CB8E25
:10060000DC8E0F2EFFE12F2EFFE03F2EF02D8E2CE3
:100610009F2C5801412C512C320119A21E8F0D8F95
:10062000F8011482158216821782EB8DFC8D619180
:10063000719181919191FC8FEB8FF1012191319119
:10064000419151911F010E9407420E94D741F4013C
:10065000C190D190E190F1904F01DC01CB018C1958
:100660009D09AE09BF09181619061A061B060CF4D7
:1006700072C06C017D01FF0CCC08DC2C7601F50109
:1006800081818823B1F1C114D104E104F10489F11D
:1006900005C0CC24C394D12CE12CF12C082E000CE5
:1006A000990BAA0BBB0BC816D906EA06FB0609F183
:1006B00084E192E00E94DC1FC301B2010E949220FB
:1006C0008AE192E00E94DC1FC701B6010E946B40E4
:1006D0009B01AC01F10160857185828593850E9443
:1006E0000742ED8DFE8D6483758386839783F1E0E9
:1006F000F9A30C5F1F4F8FEFA81AB80AEFEF4E1A3D
:100700005E0A6E0A7E0AF3E04F165104610471041A
:1007100009F084CF89A1882319F18CE0E9E6FCE097
:10072000DE011F9601900D928A95E1F78EE0EF8D24
:10073000F8A1DE01119601900D928A95E1F781E012
:1007400091E09E878D87BE016F5F7F4FCE010F9630
:100750000E94581305C0F5018181882351F299CF79
:10076000A1960FB6F894DEBF0FBECDBFDF91CF913B
:100770001F910F91FF90EF90DF90CF90BF90AF90BF
:100780009F908F907F906F905F904F903F902F90B1
:1007900008958091020185FF02C080E401C080E0DD
:1007A0009091020196FD80680895E2E0F1E0808179
:1007B0008F7D808380818F7B80830895E1E0F1E0ED
:1007C000808180628083808180648083EECF089501
:1007D0009091F10C91111CC086FF06C0E2E0F1E09F
:1007E00090819062908305C0E2E0F1E090819F7D6E
:1007F0009083882334F4E2E0F1E080818064808398
:1008000005C0E2E0F1E080818F7B80831092FB0CD9
:100810000895CF939091F00C923029F0C82F0E9448
:100820004D258C2FD5DFCF910895F999FECF92BD3C
:1008300081BD81E08FBB80B50895F894F999FECF12
:1008400092BD81BD81E08FBB80B58627962F98230E
:1008500059F06F3F29F060BD84E08FBBF99A0AC060
:1008600084E18FBBF99A06C0882321F060BD84E241
:100870008FBBF99A789408958F929F92AF92BF920E
:10088000CF92DF92EF92FF920F931F93CF93DF935C
:100890007C018B016A014115510501F15A01C0E04B
:1008A000D1E001C0C401C11108C06C2FCC0F770B7F
:1008B000C72FCC1FCC27CC1F01C0CD2FF8016191D1
:1008C0008F01C60F4C01FFEF8F1A9F0AB6DF21E0A0
:1008D000A21AB10839F7EC0CFD1C01C0C0E06C2F66
:1008E000C701ABDFDF91CF911F910F91FF90EF9088
:1008F000DF90CF90BF90AF909F908F9008958F9290
:100900009F92AF92BF92CF92DF92EF92FF920F939E
:100910001F93CF93DF937B016A014115510509F1C4
:10092000C82FD92F5A01CB01912C882483948C0194
:100930000F5F1F4F7ADF911008C0292D990C330BE0
:10094000232F221F2227221F01C0282D982E920E0E
:10095000899381E0A81AB108C80149F7EC0CFD1C85
:1009600001C0912CC70161DF21E030E0891511F051
:1009700020E030E0C901DF91CF911F910F91FF90EE
:10098000EF90DF90CF90BF90AF909F908F900895A1
:1009900080E4E5E7FCE0DF011D928A95E9F769E96B
:1009A0007CE080E00E94712C811103C087E00C94F0
:1009B000A525089560E17DE08DE89CE00C94B73BAF
:1009C00008952F923F924F925F926F927F928F92F3
:1009D0009F92AF92BF92CF92DF92EF92FF920F93CE
:1009E0001F93CF93DF93CDB7DEB7E2970FB6F8949E
:1009F000DEBF0FBECDBF8C018AE3E5EBFCE0DF017B
:100A00001D928A95E9F78BE0E5E7FCE0A6EBBCE0F8
:100A100001900D928A95E1F7F8018081843211F0FE
:100A20000C94970FE5EBFCE081E08183128283E078
:100A30008983F1E0FDA3212C312CE12CF12C1CA2A7
:100A40001AA21BA2CC24C394D12C0F2EF1E68F2E18
:100A5000F3E09F2EF02D19A308A337C29FEB910F4F
:100A60009A3110F00C94290F8F5F8983AE014E5F8D
:100A70005F4FBE016F5F7F4F88A199A10E9443170E
:100A8000882311F40C942B0F4A805B806C807D804E
:100A9000C301B2010E94D5420E943D40A62E70E0E3
:100AA00080E090E00E946B409B01AC01C301B20169
:100AB0000E94EF3E20E030E048EC52E40E94074202
:100AC0000E946A420E943D40862F972F9C01173456
:100AD00021F01D3409F4C9C030C18A2D90E08F3552
:100AE000910510F00C942D0FFC018827EE58FF4F54
:100AF0008F4F0C94D83E2115310511F00C949B0FAB
:100B00004BA1442311F40C94A30F0C942F0FA5EBCD
:100B1000BCE0AC92BCE1AB1631F0EEE1AE1619F0E0
:100B2000FCE5AF128BC02115310551F02A3031059B
:100B300039F00C94310F21E02BA302C031E03BA32C
:100B40006A0DA5EBBCE06C9380E07FC0BBA1B11146
:100B50000C94330FE2E0EBA3A092B60CF6E2AF12D6
:100B60006FC02431310559F02E31310541F0283262
:100B7000310529F02233310511F00C94350F262F61
:100B8000372FADECBCEC0E94E03E9695879596958C
:100B900087959695879586578093B60C81E055C0CA
:100BA0006FEE6A0D6093BA0C82E04BC021153105DF
:100BB00031F466EA6A0D6093B90C83E046C02A30CE
:100BC000310511F00C94370F2AE5A21611F40C949C
:100BD000390F84E03AC08EE58A198093B70C85E01E
:100BE00030C085E18A198093B80C86E02AC04BA1F9
:100BF00041110C943B0F81E3A81206C01092BB0C6C
:100C000088E093E09BA321C02A30310511F00C94B9
:100C10003D0FA1E0A093BB0C88E0B3E0BBA315C0DF
:100C20006AEC6A0D6093BC0C89E00BC0232B11F0B9
:100C30000C943F0F8AE009C087E003C080E001C048
:100C400081E0232B11F00C94410FF60102C0EE0F4E
:100C5000FF1F8A95E2F797012E233F23232B11F0E4
:100C60000C94430FEE2AFF2A30C1232B11F00C9471
:100C7000450F8A2D90E08F31910510F00C94470FAD
:100C8000FC018827EF52FF4F8F4F0C94D83EAA20CB
:100C900021F0F1E0AF16E1F105C023E02093BD0C97
:100CA0008BE03BC0A092BD0C8BE037C034E0A316B4
:100CB00059F045E0A41669F083E0A8122BC080E14A
:100CC0008093BF0C8CE029C080E28093BF0C8CE045
:100CD00024C01092BF0C8CE020C098E0A91669F0E7
:100CE000A9E0AA1689F0B7E0AB1216C08091BE0C3D
:100CF00080688093BE0C8DE010C08091BE0C806433
:100D00008093BE0C8DE009C01092BE0C8DE005C032
:100D10008BE003C08CE001C08DE0F60102C0EE0F55
:100D2000FF1F8A95E2F797012E233F23232B11F013
:100D30000C94490FEE2AFF2AC8C0812F90E0FC01D5
:100D4000E654F109E531F10510F00C944B0F8827BA
:100D5000E051FF4F8F4F0C94D83E4092C10C5092FF
:100D6000C20C6092C30C7092C40C80E08DC04092A3
:100D7000C50C5092C60C6092C70C7092C80CFCA1B6
:100D8000F160FCA381E080C04092C90C5092CA0C73
:100D90006092CB0C7092CC0C2CA122602CA382E030
:100DA00073C04092CD0C5092CE0C6092CF0C7092DA
:100DB000D00C3CA134603CA383E066C0A092D10C6F
:100DC00084E062C0C301B2010E9438406093D20C3B
:100DD0007093D30C8093D40C9093D50C85E054C0C1
:100DE0004092D60C5092D70C6092D80C7092D90CCD
:100DF00086E04AC04092DA0C5092DB0C6092DC0C28
:100E00007092DD0C87E040C04092DE0C5092DF0C07
:100E10006092E00C7092E10C88E036C020E030E097
:100E20004FE753E4C301B2010E94CC41181614F4F9
:100E30000C944D0FA092E20C89E026C04092E30C86
:100E40005092E40C6092E50C7092E60C4AA141606D
:100E50004AA38AE019C04092E70C5092E80C6092D5
:100E6000E90C7092EA0C8AA182608AA38BE00CC024
:100E70004092EB0C5092EC0C6092ED0C7092EE0CE8
:100E80009AA194609AA38CE05601082E02C0AA0C85
:100E9000BB1C0A94E2F791012A213B21232B09F084
:100EA000FEC7D40102C0B595A7958A95E2F7A0FFC9
:100EB0000AC020E030E0A901C301B2010E94C93F8D
:100EC00088230CF4EEC72A283B288981E8A1F9A1E0
:100ED000E80FF11D10811111C1CDBAA1BB2329F07A
:100EE000EBA1E11102C0F2E0FBA325FE0EC0809150
:100EF000D20C9091D30CA091D40CB091D50C813828
:100F00009649A849B1050CF0CEC73DA13323E1F0C5
:100F100020FECBC78091B80C813009F054C005EB9E
:100F20001CE023E333E34BEC51E4D8011C966D91B4
:100F30007D918D919C911F970E940742F8016487D3
:100F40007587868797873FC08091B70C813061F4A1
:100F5000FBA1F230C1F58091B60C8035A1F1882358
:100F600091F120FEA4C72FC08091760C81112BC077
:100F700020FE19C08091B80C813029F505EB1CE0EA
:100F800023E333E34BEC51E4D8011C966D917D9142
:100F90008D919C911F970E940742F8016487758785
:100FA0008687978710C08091840C9091850CA091C2
:100FB000860CB091870C8093C10C9093C20CA093C7
:100FC000C30CB093C40C30FC10C08091800C909185
:100FD000810CA091820CB091830C8093DE0C9093D5
:100FE000DF0CA093E00CB093E10C8091B50C843041
:100FF00021F426FE5EC7E89426F88091BA0C882377
:1010000049F0813009F4A7C718AAF2E0FFA321E054
:101010002EA3A6C78091B80C8130A1F532E038AB81
:1010200041E04FA31EA20F2EF5EBAF2EFCE0BF2E2A
:10103000F02D00E010E08AA1C82ED12CC601002EB0
:1010400002C0959587950A94E2F780FF12C023E3CA
:1010500033E34BEC51E4D5019E966D917D918D91DA
:101060009C91D1970E940742F50166A777A780ABB4
:1010700091AB0F5F1F4FF4E0AF0EB11C03301105B1
:10108000E9F605C022E028AB31E03FA31EA24BA148
:10109000433041F48091BB0C813021F48AA184302B
:1010A00009F009C78CE0E9E9FCE0DE011696019041
:1010B0000D928A95E1F7F1FE11C08091BC0C87304A
:1010C00008F0FBC690917B0C891741F0BE016A5F66
:1010D0007F4F0E94712C882309F4F1C6B090B50CA3
:1010E0009AE0B91629F0ACE5BA1609F49AC00EC117
:1010F000BAA1BB2309F4E5C6C10180759927892BE4
:1011000009F4E1C66091D60C7091D70C8091D80C8F
:101110009091D90C0E94D5420E943D40673008F062
:10112000D4C68091D10C843129F0823009F0CFC629
:1011300027FCCFC6EFEA2E22662319F0615068A380
:1011400003C0F091BC0CF8A365EC7CE088A10E9480
:10115000712C882309F4BFC62091D10C28A7409098
:10116000B10C5090B20C6090B30C7090B40C05EBC5
:101170001CE00F2EF5E7CF2EFCE0DF2EF02DA12C8A
:10118000B12C3AA1832E912CC4010A2C02C0959552
:1011900087950A94E2F780FF36C048A5443151F59F
:1011A000D601D0962D913D914D915C91D397589653
:1011B0006D917D918D919C915B970E94EF3EF8011E
:1011C00026A537A540A951A90E94EF3ED801509607
:1011D0006D937D938D939C935397B2E0AB1213C0A4
:1011E000A30192010E94EF3EF801608B718B828B0C
:1011F000938B09C0F80186A597A5A0A9B1A9808BFA
:10120000918BA28BB38BFFEFAF1ABF0A0C5F1F4FFE
:1012100024E0C20ED11C33E0A316B10409F0B4CF10
:10122000B1C64AA1442309F458C60F2EF5E7AF2EE4
:10123000FCE0BF2EF02D4E0186E0880E911C05EBE0
:101240001CE0C12CD12C642E712CC3010C2C02C0CB
:10125000959587950A94E2F780FF3CC0D4012D91C3
:101260003D914D915C91F501608D718D828D938DD5
:101270000E94EF3ED8019E962D913D914D915C913B
:10128000D1970E94EF3EF80166A777A780AB91AB9C
:10129000F2E0CF1229C08601000F111F000F111FAD
:1012A0000B54134F2091B10C3091B20C4091B30C00
:1012B0005091B40C0E94EF3ED8019E966D937D93A1
:1012C0008D939C93D1971091B60C103509F407C6F5
:1012D00018A2F8C0F50180A991A9A2A9B3A9F801A3
:1012E00086A797A7A0ABB1ABFFEFCF1ADF0A24E028
:1012F000A20EB11C34E0830E911C0C5F1F4F43E023
:10130000C416D10409F0A1CF18A23CC68BA183302A
:1013100009F490C09AA1992309F48CC0A090B90C4B
:101320000F2EF5E7CF2EFCE0DF2EF02D05EB1CE0B5
:101330003E01A6E06A0E711C812C912C492E512C85
:1013400099A288A2C201082C02C0959587950A949B
:10135000E2F780FD0BC0F601808D918DA28DB38DDB
:10136000F80186A797A7A0ABB1AB54C0F5E3BF16B1
:1013700009F450C0A1103BC0D601D0962D913D91EB
:101380004D915C91D397F30160817181828193814A
:101390000E94F03ED8019E962D913D914D915C9119
:1013A000D1970E94F03E9B01AC01F80166A777A798
:1013B00080AB91ABF2E08F122DC008A119A1000FF4
:1013C000111F000F111F0B54134F6091B10C70913E
:1013D000B20C8091B30C9091B40C0E94F03ED801F5
:1013E0009E966D937D938D939C93D19723C0F60128
:1013F000208D318D428D538DD8019E966D917D91BA
:101400008D919C91D1970E94F03EF80166A777A735
:1014100080AB91ABFFEF8F1A9F0A24E0C20ED11C64
:101420000C5F1F4F34E0630E711C43E0841691047F
:1014300009F086CF8EE1B81631F095E3B91699F12F
:10144000ACE1BA1235C0BCE1BB1209C065EC7CE06E
:1014500086E00E94712C882309F443C587C565EC9A
:101460007CE087E00E94712C882309F43CC57EC58E
:10147000A901082E02C0559547950A94E2F740FD50
:101480000AC058964D915D916D917C915B97408B10
:10149000518B628B738B0196149634968330910531
:1014A00039F718A26FC58091B60C823008F01DC5BF
:1014B0001091B60C103529F4EAA1E11118C518A253
:1014C00046C218A2FBA1F23009F041C2111105C0B9
:1014D0002AA121113CC21BA23AC220E030E0A9019E
:1014E0006091C10C7091C20C8091C30C9091C40C9E
:1014F0000E94C93F882309F4FCC41C3809F40FC2B8
:1015000040F41230A1F01330A9F0113009F01FC2DD
:1015100009C01E3809F403C208F4FEC11F3809F4DB
:10152000FBC115C23AA1311112C21BA210C24DA1BA
:1015300044604DA38AA1882309F4DDC4BEA1AB2F6A
:10154000B0E0BAABA9ABEFA1CE2ED12C81E090E0F8
:101550008C010EA002C0000F111F0A94E2F702C016
:10156000880F991FEA95E2F7082B192BFAA18F2F04
:1015700090E080239123892B09F4BFC4FD01EE0F75
:10158000FF1FEE0FFF1FEB54F34FAA0FBB1FAA0F55
:10159000BB1FA357B34F2D913D914D915C9166A513
:1015A00077A580A991A90E94EF3E68A779A78AA78D
:1015B0009BA7F601EE0FFF1FEE0FFF1FEB54F34F3B
:1015C000D601AA0FBB1FAA0FBB1FA357B34F2D9164
:1015D0003D914D915C9166A577A580A991A90E9446
:1015E000EF3E6CA77DA78EA79FA727FEEAC0E894D1
:1015F00027F84CE050E063EE7CE08DE89CE00E9430
:10160000F442892B09F47BC48091B80C8130A1F499
:1016100005EB1CE023E333E34BEC51E4D801959652
:101620006D917D918D919C9198970E940742F80150
:1016300065A376A387A390A78090DA0C9090DB0C2B
:10164000A090DC0CB090DD0C20E030E040E850E4ED
:10165000C501B4010E940742A50194010E940742FE
:101660004B015C0128A539A54AA55BA5CA01B901B2
:101670000E9407429B01AC01C501B4010E94EF3EEC
:101680004B015C012CA53DA54EA55FA5CA01B90182
:101690000E9407429B01AC01C501B4010E94EF3ECC
:1016A0004B015C0120E030E0A9010E94C93F882382
:1016B0000CF427C4C501B4010E9494424B015C01A3
:1016C0002CA53DA54EA55FA568A579A58AA59BA5D6
:1016D0000E9451189B01AC01C501B40190580E94B1
:1016E000D03F4B015C018091B60C833021F4B7FAF6
:1016F000B094B7F8B0944090DA0C5090DB0C609046
:10170000DC0C7090DD0C20E030E0A901C301B201D7
:101710000E94C93F882384F4B7FAB094B7F8B09414
:1017200077FA709477F870944092DA0C5092DB0C50
:101730006092DC0C7092DD0C09A91AA9000F111F30
:10174000000F111F0B53134F2CA53DA54EA55FA5F0
:10175000C501B4010E9407429B01AC0168A579A5AF
:101760008AA59BA50E94EF3E20E030E040E05FE3C9
:101770000E940742D8016D937D938D939C9313979C
:101780008601000F111F000F111F0B53134F28A5C7
:1017900039A54AA55BA5C501B4010E9407422CA545
:1017A0003DA54EA55FA50E94F03E20E030E040E060
:1017B0005FE30E940742F801608371838283938311
:1017C000C6C0FCA18F2E912C08211921012B09F4F0
:1017D0009AC321EF22228091B80C813041F505EBAC
:1017E0001CE0A12CB12CC4010A2C02C09595879550
:1017F0000A94E2F780FF12C023E333E34BEC51E499
:10180000D80150966D917D918D919C9153970E9436
:101810000742F801608B718B828B938BFFEFAF1ABD
:10182000BF0A0C5F1F4F23E0A216B104E1F6C60108
:10183000880F991F880F991FDC01AB53B34F6D01BF
:101840002D913D914D915C916CA57DA58EA59FA597
:101850000E94EF3E4B015C0109A91AA9000F111F5C
:10186000000F111F0B53134FF8012081318142816A
:10187000538168A579A58AA59BA50E94EF3EA50185
:1018800094010E9451184B015C01D6012D913D91AC
:101890004D915C91F80160817181828193810E94F8
:1018A00051182B013C016093DA0C7093DB0C809390
:1018B000DC0C9093DD0C9B01AC01C501B4010E94CE
:1018C000EF3E4B015C01E894B7F82AE037ED43EABC
:1018D0005BE3C501B4010E94CC411816C4F520E0B9
:1018E00030E040E05FE3C501B4010E94CC4118162E
:1018F0000CF40BC32FE632E143E85AE3C301B20113
:101900000E9407429B01AC01C501B4010E94CC4179
:1019100018160CF4FCC21BC0FDA1F061FDA31E58FB
:10192000123018F42DA128602DA33AA1332309F415
:10193000F0C24CE050E063EE7CE08DE89CE00E9459
:10194000F442892B09F4E7C202C018A21BA24DA1E0
:101950004170D42E8DA180FF03C0C1018E7D03C0D4
:10196000C1018E7D9C7FABA1A111937E892B09F0D3
:10197000D4C2FE0172968EE0DF011D928A95E9F7CE
:10198000DD2061F1B6EBEB22EF2809F0C8C28091AF
:10199000B50C853311F08111C4C2E5E7FCE0838505
:1019A0009485A585B6858E8B9F8BA88FB98F9185E1
:1019B0008085892B90E09F8F8E8F65EB7CE0CE0138
:1019C000429616D38111FBC29CE0E3EEFCE0ADE849
:1019D000BCE001900D929A95E1F7F1C28091700FF1
:1019E00081FF26C08091B60C8150833018F0EDA1A4
:1019F000E064EDA3FAA1FF2339F02BA1223021F4FA
:101A00003DA130683DA314C080917E0C803181F4EB
:101A10008091750C8150833030F44DA146FF08C091
:101A200040624DA305C08DA186FD02C080628DA3DA
:101A3000A5EBBCE05D964D915D916D917C91909789
:101A4000E5E7FCE0448B558B668B778B4A8F5B8F89
:101A50006C8F7D8F12968C918183882321F088E092
:101A600090E09F8F8E8FA5EBBCE01C964D915D9111
:101A70006D917C911F97E5E7FCE04787508B618B68
:101A8000728B4A8B5B8B6C8B7D8B99968D909D9026
:101A9000AD90BC909C97A501940163857485858564
:101AA00096850E94C93F811103C09DA195FF23C067
:101AB00080917E0C882379F0ADA1AA2364F0A6FF63
:101AC00006C040E050E0BA010E94B92F04C0B50141
:101AD000A4010E94B92F8091DE0C9091DF0CA0919F
:101AE000E00CB091E10C8093800C9093810CA0935A
:101AF000820CB093830CBDA1B6FD0CC08091800C0C
:101B00009091810CA091820CB091830C8E8B9F8B55
:101B1000A88FB98FE5E7FCE0A5EBBCE09D968C9122
:101B20009D97838B1A968C919185981751F04E89C9
:101B30005F89688D798D0E94B92F8091BF0C809349
:101B40007E0CE5E7FCE021858E8D9F8D822B9F8F9B
:101B50008E8F8091BE0C9085981731F00E940904F9
:101B60008091BE0C80937D0C20917D0C8E8D9F8D7D
:101B7000822B9F8F8E8F8091B50C843051F46091B1
:101B8000D60C7091D70C8091D80C9091D90C0E94F2
:101B90008316E5E7FCE0A5EBBCE015968C91159764
:101BA000848313968C918283EBA1E33071F580914D
:101BB000BB0C80937A0C811108C01092EB0C109230
:101BC000EC0C1092ED0C1092EE0C8090EB0C9090BF
:101BD000EC0CA090ED0CB090EE0CA501940160917E
:101BE000B10C7091B20C8091B30C9091B40C0E9426
:101BF000C93F882351F08092B10C9092B20CA09210
:101C0000B30CB092B40C0E94983B8091BC0C9091A4
:101C10007B0C981769F080937B0C8CE0FE01369664
:101C2000A9E9BCE001900D928A95E1F70E94983BEA
:101C3000E5EBFCE084818093780C8081863209F4A6
:101C400046C038F48C3129F18E3119F18A3059F0BF
:101C50005FC08C3509F447C0863609F450C088321D
:101C600009F056C03AC065EC7CE088A10E94C42B04
:101C700080917B0CF8A18F134BC08CE0E5ECFCE06D
:101C8000A9E9BCE001900D928A95E1F70E94983B8A
:101C90003FC08E8D9F8D81609F8F8E8F2BA12223C1
:101CA00031F0BE016E5E7F4F83EE9CE001D5BE0138
:101CB0006E5E7F4F85EC9CE0FBD48CE0E5ECFCE0B5
:101CC000ADE8BCE001900D928A95E1F721C06DE886
:101CD0007CE086E00E94C42B1BC06DE87CE087E0BE
:101CE0000E94C42B15C08CE0E3EEFCE0A5EABCE04A
:101CF00001900D928A95E1F70E94983B09C08CE013
:101D0000E5EAFCE0DF011D928A95E9F70E94983B25
:101D10008091B60C8093750C803509F456C0BBA138
:101D2000B23009F052C0813039F4BE016E5E7F4F8F
:101D300083EE9CE0BDD43BC081110CC08E8D9F8D85
:101D400081609F8F8E8FBE016E5E7F4F83EE9CE021
:101D5000AFD42DC082508230E0F4E090DA0CF090E5
:101D6000DB0C0091DC0C1091DD0CEDA1E2FB88276F
:101D700080F98F9388A8AFA0CEA025EC3CE04DE879
:101D80005CE0BE016E5E7F4F83EE9CE0D9D40F9085
:101D90000EC08E8D9F8D84609F8F8E8F4DA1BE0152
:101DA0006E5E7F4F83EE9CE0D4D781110AC08CE039
:101DB000E3EEFCE0ADE8BCE001900D928A95E1F71E
:101DC00004C0813011F40E94DA048091BD0C80932C
:101DD0007C0C882309F4F3C00E944D2580917C0C73
:101DE000833051F48091F00C823079F188E00E94C8
:101DF000363C0E94832329C0E5E7FCE081E0808334
:101E0000148213821182168211861086E0EFFCE0A4
:101E100084E68783808781878081823099F069E9B1
:101E20007CE080E00E94712C882309F47CC00E9431
:101E3000983B40E050E0BA0180E00E948F2F80E0A4
:101E40000E94E80388E00E94C32510927C0C8D2D2F
:101E5000B6C081E0B4C082E0B2C084E1B0C088E125
:101E6000AEC084E1ACC088E1AAC084E1A8C084E12E
:101E7000A6C084E1A4C088E1A2C084E1A0C084E13E
:101E80009EC087E19CC085E19AC087E198C084E14B
:101E900096C085E194C084E192C086E290C089E159
:101EA0008EC084E08CC08BE18AC086E188C086E168
:101EB00086C08CE184C085E282C08DE180C087E06D
:101EC0007EC08AE17CC08CE17AC08DE178C084E17B
:101ED00076C084E174C087E072C08AE170C08FE18F
:101EE0006EC087E06CC087E06AC08EE168C08FE199
:101EF00066C086E164C08AE162C080E260C081E2BF
:101F00005EC082E25CC083E25AC081E258C081E2D6
:101F100056C08AE154C081E252C084E250C080E1E0
:101F20004EC080E14CC087E04AC08FE148C01982B2
:101F30001DA20C941B05A5EBBCE0AC92BCE1AB125E
:101F400027C00C949605E5EBFCE0A082FCE1AF1203
:101F500025C00C949B0521E028AB1FA232E03EA3D4
:101F60008091B80C813009F092C85DC84AA1442321
:101F7000F1F0A5E7BCE0E5EBFCE080E090E0242F89
:101F800030E076CA1091B60C103509F09BCACDCF5F
:101F90008EE1A8120C9490050C9496059EE1A9166A
:101FA00011F40C949E05A1E0ABA30C949005109144
:101FB000B60C103509F4C9CC18A21BA283CAE2964C
:101FC0000FB6F894DEBF0FBECDBFDF91CF911F914A
:101FD0000F91FF90EF90DF90CF90BF90AF909F90C8
:101FE0008F907F906F905F904F903F902F900895CB
:101FF0000F931F93CF93DF93EC018B01FB0184853B
:102000009585A685B78588839983AA83BB838C85AC
:102010009D8584609D878C87858D968DA78DB0A1C9
:1020200088879987AA87BB878091700F85FF06C034
:10203000CB018E960E94D13B811114C0BE01C80114
:102040008E9636D3C091F00CC1110EC00E94E81AD2
:10205000892B59F080E28093F00C0E94D5320E94C7
:10206000D12F03C0CFE001C0C0E08C2FDF91CF9112
:102070001F910F910895EBE6F0E080818F788083C7
:10208000E8E6F0E080818E7F8083089584B18F78C8
:1020900084B985B1806785B98091700F83FF0BC0CB
:1020A000EBE6F0E0808180678083E8E6F0E0808105
:1020B000816080830895DFCF0895EF92FF920F93A0
:1020C0001F93CF93DF9313B110778091700F86FD2C
:1020D0001BC080E7182718C0C0E0D0E000E0EE2465
:1020E000E394F12C8C2F0E94592E812341F0C701DB
:1020F0000C2E02C0880F991F0A94E2F7082B219634
:10210000C330D10579F703C01111E6CF00E0802F6D
:10211000DF91CF911F910F91FF90EF9008951F9243
:102120000F920FB60F9211240BB60F922F933F937D
:102130004F935F936F937F938F939F93AF93BF93CF
:10214000EF93FF938091F00C813041F080911C0D52
:10215000811104C074D681E00E948C3EFF91EF9102
:10216000BF91AF919F918F917F916F915F914F91AF
:102170003F912F910F900BBE0F900FBE0F901F90AD
:1021800018952F923F924F925F926F927F928F920B
:102190009F92AF92BF92CF92DF92EF92FF920F93F6
:1021A0001F93CF93DF93CDB7DEB7AA970FB6F894FE
:1021B000DEBF0FBECDBF9091F10C9111E3C188A796
:1021C000FE0131968EE0DF011D928A95E9F786E0E7
:1021D00090E09E878D87EFE1FFE0FDA3ECA37F01F8
:1021E0009E01215F3F4F590100E010E0412C512C2E
:1021F000320138A5C32ED12C802F0E94452ED50147
:102200008D935D01DF8ECE8EC601002E02C09595A6
:1022100087950A94E2F780FF19C020E030E040EC97
:102220005FEBF70160A971A982A993A90E940742F7
:10223000862E972E282E392EA30192010E94C93F87
:10224000882324F0482C592C622C732C0F5F1F4FCD
:10225000F4E0EF0EF11C0330110571F62E8C3F8C6B
:102260008091760F9091770FA091780FB091790FB0
:1022700088A399A3AAA3BBA394E09E8F01E00F2E8D
:10228000F0EFCF2EFCE0DF2EF02D60E17DE0CE01FF
:1022900042960E94B73BA1E7BFE0EC90F12CAE0163
:1022A0004E5E5F4FE0E1FDE0FFA3EEA3DE011F966F
:1022B00080E090E060E010E053014201B7FAB09492
:1022C000B7F8B094BAA7A9A79101082E02C0359516
:1022D00027950A94E2F720FF31C06F5F10821182C8
:1022E000128213829701082E02C0359527950A9411
:1022F000E2F720FF10C0002339F0DA018D929D92A1
:10230000AD92BC92139716C0DA014D925D926D9218
:102310007C9213970FC0002339F0DA014D925D9241
:102320006D927C92139706C0DA018D929D92AD92C8
:10233000BC921397A9A5BAA52C91122B019629A599
:102340003AA52F5F3F4F3AA729A74C5F5F4F3496BE
:102350008330910509F0B8CF462E512C612C712C99
:10236000C301B2010E9469400E9494429B01AC01EA
:10237000D60116961C9368A179A18AA19BA10E94FF
:10238000074269837A838B839C83BE016F5F7F4F93
:10239000CE0142960E944F1C24E0F60124830E9445
:1023A000D5320E94D12F0023F1F087DEFE013F9647
:1023B00020E030E0682F70E08191982F912359F050
:1023C000AB01022E02C0559547950A94E2F740FFF3
:1023D00002C0809518232F5F3F4F2330310561F7EE
:1023E000D60116961C930E94D5328091020D8473FB
:1023F00029F11091020D14FF03C086E00E948C3E6B
:1024000015FF03C087E00E948C3E0111B8C055DE65
:10241000B8A58B2339F088E00E948C3E03C089E088
:102420000E948C3E80911C0D882321F008D50E94CB
:102430008323A8C084E00E94823E04C0812F8C7157
:1024400009F0B1CF0E946232EAE7FFE0808191811A
:102450001DD6F1E00F27D1F020E030E040EA50E453
:10246000ACE7BFE06D917D918D919C910E940742F8
:102470002B013C01A2E7BFE08D919D910D90BC9195
:10248000A02D88A399A3AAA3BBA311C0ECE7FFE0EA
:102490004080518062807380A6E7BFE08D919D915E
:1024A0000D90BC91A02D88A399A3AAA3BBA3BE8D18
:1024B000B150BE8FB111E9CEE090710FF12C809038
:1024C0007C0F90907D0FA0907E0FB0907F0F240125
:1024D000350177FA709477F8709400E010E0CEA0A0
:1024E000DFA0C101002E02C0959587950A94E2F7FE
:1024F00080FF34C0C701002E02C0959587950A94CD
:10250000E2F780FF15C0ECA1FDA120A931A942A9E5
:1025100053A9C501B4010E94F03EACA1BDA12D910B
:102520003D914D915C910E9407420E94D7410CC0A1
:10253000ECA1FDA12081318142815381C301B2010F
:102540000E9407420E94D741D6016C9311967C935A
:10255000119712968C93129713969C930F5F1F4FAF
:10256000B4E0CB0ED11CECA1FDA13496FDA3ECA3ED
:102570000330110509F0B5CF1092F40C03C012FF1F
:1025800051CF4DCFAA960FB6F894DEBF0FBECDBF88
:10259000DF91CF911F910F91FF90EF90DF90CF903F
:1025A000BF90AF909F908F907F906F905F904F9073
:1025B0003F902F900895CF93DF930E94D13B8823C3
:1025C000C9F0E0EFFCE081E083838081883061F432
:1025D0000E94363CC0EFDCE00E9483238981811198
:1025E00009C088818111F8CF2AD482E00E948C3EF4
:1025F0000E948323DF91CF9108950E94842A0E9434
:102600003A2E0E9493320E94033B8CE0E0E1FDE011
:10261000DF011D928A95E9F778941092F00C809171
:10262000700F84FF03C081E08093F00CC0EFDCE00A
:102630000F2EF1E1DF2EF02D14E60F2EF4E0EF2E39
:10264000FDE0FF2EF02D0CE08881FE019D2D119202
:102650009A95E9F788831F8318871987D701E02F98
:102660001D92EA95E9F71092030D1092020D109257
:102670001C0D1092EF0C1092010D0E94A02B0E94D5
:10268000C8040E94A32E0E94DE0300DD0E948E215A
:102690000E94632E77D70E9462320E94B8020E9485
:1026A000B61F0E94DA040E9403260E94A124CCCF08
:1026B000EF92FF920F931F93CF93DF937C018B01D7
:1026C0008091700F85FF06C08091F00C803231F050
:1026D000C70171DF8091F00C823059F1F8018485D7
:1026E000958590FD04C0B801C7010E94C702C0EFE4
:1026F000DCE00E948323898181111BC092D788234B
:1027000019F00E94B621F5CFB801C7010E944F1CF5
:1027100081110FC08091700F81FF0BC0F80184857B
:1027200084FF07C0448155816681778180E10E94E2
:10273000B92FDF91CF911F910F91FF90EF900895E6
:102740002F923F924F925F926F927F928F929F92C1
:10275000AF92BF92CF92DF92EF92FF920F931F93AF
:10276000CF93DF93CDB7DEB7E2970FB6F894DEBF15
:102770000FBECDBF9AAB89AB788B6F875E874D87D5
:102780003901ED82FE820F831887898AD12CCC0C07
:10279000DD1CCC0CDD1CCA018C0D9D1D9E8B8D8B10
:1027A000D901AC0DBD1DBEA7ADA72D903D904D909C
:1027B0005C90FC012081318142815381C201B101D1
:1027C0000E94F03E6F8B788F898F9A8F0A2D10E0D0
:1027D000000F111F000F111F8D859E85800F911F07
:1027E0009C8F8B8FD301A00FB11FB8ABAFA78D907B
:1027F0009D90AD90BC90FC0120813181428153813C
:10280000C501B4010E94F03E6D8F7E8F8F8F98A31B
:10281000D201C101B05889839A83AB83BC83D501AF
:10282000C401B05889879A87AB87BC87E9A9FAA900
:10283000EC0DFD1D2F89388D498D5A8D6081718178
:10284000828193810E94EF3E6B017C01E9A9FAA984
:10285000E00FF11F2D8D3E8D4F8D58A1608171814C
:10286000828193810E94EF3E4B015C01A70196019A
:1028700069817A818B819C810E9407422B013C01F6
:10288000A501940169857A858B859C850E94074204
:102890009B01AC01C301B2010E94F03E2B013C013F
:1028A000A501940169817A818B819C810E940742F4
:1028B0004B015C01A701960169857A858B859C8512
:1028C0000E9407429B01AC01C501B4010E94EF3E8A
:1028D000A30192010E94633F4B015C0129968FADD9
:1028E00029978823A9F02DEB37E346E055EBC50186
:1028F000B4010E94CC418823FCF02BED3FE049EC71
:1029000050E4C501B4010E94EF3E4B015C0114C0CC
:102910002DEB37E346E055E3C501B4010E94C93F02
:10292000181654F02BED3FE049EC50E4C501B4011A
:102930000E94F03E4B015C01C090640FD090650F87
:10294000E090660FF090670F2D813E814F81588592
:10295000CA01B9010E94F03E2B013C01A70196017A
:10296000C301B2010E94EF3EA70196010E940742F7
:102970000E9494426B017C0120E030E040E05FE384
:10298000C501B4010E9407422D813E814F815885C7
:102990000E9407429F77A70196010E94D03F0E94A4
:1029A000A6400E943D406B017C013B016115710511
:1029B00009F48BC1AF85B8891C960D911C911D97A8
:1029C00003FF1AC080E090E00E9469409B01AC01C7
:1029D000EF85F88960817181828193810E9407422D
:1029E000AF85B8896D937D938D939C931397077FE3
:1029F0001D961C930E931C97B60180E090E00E94F8
:102A000069406B017C019B01AC01C501B4010E94CE
:102A1000D03F69A77AA78BA79CA7B9898B2E912C49
:102A2000880C991C880C991C4D845E84480C591C98
:102A3000E9A9FAA9E80DF91DD2012D913D914D9119
:102A40005C9160817181828193810E94EF3EA70138
:102A500096010E94D03F698B7A8B8B8B9C8B29A52A
:102A60003AA54BA55CA5CA01B9010E9407429B018A
:102A7000AC0160E070E080E090E40E94EF3E6B010A
:102A80007C012BEA3AEA4AE25EE369A57AA58BA5C6
:102A90009CA50E9407424B015C0120E030E040E829
:102AA00050E4C701B6010E94F03E9B01AC01C50194
:102AB000B4010E94074269A37AA38BA39CA320E0E0
:102AC00030E040E05FE3C701B6010E9407426DA31A
:102AD0007EA38FA398A7B2E06B16710408F4F5C02B
:102AE00010E022242394312CC984DA84EB84FC8402
:102AF0001C3008F044C0A70196016DA17EA18FA1F2
:102B000098A50E9407424B015C0129813A814B81C3
:102B10005C8169A17AA18BA19CA10E940742A501B9
:102B200094010E94F03E962EA72EB82E092F2981DF
:102B30003A814B815C816DA17EA18FA198A50E94F5
:102B4000074269837A838B839C83A701960169A1DD
:102B50007AA18BA19CA10E9407429B01AC016981D3
:102B60007A818B819C810E94EF3E69837A838B837B
:102B70009C831F5FC92CDA2CEB2CF02E66C0B101B0
:102B800080E090E00E94694029A53AA54BA55CA58C
:102B90000E9407426B017C010E94CD3F6D837E83C2
:102BA0008F839887C701B6010E948A4269877A8716
:102BB0008B879C87EDA5FEA5C080D180E280F38045
:102BC000F7FAF094F7F8F094AFA5B8A98D909D901E
:102BD000AD90BC90A70196016D817E818F81988513
:102BE0000E94074269837A838B839C83A5019401A9
:102BF00069857A858B859C850E9407429B01AC0183
:102C000069817A818B819C810E94F03E69837A83FD
:102C10008B839C83A701960169857A858B859C852A
:102C20000E9407426B017C01A50194016D817E81A8
:102C30008F8198850E9407429B01AC01C701B601B4
:102C40000E94EF3E6B017C0110E02F89388D498D89
:102C50005A8D69817A818B819C810E94F03EED8939
:102C6000FE8960837183828393832D8D3E8D4F8D8A
:102C700058A1C701B6010E94F03EAB8DBC8D6D938B
:102C80007D938D939C93139729893A894B895C890D
:102C9000F20160817181828193810E94F03ED201B4
:102CA0006D937D938D939C9313976F8578898D8514
:102CB0009E85FEDC8091F10C81110CC0BFEF2B1AB8
:102CC0003B0A6214730409F013CF6F85788989A9D0
:102CD0009AA9EEDCE2960FB6F894DEBF0FBECDBF28
:102CE000DF91CF911F910F91FF90EF90DF90CF90E8
:102CF000BF90AF909F908F907F906F905F904F901C
:102D00003F902F900895CF92DF92EF92FF92209103
:102D1000F00C223041F06B017C010E944D2540E017
:102D2000C701B60176D1FF90EF90DF90CF90089564
:102D3000A2D984E026DA83E024DA0E9483238091FA
:102D4000F10C811105C00E94DA040E94B61F9EC9D1
:102D50000895DF92EF92FF920F931F93CF93DF932B
:102D60002091F00C223009F45DC0D42E7B018C013F
:102D70000E944D258091F10C811156C01092F50CE6
:102D8000D3FA882780F90E947D210E949B21882305
:102D900051F084E00E948C3E0E94832380E00E94D8
:102DA0007D2182E044C0B701C80182DC81E08093CC
:102DB000030D82E00E94363CC0EFDCE00E948323DA
:102DC0008981811133C088818111F8CF8091030DF1
:102DD000813081F4D4FE0AC08CE0E0E1FDE0A4E0A3
:102DE000BDE001900D928A95E1F707C085E00E9451
:102DF0008C3E03C081E08093F50C1092030D80E0BF
:102E00000E947D210E9483230E946232BBD30E94D4
:102E1000B61F0E941D2781E09091F50C911107C00B
:102E200080E005C080E003C082E001C082E0DF9165
:102E3000CF911F910F91FF90EF90DF9008958091B7
:102E4000020D84FD1FC080E10E94363C0E94982E36
:102E50000E94D5038091F00C982F9C7221F49091E0
:102E6000F40C967079F0843041F480911C0D81113E
:102E700007C086E00E948C3E03C083E00E948C3E27
:102E80000C94E92F08954F925F926F927F928F92E8
:102E90009F92AF92BF92CF92DF92EF92FF920F93E9
:102EA0001F93CF93DF93DC01FB01C081D0E0FC01D5
:102EB000EC0FFD1F90819D3229F4EF012296918144
:102EC00001E00BC09B3229F02196CA0FDB1F00E006
:102ED00004C0EF012296918100E080E020E010E044
:102EE000412C512C320131E0FE0190539A3010F503
:102EF0002F5F2930D8F48111115053014201880C01
:102F0000991CAA1CBB1C880C991CAA1CBB1C840CF9
:102F1000951CA61CB71C880C991CAA1CBB1C240160
:102F20003501490E511C611C711C09C0811107C07B
:102F30001F5F05C09E3F31F4811104C0832F908133
:102F40002196D2CF222309F452C06A017B015D0190
:102F5000C301B2010E9469402B013C0120E030E036
:102F6000A9010E94C93F882351F11F3F6CF42AE058
:102F700037ED43E25CE3C301B2010E9407422B013B
:102F80003C011E5F1F3F9CF311235CF42DEC3CECD5
:102F90004CEC5DE3C301B2010E9407422B013C01EE
:102FA0000EC0111664F420E030E040E251E4C301A9
:102FB000B2010E9407422B013C011150A1F70023EE
:102FC00051F077FA709477F87094F601408251824C
:102FD0006282738205C0F6014082518262827382EE
:102FE000CA19DB09C150F701C08381E001C080E04C
:102FF000DF91CF911F910F91FF90EF90DF90CF90D5
:10300000BF90AF909F908F907F906F905F904F9008
:103010000895FF920F931F93CF93DF93F42E20E038
:1030200030E040EA51E40E9407420E94B63F0E940D
:103030003D406115710521F12091F10C211120C055
:10304000EB0100EF1CE005C02197F801818181119F
:1030500017C0F11003C00E94832306C00E94BD2147
:10306000F801828181FD0CC0FFEF20E782E0F15082
:1030700020408040E1F700C00000C130D10521F7B9
:10308000DF91CF911F910F91FF900895009741F02C
:10309000EFE9FFE03197F1F700C000000197C1F7B9
:1030A00008954F925F926F927F928F929F92AF920C
:1030B000BF92CF92DF92EF92FF924B015C016901C8
:1030C0007A01A5019401C501B4010E9407424B0198
:1030D0005C01A7019601C701B6010E9407429B014E
:1030E000AC01C501B4010E94F03E0E949442FF90E1
:1030F000EF90DF90CF90BF90AF909F908F907F9098
:103100006F905F904F9008954F925F926F927F9271
:10311000AF92BF92CF92DF92EF92FF920F931F93E5
:10312000CF93DF93EC015C018CE0A80EB11C8E0103
:10313000412C512C3201F801C190D190E190F190D5
:103140008F0120E030E0A901C701B6010E94C93F0C
:10315000882371F0A7019601C701B6010E940742BA
:103160009B01AC01C301B2010E94F03E2B013C0166
:103170000A151B0501F7C301B2010E9494422B01FD
:103180003C019B01AC0160E070E080E89FE30E949D
:10319000D03F6B017C01A7019601688179818A810A
:1031A0009B810E9407426993799389939993CA15E9
:1031B000DB0589F7C301B201DF91CF911F910F9118
:1031C000FF90EF90DF90CF90BF90AF907F906F9087
:1031D0005F904F9008956F927F928F929F92AF92DF
:1031E000BF92CF92DF92EF92FF920F931F93CF93F4
:1031F000DF93EB018C017B018CE0E80EF11C0F2EBC
:10320000F9E97F2EF02D0F2EF6E7CF2EF02D0F2EA1
:10321000F6E9DF2EF02D0F2EFEE76F2EF02D8990B0
:103220009990A990B99020E030E0A901C501B401BE
:103230000E94C93F8823D9F0A5019401F80160815B
:103240007181828193810E94D03F4B015C01E8949F
:10325000B7F8272D3C2D4D2D562DC501B4010E94E8
:10326000CC41181624F0782CC92CDA2C6B2C0C5F6E
:103270001F4FCE15DF0599F6672D7C2D8D2D962DD0
:10328000DF91CF911F910F91FF90EF90DF90CF9042
:10329000BF90AF909F908F907F906F9008952F92E6
:1032A0003F924F925F926F927F928F929F92AF92D6
:1032B000BF92CF92DF92EF92FF920F931F93CF9323
:1032C000DF93C0914602C11101C0C4E2C150D09148
:1032D0004402DC1709F436C10C2F10E027E3C29F2B
:1032E000C0011124FC01E85BFD4F6F01E28CF38CFF
:1032F000948C858C668D778D80A191A19B01AC010A
:103300000E94F03EF60122A133A144A155A10E94E2
:103310000742A62EB72EC82ED92E262F372F482F7C
:10332000592F6E2D7F2D892D982D0E94C93F8823FE
:1033300024F0EA2CFB2C9C2C8D2C87E3809FF00141
:10334000819FF00D1124E85BFD4F8E2D9F2DA92D3F
:10335000B82D868B978BA08FB18FC11101C0C4E2AD
:10336000C150DC1307C080914702D8137CC00E9473
:10337000B53279C027E3209FC001219F900D112411
:103380009C01285B3D4F6901D7E3EC2EF12CDE9DBB
:103390008001DF9D100D1124085B1D4FC11101C07C
:1033A000C4E2C150809147028C1302C00E94B53222
:1033B000DE9DF001DF9DF00D1124E85BFD4F428C96
:1033C000538C648C758CA301920166897789808DFA
:1033D000918D0E94C93F882309F440C0DE9DC00141
:1033E000DF9D900D1124FC01E85BFD4F5F01668DB0
:1033F000778D80A191A19B01AC010E94F03EF50167
:1034000022A133A144A155A10E940742F6012689B9
:103410003789408D518D0E94F03E4B015C019B012C
:10342000AC01C301B2010E94CC41181664F4DE9DC8
:10343000F001DF9DF00D1124E85BFD4F868A978A2D
:10344000A08EB18E0BC0DE9DF001DF9DF00D11242A
:10345000E85BFD4F468A578A608E718E68018091C5
:1034600044028C1392CF20904402F7E32F9EC001B8
:1034700011249C01285B3D4F7901C1E0C20DC4328B
:1034800009F4C0E030904602D7E358C0CC2ED12CCE
:10349000DC9D8001DD9D100D1124085B1D4FF7019F
:1034A00046885788608C718CF80186889788A08C34
:1034B000B18CA5019401C301B2010E94C93F8823C8
:1034C00024F5F701668D778D80A191A19B01AC0158
:1034D0000E94F03EF70122A133A144A155A10E9410
:1034E0000742A30192010E94F03E2B013C019B0187
:1034F000AC01C501B4010E94CC41181634F4F801A6
:10350000468A578A608E718E2C2EDC9DF001DD9DDF
:10351000F00D1124E85BFD4F228D338D448D558DC8
:1035200066897789808D918D0E94C93F811101C084
:103530002C2ECF5FC43209F4C0E07801C311A6CFAE
:1035400020924402DF91CF911F910F91FF90EF9055
:10355000DF90CF90BF90AF909F908F907F906F90B3
:103560005F904F903F902F90089588E292E00895E9
:10357000109247021092460281E080934502109219
:10358000440208958CE1E8E2F2E0DF011D928A95A1
:10359000E9F7EECF0895809147029091460298177F
:1035A00069F091E0980F943209F490E02091440280
:1035B000821302C090934402909347020895809131
:1035C000460227E3829FC0011124885B9D4F089526
:1035D0008091470290914602981739F027E3829F25
:1035E000C0011124885B9D4F089580E090E008950C
:1035F000E0914702EF5FE43209F4E0E08091460297
:103600008E1759F087E3E89FF0011124E85BFD4F26
:1036100066897789808D918D089560E070E0CB0197
:10362000089581E02091470290914502291380E09E
:103630000895AF92BF92CF92DF92EF92FF920F93D5
:103640001F93CF93DF93EC011EA5AFA4E8A809A9AF
:10365000898980FF1AC06091F80C70E080E090E0EA
:103660000E946B402AE037ED43E25CE30E94074290
:103670009B01AC01612F7A2D8E2D902F0E94074265
:10368000162FA72EE82E092F2FC082FD19C060919A
:10369000F70C70E080E090E00E946B402AE037ED8C
:1036A00043E25CE30E9407429B01AC01612F7A2D4B
:1036B0008E2D902F0E940742162FA72EE82E092F3D
:1036C000BAA4CBA4DCA4FDA42B2D3C2D4D2D5F2D45
:1036D000612F7A2D8E2D902F0E94CC41181624F444
:1036E0001B2DAC2CED2C0F2D20E030E040E85FE3EB
:1036F000612F7A2D8E2D902F0E94CC4118161CF42C
:10370000DA2DCE2D04C010E0D0E0C0E80FE3612F29
:103710007D2F8C2F902FDF91CF911F910F91FF90D4
:10372000EF90DF90CF90BF90AF9008955F926F922F
:103730007F928F929F92AF92BF92CF92DF92EF9241
:10374000FF920F931F93CF93DF93109147025090F6
:1037500046020F2EF9E99F2EF02D0F2EF6E78F2E41
:10376000F02D0F2EF6E97F2EF02D0F2EFEE76F2E97
:10377000F02D0F2EF7E3CF2EF02D73C0C12FD0E028
:10378000CC9EC001CD9E900D1124885B9D4F51DFD2
:10379000062FF72EE82ED92E262F372F482F592FF8
:1037A000692D782D872D962D0E94C93F8823CCF452
:1037B000CC9EC001CD9E900D11249C01285B3D4FF5
:1037C0005901292D382D472D562D692D782D872DFE
:1037D000962D0E940742F501628F738F848F958F1B
:1037E00018C0CC9EC001CD9E900D11249C01285B79
:1037F0003D4F5901202F3F2D4E2D5D2D602F7F2DE8
:103800008E2D9D2D0E940742F501628F738F848F4C
:10381000958FCC9EF001CD9EF00D1124E85BFD4FFD
:1038200086A097A0A0A4B1A4A5019401628D738D78
:10383000848D958D0E94CC4118165CF4CC9EF001CD
:10384000CD9EF00D1124E85BFD4F828E938EA48EE9
:10385000B58E1F5F143209F410E0902E8F2C7E2C51
:103860006D2C15118BCF892D982DA72DB62D8093FA
:10387000400290934102A0934202B0934302DF9131
:10388000CF911F910F91FF90EF90DF90CF90BF905D
:10389000AF909F908F907F906F905F9008952F9240
:1038A0003F924F925F926F927F928F929F92AF92D0
:1038B000BF92CF92DF92EF92FF920F931F93CF931D
:1038C000DF93CDB7DEB7CA54D1090FB6F894DEBF87
:1038D0000FBECDBF25967FAF6EAF259720914602D4
:1038E000222E312C37E3329DA001339D500D11243F
:1038F000BA01685B7D4F27967FAF6EAF2797DB01DC
:103900001D923A95E9F72596EEADFFAD25973485E2
:10391000DB0151963C9344815581668177812796DE
:10392000EEADFFAD279742AB53AB64AB75AB2596BD
:10393000AEADBFAD259718964D915D916D917C917F
:103940001B97428B538B648B758B1C964D915C91AE
:103950001D9750FF0AC047E3429DF001439DF00DC3
:103960001124E85BFD4F41E046ABFE013D964CE083
:10397000DF011D924A95E9F731FF0AC03CE0E0E122
:10398000FDE0DE011D9601900D923A95E1F797C298
:1039900037E3329DF001339DF00D1124E85BFD4FBC
:1039A00036A931118CC23CE0E8E2F2E0DE011D965E
:1039B00001900D923A95E1F782C2E9A9FAA96191C5
:1039C000719181919191FAABE9ABADA9BEA9CD906E
:1039D000DD90ED90FD90BEABADABA70196010E94CE
:1039E00007420E94D74123966CAF7DAF8EAF9FAF49
:1039F0002397EFA9F8AD6193719381939193F8AFF9
:103A0000EFABA9ADBAAD4D905D906D907D90BAAF22
:103A1000A9AF64197509860997099B01AC013AF4AD
:103A200022273327A901261B370B480B590BEBAD77
:103A3000FCAD2193319341935193FCAFEBAFD40193
:103A40004D905D906D907C9042165306640675060D
:103A500010F429013A01F40140825182628273829A
:103A60000E946B40A70196010E94D03FADADBEAD54
:103A70006D937D938D939D93BEAFADAF23962CAD8B
:103A80003DAD4EAD5FAD2397232B242B252B19F095
:103A9000D50111960C9320E030E0A9010E94C93FA6
:103AA000882374F4812F0E944F2E2B96EEADFFAD2C
:103AB0002B979081892B8083EFEFD5011196EC93A2
:103AC0001F5FFFEFAF1ABF0A133009F076CF87E30D
:103AD000829DF001839DF00D1124E85BFD4F8485EC
:103AE0009585A685B785892B8A2B8B2B09F4E3C195
:103AF000CE01499609DB27E3229D8001239D100D0D
:103B00001124085B1D4FD80192966D937D938D9380
:103B10009C939597BE01675E7F4F83E49FE05BDBDC
:103B2000F801668F778F80A391A3BE01675E7F4FF8
:103B300087E39FE050DBD8019A966D937D938D9338
:103B40009C939D9751961C91519710FF06C0FD01C3
:103B500066A777A780AB91AB22C02596EEADFFADEF
:103B60002597208131814281538187E3829DF00135
:103B7000839DF00D1124E85BFD4F26A737A740ABCE
:103B800051AB13FF0CC07F0162A173A184A195A169
:103B90000E940742F70166A777A780AB91AB90918F
:103BA000460280914702981711F011FF11C087E378
:103BB000829DF001839DF00D1124E85BFD4F168A74
:103BC000178A108E118E16A217A210A611A6D6C0A3
:103BD00004E312E02E01F5E24F0E511C320119AA46
:103BE0001AAA1BAA1CAAD801CD90DD90ED90FD90D9
:103BF0008D012996EEADFFAD299781909190A1900E
:103C0000B1902996FFAFEEAF2997A5019401C701A6
:103C1000B6010E9407429B01AC0169A97AA98BA950
:103C20009CA90E94EF3E69AB7AAB8BAB9CABA70122
:103C30009601C501B4010E94EF3ED2016D937D93C0
:103C40008D939D932D012996EEADFFAD2997E61535
:103C5000F70549F62FEE3FEF4FE75FE369A97AA931
:103C60008BA99CA90E94CC4118166CF487E3829D15
:103C7000F001839DF00D1124E85BFD4F16A217A201
:103C800010A611A67BC02FEE3FEF4FE75FEB69A9AF
:103C90007AA98BA99CA90E94C93F88238CF487E349
:103CA000829DF001839DF00D1124E85BFD4F89E9B1
:103CB00096E7A6E9BEE786A397A3A0A7B1A75EC033
:103CC000CE01859621DABE016B5D7F4F83E49FE0D4
:103CD00082DA6B017C0129A93AA94BA95CA960E0B1
:103CE00070E080E89FE30E94EF3E20E030E040E09B
:103CF0005FE30E9407420E9494424B015C012091C5
:103D0000600F3091610F4091620F5091630FC701B6
:103D1000B6010E940742A50194010E9407426B016F
:103D20007C01A501940160E070E080E89FE30E94BF
:103D3000EF3E9B01AC01C701B6010E94D03FE62EC9
:103D4000F72E082F192F20E030E0A9010E94C93F6B
:103D5000882324F4E12CF12C00E010E087E3829D1D
:103D6000F001839DF00D1124E85BFD4F4E2D5F2D7A
:103D7000602F712F46A357A360A771A787E3829D89
:103D8000F001839DF00D1124E85BFD4F818981FDD9
:103D900094C027968EAD9FAD27974BDC6B017C01BD
:103DA0008090400290904102A0904202B090430265
:103DB000A50194010E94CC411816B4F487E3829DBA
:103DC0008001839D100D1124085B1D4FA5019401F6
:103DD000C501B4010E940742D8015A966D937D93A4
:103DE0008D939C935D9713C087E3829D8001839D93
:103DF000100D1124085B1D4FA7019601C701B601E4
:103E00000E940742F801628F738F848F958F87E33A
:103E1000829DF001839DF00D1124E85BFD4F86A08B
:103E200097A0A0A4B1A4A5019401628D738D848D87
:103E3000958D0E94CC41181664F487E3829DF001B1
:103E4000839DF00D1124E85BFD4F828E938EA48E2E
:103E5000B58EC0924002D0924102E0924202F092AE
:103E600043028CE0FE017996A4E3B2E001900D924A
:103E70008A95E1F787E3829DF001839DF00D11247F
:103E8000E85BFD4F86A9811109C08CE0FE013196E7
:103E9000A8E2B2E001900D928A95E1F78091450287
:103EA000809346028F5F843209F480E0809345025C
:103EB000F6D981E041C080E03FC081E03DC089ABE0
:103EC0009AAB4FE15FE05EAB4DABBE016F5F7F4FE2
:103ED00078AF6FABCE010D969AAF89AFA7E32A9F5B
:103EE000C0011124FC01E85BFD4FFCAFEBAF9E016C
:103EF000275E3F4F29963FAF2EAF29970F2EF5E64D
:103F0000AF2EFCE0BF2EF02D3EAF2DAF10E027E32B
:103F1000229DC001239D900D1124885B9D4F4C0173
:103F20003CE0830E911C01E0AC01405F5F4F2B969B
:103F30005FAF4EAF2B9741CDC65BDF4F0FB6F89406
:103F4000DEBF0FBECDBFDF91CF911F910F91FF90CC
:103F5000EF90DF90CF90BF90AF909F908F907F9029
:103F60006F905F904F903F902F900895E0E1FDE0BB
:103F7000A8E2B2E08CE19DE0419151916191719193
:103F80004D935D936D937D93E817F907A9F7089515
:103F90009091460280914702981718F08D5D891B19
:103FA00008958150891B08950E94B532809147027F
:103FB0008093440274C90895CF93DF93EC01888104
:103FC000882331F021960E94942A89918111FBCF98
:103FD000DF91CF910895CF93DF93EC012196FC01FF
:103FE0008491882339F00E94942AFE0184912196BD
:103FF0008111F9CFDF91CF910895CF93DF9384366C
:1040000090F09DEC899F912D11249695969596950B
:10401000392F330F232F220F220F230F821BD0E3C0
:10402000D80F892F01C0D0E08A30F8F09DEC899F2D
:10403000912D1124969596959695392F330F232F10
:10404000220F220F230FC82FC21BC05D80E3890FF0
:104050000E94942ACC2319F08C2F0E94942ADD23ED
:1040600041F08D2F0E94942A04C0805D0E94942A02
:10407000F6CFDF91CF9108958F929F92AF92BF922A
:10408000EF92FF921F93CF93DF93CDB7DEB72A97BE
:104090000FB6F894DEBF0FBECDBF61157105810567
:1040A000910521F480E30E94942A2CC020E00F2E79
:1040B000FAE08F2E912CA12CB12CF02D11E0120FD3
:1040C000EE24E394F12CEC0EFD1EE20EF11CA50192
:1040D00094010E94B63EF7016083622F732F842FF4
:1040E000952F212F611571058105910539F7112350
:1040F00049F0FE01E10FF11D8081805D0E94942A4C
:104100001150B9F72A960FB6F894DEBF0FBECDBF97
:10411000DF91CF911F91FF90EF90BF90AF909F9054
:104120008F900895CF92DF92EF92FF926B017C0106
:10413000992364F48DE20E94942A66277727CB01A5
:104140006C197D098E099F0997DF01C095DFFF90EB
:10415000EF90DF90CF9008958F929F92AF92BF9291
:10416000CF92DF92EF92FF920F931F93CF93DF9343
:10417000CDB7DEB72D970FB6F894DEBF0FBECDBF1B
:104180006B017C01042F20E030E0A9010E94C93FAF
:1041900088233CF48DE20E94942AF7FAF094F7F811
:1041A000F094023088F0102F20E030E048EC52E428
:1041B000C701B6010E9407426B017C011250123008
:1041C00098F7802F817001C0802F882351F020E064
:1041D00030E040E251E4C701B6010E9407426B01A2
:1041E0007C0120E030E040E05FE3C701B6010E94BF
:1041F000F03E0E943840611571058105910519F165
:1042000020E00F2EFAE08F2E912CA12CB12CF02D56
:1042100011E0120FEE24E394F12CEC0EFD1EE20EE1
:10422000F11CA50194010E94B63E605DF701608318
:10423000622F732F842F952F212F61157105810512
:10424000910531F701C010E0101760F480E3E1E060
:10425000F0E0EC0FFD1FE10FF11D80831F5F0113E4
:10426000F6CF02C0011307C011E0100F80E3FE017A
:10427000E00FF11D8183112369F0011303C08EE269
:104280000E94942AFE01E10FF11D80810E94942A70
:10429000115099F72D960FB6F894DEBF0FBECDBF23
:1042A000DF91CF911F910F91FF90EF90DF90CF9012
:1042B000BF90AF909F908F9008952091700F20FF36
:1042C00009C02BE832E441E25DE30E94074244E08A
:1042D00043CF089543E040CF08952091700F20FF11
:1042E00009C02BE832E441E25DE30E94074241E06D
:1042F00033CF089540E030CF089510921E0D909175
:10430000700F99231CF090E890931E0D882329F0DC
:1043100080911E0D805880931E0D0895E7E0F1E016
:1043200080818F778083E8E0F1E0808180688083FE
:1043300080E0E3CF089580910601807890911E0D72
:1043400089270895F8DF882381F01092030D8CE00F
:10435000E0E1FDE0A4E0BDE001900D928A95E1F777
:104360008091020D80648093020D089531D9892BCC
:1043700019F082E00C94363C0895CF93DF93C091FE
:104380001C0DCC2399F081E08093F00C8C2FEDD3A1
:10439000C150C23048F481E0F6D380E10E94823EF1
:1043A0008091020D84FFFCCF0E94923EC091020DCD
:1043B000CC2309F4F2C0C4FF04C081E08093F10C67
:1043C0009FC1C0FF04C09ED681E00E94823E8C2F18
:1043D000887E09F463C08091F00C982F937009F0E7
:1043E0004CC0887299F08091F20C807C79F40E9424
:1043F000B532E0EFFCE082E084838081803231F4EA
:10440000CC23BCF092819068928313C08091F00C11
:10441000811106C091E09093F20CC6FD05C068C101
:10442000C6FF07C085FD05C0E0EFFCE09281906407
:104430009283C3FF05C0807E19F480E18093F00C65
:10444000C5FF1BC086E09FD38091F20C882384F0C7
:104450009091F00C903439F483FF07C0837E826022
:104460008093F20C02C0903819F080E48093F00C35
:10447000E0EFFCE0828180628283CC2364F480914F
:10448000F00C813029F4E0EFFCE0828185608283CA
:1044900080E88093F00C88EE0E94823EC1FF42C00B
:1044A0008C2F8876E1F58091F00C803479F480913E
:1044B000F20C85FD34C084FF03C01092F00C18C0CC
:1044C00082FF2DC088608093F20C29C0882381F080
:1044D00084FF25C09091F20C90FF21C0803141F4FF
:1044E0008091FA0C882321F088608093FA0C17C021
:1044F0001092F40C6DD8892B71F08091F20C86FD2E
:104500000AC0E0EFFCE0128288E080830E94D5328E
:104510000E94D12F04C0E0EFFCE01282108282E002
:104520000E94823EC2FF39C08091F00C807DB1F0C4
:104530008091F30C811112C08091F20C882394F0C9
:1045400033DD8091F40C81FF05C0E0EFFCE0928147
:1045500091609283897F8093F40C1CC08091F20C4F
:10456000882344F41092F40C0DD80E9462320E9409
:10457000DA04FCDC8091F20C85FF08C0E0EFFCE07F
:104580008F778160828380E4808304C0E0EFFCE069
:104590001282108284E00E94823EC091EF0CCC23F4
:1045A00071F10E94AA3E2091F70CC0FF02C084E680
:1045B00001C0822FC1FD865FC2FD8A50C3FD8F5F9F
:1045C000C4FD8150893C08F088EC8A3008F48AE008
:1045D0003091F80CC5FF02C094E601C0932FC6FDD0
:1045E00092E3CC230CF499E1281302C0931739F01D
:1045F000E0EFFCE087839087138698D8D5DCC091E4
:10460000010DCC2309F462C00E94B03E9091F90CD8
:10461000C0FF02C084E601C0892FC1FD865FC2FDD4
:104620008A50C3FD8F5FC4FD8150893C08F088EC3F
:104630008A3008F48AE09817B9F0E0EFFCE081874F
:10464000808181110AC0E5E7FCE0438554856585DA
:10465000768581850E948F2F05C0E0EFFCE0848184
:10466000886084831092FB0CC5FF12C08091F00C0F
:10467000803171F48091FA0C811104C082E0809342
:10468000FA0C32C080FF30C084608093FA0C2CC0DA
:104690008C2F807CD9F08091F00C882311F08873E6
:1046A000A9F0D0917D0CCC232CF4DD2314F4DF771A
:1046B00001C0D068C6FF05C0D6FF02C0DF7B01C0C5
:1046C000D0648D2F0E94E803D0937D0C80911D0D46
:1046D000882319F00BD710921D0D8091F00C8C7F60
:1046E00079F00E94D5320CC08C2F807CD1F603C0AB
:1046F000C3FDA3CEA5CE80911D0D882391F3EACFF3
:10470000DF91CF9108957F928F929F92AF92BF9247
:10471000CF92DF92EF92FF920F931F93CF93DF938D
:104720002CDE8091F20C882309F4FDC00E94E81A67
:10473000EC01892B51F4E5E7FCE0D1848085D82A8F
:1047400083849484A584B6840BC08989182F107340
:104750000E94C903D82ED12A8AA89BA8ACA8BDA8BC
:104760008091700F81FF03C080E20E94A13E909172
:10477000F20C992309F4D7C08091F10C8111D3C0B8
:10478000C0EFDCE08D2D8073C82E05E71CE00F2EF6
:10479000F0E7EF2EFFE0FF2EF02D77247394ED2D40
:1047A000E07CDE2E03C029812111BDC090FFAFC087
:1047B0002881322F307C09F46FC092FD0FC01A8619
:1047C00040E050E0BA0180E00E948F2F80E00E941C
:1047D000E8038A818D7F84608A8399C02038C1F480
:1047E0008BE0D1D140E050E0BA0180E00E948F2FF1
:1047F00080E00E94E8030E94E92F8091F10C811172
:1048000092C0C0EFDCE0B9DD89818823E1F38BC081
:10481000203439F40E94713B811103C08A818F7D5D
:104820008A838A8183FF73C0F80191859923D1F02F
:1048300081FD72C0F701808181FF08C08C81886092
:104840008C83F8018085811114C06BC0B501A4016F
:104850008C2D0E948F2F472D60E070E080E890E45F
:104860000E940918F8018085882369F08A8181FDFA
:104870004EC08D2D0E94E803472D60E070E080E877
:104880009FE30E9409188A8181FD41C080618A836B
:1048900082E00E94363C3BC09A85992369F191FFE2
:1048A0000EC0F8018185882341F040E050E0BA0154
:1048B00080E00E948F2F7A862AC01A8628C09C70BA
:1048C00031F1F8018185882379F08AE05CD1F70124
:1048D000808181FF04C08C8188608C8305C0B50114
:1048E000A4018C2D0E948F2F8A8583FF03C082E054
:1048F0000E94363C1A860BC08C8183FF08C0B5012C
:10490000A4018C2D0E948F2F8C81877F8C8335DDB5
:104910009A81911148CF07C0F80180858111F7CFA6
:10492000B2CF8A81B3CFDF91CF911F910F91FF90CA
:10493000EF90DF90CF90BF90AF909F908F907F903F
:104940000895DF92EF92FF920F931F93CF93DF931F
:104950008091700F83FF09C00E945D10882329F0A9
:1049600081E08093F00C87E00ED18091F00C81788B
:1049700069F082E008D181E08093F00CF12CE12C09
:10498000C0EFDCE004E01AE0D12C76C01092F00C0D
:104990000E94713B882331F08091020D80628093E8
:1049A000020DB1DE84E09AE00E94743BE7CF8A30CA
:1049B00011F08D3089F5A7DE8981811166C0EF2D58
:1049C000F0E0EC5FF54F1082E0FE05C08BE0BDD05B
:1049D000FD2CE12C51C0F8018081811105C08D2D85
:1049E000B4D0FD2CE12C48C0843239F4C8010E94B7
:1049F0003F3CABD0FD2CE12C3FC08881817229F077
:104A000089E0A3D0FD2CE12C37C0C8010E94E1044D
:104A10009CD0FD2CE12C30C0EE2031F0893261F5C4
:104A2000FE2DFD7FEF2E28C0813230F18F3221F133
:104A30008832C1F08B33D1F09FEFF916D9F09FE99E
:104A4000980F9A3140F4EF2DF0E0EC5FF54F805273
:104A50008083F39411C0EF2DF0E0EC5FF54F80837D
:104A6000F3940AC06894EE24E1F806C06894EE243A
:104A7000E2F802C0EE24E3949BD58F3F09F097CF74
:104A800075DC41DE89818823B9F3DF91CF911F91D5
:104A90000F91FF90EF90DF900895CF93DF9366DC46
:104AA000C0EFDCE030DE8981811107C00E94E81A86
:104AB000892BC1F788818830A9F3DF91CF910895C0
:104AC0008BEB94E088CA08958DE52ED5F9CF089533
:104AD0000F931F93CF938C01C0E0F8016191719106
:104AE000819191918F01E9DBC23010F48CE21CD5E9
:104AF000CF5FC33091F7CF911F910F910895CF935E
:104B0000C82F84E211D58C2F78DA8DE30DD5CF91A3
:104B10000895CF93C62FF3DF8C2F6FDAD1DFCF91BB
:104B20000895CF92DF92EF92FF92CF936A017B01BB
:104B3000C22FE5DF4C2FC701B6010EDBC1DFCF91DD
:104B4000FF90EF90DF90CF900895CF93C82F811101
:104B500004C085EC94E03FDA06C08EEB94E03BDACB
:104B60008C2F4BDAADDFCF910895CF93C82F84EB14
:104B700094E031DA8C2F41DAA3DF84EF91E00E94D8
:104B80004618CF910895CF93C82F8EEA94E023DA88
:104B90008C2F90E0FC013197EB30F10588F58827E8
:104BA000EB5FFE4F8F4F0C94D83E8CE994E013DA04
:104BB00027C088E894E00FDA23C086E794E00BDA98
:104BC0001FC08EE694E007DA1BC085E694E003DAA6
:104BD00017C08AE594E0FFD913C08DE494E0FBD9B7
:104BE0000FC085E494E0F7D90BC082E394E0F3D9D9
:104BF00007C080E294E0EFD903C087E194E0EBD9ED
:104C000063DFCF9108958BEE93E0E5C9089581EAC3
:104C100093E0E1C90895EF92FF920F931F93CF9312
:104C2000DF93CFE1DFE06CAD70E080E072DF6FAD6D
:104C300070E081E06EDF6DAD70E082E06ADF6EAD46
:104C400070E083E066DFC0E7DFE0688162FB662733
:104C500060F970E084E05DDF688166FB662760F9DB
:104C600070E085E056DF8881082E000C990B692FD3
:104C7000661F6627661F70E086E04BDF60915F0F5E
:104C800070E08AE046DF4091600F5091610F6091C3
:104C9000620F7091630F23E08BE043DF4091640F5C
:104CA0005091650F6091660F7091670F23E08CE063
:104CB00038DF6881617070E08DE02BDF688165FB13
:104CC000662760F970E084E124DF688163FB662772
:104CD00060F970E085E11DDF68816295617070E0C8
:104CE00086E117DF6091710F70E087E112DF40917C
:104CF000720F5091730F6091740F7091750F23E0D4
:104D000088E10FDF4091760F5091770F6091780F17
:104D10007091790F23E089E104DF60917A0F70913F
:104D20007B0F8AE1F6DE40917C0F50917D0F609100
:104D30007E0F70917F0F23E08BE1F3DE4091680FCF
:104D40005091690F60916A0F70916B0F20E08EE1B6
:104D5000E8DE40916C0F50916D0F60916E0F709175
:104D60006F0F20E08FE1DDDE68816695617070E095
:104D700080E2CFDE0F2EF4E6FF2EF02DD0E04DC006
:104D8000D230E9F028F4DD2341F0D13079F03AC097
:104D9000D33031F1D43071F135C0F8014081518107
:104DA0006281738123E08C2FBCDE2CC0F801408D22
:104DB000518D628D738D23E08C2FB3DE23C020E0F4
:104DC00030E041E655E4F80164A175A186A197A100
:104DD0000E94D03FAB01BC0123E08C2FA2DE12C0A9
:104DE000F80140A951A962A973A9705823E08C2F3A
:104DF00098DE08C0F801448555856685778523E0EF
:104E00008C2F8FDE0C5F1F4FCF5FCE11B9CFFAE032
:104E1000FF0EDF5F86E9F81649F00FE11FE00F2E65
:104E2000F3E0EF2EF02DEF0CCF2DAACFDF91CF9135
:104E30001F910F91FF90EF900895CF93DF93CDB71F
:104E4000DEB72C970FB6F894DEBF0FBECDBF8BE94F
:104E500093E0C1D864E07DE0CE0101960E94B73BAB
:104E6000CE01019635DE8AE35FD38091F50CC5D87B
:104E70002BDE2C960FB6F894DEBF0FBECDBFDF91B0
:104E8000CF9108950F931F93CF93DF93CDB7DEB7E4
:104E90002C970FB6F894DEBF0FBECDBF01E001C066
:104EA0000F5F1FEF100FBE016F5F7F4F812F19D56E
:104EB000811103C087E049DE3DC088E993E08BD8CB
:104EC000163019F0173059F014C085E993E083D8F3
:104ED0008AE32AD3CE010196FBDDF6DDE1CF82E93C
:104EE00093E079D88AE320D3CE010196F1DDECDDA1
:104EF0000CC085E3800F81D88AE316D3CE010196DA
:104F0000E7DDE2DD083008F4CBCF8CE893E063D82E
:104F100085EA9CE0DDDDD8DD86E893E05CD8609131
:104F2000B10C7091B20C8091B30C9091B40CC5D9B6
:104F3000CBDD83DF2C960FB6F894DEBF0FBECDBF5E
:104F4000DF91CF911F910F910895CF93DF9380E868
:104F500093E041D88091750C8C3840F08CE793E059
:104F60003AD88091750C8A5848D801C046D880E755
:104F700093E031D8C5E7DCE08E818A5C3ED880E7DB
:104F800093E029D88C818F5E38D880E793E023D8CE
:104F90009A8185E1891B31D880E793E01CD88B8109
:104FA000865A2BD880E793E016D899818EE5891B25
:104FB00024D88F81882381F08DE693E00CD88091EE
:104FC0007C0C833029F08E3131F0823029F403C01B
:104FD00080E3AAD201C011D88DE693E00E94EB1FB6
:104FE00080917E0C803129F0803231F0811109C02E
:104FF00006C083E399D205C084E396D202C085E35C
:1050000093D28DE693E00E94EB1F80917D0C882364
:1050100051F014F487E388D280917D0C86FF05C09F
:1050200088E382D202C089E37FD289E793E00E94BD
:10503000EB1FC5E7DCE08B890E94FD1F86E793E04C
:105040000E94EB1F6F85788989899A8946D983E701
:1050500093E00E94EB1F6B857C858D859E8540E0EB
:105060007BD832DDDF91CF9108951F93CF93DF93EB
:10507000182FEB018AE693E00E94EB1F812F0E941C
:10508000FD1F8DE351D2CE010E94DC1F19DDDF919F
:10509000CF911F9108950F931F93CF938C01C62F2B
:1050A0008EE342D2C8010E94DC1F8AE33DD28C2FDE
:1050B0004CDDCF911F910F910895CF93DF93EC01B9
:1050C00081E593E00E94EB1FCE010E94DC1FFCDC17
:1050D0008BE493E00E94EB1F86E526D28EE424D277
:1050E0008DE422D28BE220D28CE21ED283E20E9497
:1050F000FD1F8CE219D28FEF0E94FD1FE5DCDF91CE
:10510000CF9108954F925F926F927F928F929F926C
:10511000AF92BF92CF92DF92EF92FF920F931F93C5
:10512000CF93DF93CDB7DEB7A4970FB6F894DEBF69
:105130000FBECDBF8CE0E0E1FDE0DE0111960190F5
:105140000D928A95E1F7BE016F5F7F4FCE010D96FC
:105150000E94B73B8CE3E8D18091F00C8830D1F00D
:1051600040F48130C1F188F08230D1F1843071F1A6
:1051700058C0803231F118F4803189F052C0803447
:10518000A1F1803809F449C04CC086E493E00E9444
:10519000EB1F47C082E493E00E94EB1F42C0809166
:1051A000F20C882374F08CE393E00E94EB1F809153
:1051B000F20C80FF03C080E3B7D133C081E3B4D1E8
:1051C00030C088E393E00E94EB1F2BC083E393E0A1
:1051D0000E94EB1F26C08DE293E00E94EB1F21C0CE
:1051E00087E293E00E94EB1F1CC081E293E00E94E3
:1051F000EB1F8091F20C83FF03C083E395D111C0B4
:1052000082FF08C085FF03C081E38ED10AC080E31E
:105210008BD107C082E388D104C08BE193E00E9468
:10522000EB1F80915F0F282F2170E22E80FF04C0BA
:105230008091FC0C811155C04090B10C5090B20C83
:105240006090B30C7090B40C0F2EF9E9CF2EFCE0F7
:10525000DF2EF02D8E01075E1F4F5E018DE0A80E40
:10526000B11CF12CF60161917191819191916F01C5
:1052700020853185428553850E94F03E4801F80122
:105280006083718382839383F2E0FF120CC0A301D9
:1052900092010E94F03EF8016083718382839383C0
:1052A000E1101FC002C0E11011C0F4012081318162
:1052B00042815381F50160817181828193810E94D5
:1052C000EF3EF5016083718382839383F3940C5FD7
:1052D0001F4FF4E0AF0EB11C23E0F212C3CFEE205B
:1052E00029F084E193E00E94EB1F04C08DE093E07D
:1052F0000E94EB1FCE010D96EBDB80915F0F81FFCB
:105300000DC088E093E00E94EB1F0E94C81F0E941E
:10531000FD1F8CE209D1EBD00E94FD1F0E94E81A0C
:10532000009791F0FC01C288D388E488F588C11405
:10533000D104E104F10441F083E093E00E94EB1F0B
:10534000C701B6010E9492208EEF92E00E94EB1FEF
:105350000E94F23A0E946D218CE2E6D06091FD0C31
:105360007091FE0C8091FF0C9091000D40E00E9426
:10537000AC200E945D10082F0E94183B182F0E943D
:105380009B21F82E802F812B8F2941F189EF92E00C
:105390000E94EB1FFF2011F080E5C6D0002361F0D2
:1053A00000FF02C088E5C0D001FF02C089E5BCD083
:1053B00002FF02C08AE5B8D0112381F010FF02C0BD
:1053C00084E4B2D011FF02C082E5AED012FF02C069
:1053D00088E4AAD013FF02C083E5A6D08091FC0C1C
:1053E000882321F081508093FC0C19C08091F00C2F
:1053F0008C7721F08DE18093FC0C03C089E08093D1
:10540000FC0C8091FB0C811103C081E08093FB0CAC
:1054100083EF92E00E94EB1FCE01499659DB809109
:10542000FB0C882321F081508093FB0C38C08091C5
:10543000F00C8C7721F083E18093FB0C03C089E0B2
:105440008093FB0C8EEE92E00E94EB1F00EF1CE0BD
:10545000F80187810E94FD1F8CE266D0F8018085EB
:105460000E94FD1F8CE260D0F80181850E94FD1F23
:105470004DD4082F0E94C903182F011114C08111A7
:1054800019C00DC083E550D002C083E44DD016FF93
:1054900002C086E449D0112314F48DE445D08EE394
:1054A00043D00EDB0CC08AEE92E00E94EB1F01306D
:1054B00061F7E8CF8AEE92E00E94EB1FE8CFA49656
:1054C0000FB6F894DEBF0FBECDBFDF91CF911F9115
:1054D0000F91FF90EF90DF90CF90BF90AF909F9093
:1054E0008F907F906F905F904F9008950895809176
:1054F000060B9091070B981720F0981B892F809529
:1055000008958150891B0895E0ECF0E0808182606D
:1055100080831092C50080E18093C400E1ECF0E04C
:105520008081886980830895E091050B21E02E0F2A
:1055300004C09091020D94FD0FC09091040B2917A7
:10554000C1F3F0E0E15EF24F80832093050BE1ECC4
:10555000F0E080818062808308951F920F920FB6E1
:105560000F9211240BB60F928F939F93EF93FF939B
:105570008091040BE82FF0E0E15EF24F9081909370
:10558000C6008F5F8093040B9091050B891305C0B3
:10559000E1ECF0E080818F7D8083FF91EF919F911E
:1055A0008F910F900BBE0F900FBE0F901F9018950C
:1055B0009091060B8091070B981749F0E92FF0E0C6
:1055C000E15EF14F80819F5F9093060B08958FEF0E
:1055D00008951F920F920FB60F9211240BB60F92DF
:1055E0002F933F934F935F936F937F938F939F93EB
:1055F000AF93BF93EF93FF93E091C600E132A1F028
:1056000018F4E83131F014C0EF3331F0EE3741F0E7
:105610000FC00E941F1781C081E00E94363C7DC0F0
:1056200082E00E94363C79C088E00E94363C75C01A
:10563000EE230CF064C08E2F90E0FC01E458F109D9
:10564000EE31F10508F069C08827E05FFE4F8F4F0B
:105650000C94D83E80E20E94363C5FC08091F00CF2
:1056600085FF5BC080E40E94363C57C09FB7F8942A
:1056700080911D0D816080931D0D9FBF4EC081E004
:105680000E94983E4AC082E00E94983E46C084E054
:105690000E94983E42C088E00E94983E3EC080E151
:1056A0000E94983E3AC080E20E94983E36C080E454
:1056B0000E94983E32C080E80E94983E2EC081E051
:1056C0000E94A13E2AC082E00E94A13E26C084E042
:1056D0000E94A13E22C088E00E94A13E1EC080E13F
:1056E0000E94A13E1AC080E20E94A13E16C080E442
:1056F0000E94A13E12C080E80E94A13E0EC0A0916F
:10570000070B81E08A0F9091060B891731F0B0E00A
:10571000A15EB14FEC938093070BFF91EF91BF9186
:10572000AF919F918F917F916F915F914F913F9139
:105730002F910F900BBE0F900FBE0F901F901895DA
:105740008091070B8093060B08951F93CF93DF93EF
:10575000182FEB01A2D921E031E0129FC001139F65
:10576000900D112440E051E0BE019D5F0E943C0479
:10577000DF91CF911F91089540E051E0BC018EEA86
:1057800093E00C943C0408950F931F93CF93C82F7C
:105790008B0183D92DE0C29FC00111244CE050E061
:1057A000B8019E5F0E943C04CF911F910F91089514
:1057B0006AE080E090E00E941D0441E650E06FE165
:1057C0007FE081E090E00C943C0408950F931F93D8
:1057D000CF93DF93CDB7DEB72C970FB6F894DEBF2B
:1057E0000FBECDBF082F80FF0AC081E6EAECF4E0CF
:1057F000AFE1BFE005900D928A95E1F7D9DF01FF97
:1058000010C0FE0131968CE0DF011D928A95E9F708
:1058100010E0BE016F5F7F4F812FB6DF1F5F183032
:10582000C1F702FF14C060E080E093E00E941D0415
:1058300060E081E093E00E941D0460E081E094E07C
:105840000E941D0460E082E094E00E941D0403FFBA
:105850000AC060E08EEA93E00E941D0460E08FEAD7
:1058600093E00E941D042C960FB6F894DEBF0FBE85
:10587000CDBFDF91CF911F910F9108951F93CF93CB
:10588000DF93182FEB0181E091E0189FB001199F81
:10589000700D11247D5F40E051E0CE010E947F0435
:1058A000892B31F41882BE01812F4FDF80E001C0C7
:1058B00081E0DF91CF911F910895CF93DF93EC01A9
:1058C00040E051E06EEA73E00E947F04892B29F4E6
:1058D0001882CE0151DF80E001C081E0DF91CF91DD
:1058E00008951F93CF93DF93182FEB018DE0189F3E
:1058F000B00111247E5F4CE050E0CE010E947F0495
:10590000892B51F48CE0FE0111928A95E9F7BE01D2
:10591000812F3ADF80E001C081E0DF91CF911F91BC
:10592000089580E090E00E9415048A3069F441E611
:1059300050E061E070E08FE19FE00E947F0421E091
:10594000892B19F420E001C020E0822F0895CF9226
:10595000DF92EF92FF92CF93DF93C82F6A017B0112
:1059600020E030E0A901C701B6010E94C93F8823A9
:105970000CF463C1C43608F473C0ECE9EC0FE330F7
:10598000A8F0EA3008F067C15AC1E33008F05DC002
:10599000923021F128F4992349F0913099F04AC1CD
:1059A0009330B9F1943009F444C044C1F0E0EE0FF3
:1059B000FF1FEE0FFF1FE15EF04FC082D182E28237
:1059C000F38238C1F0E0EE0FFF1FEE0FFF1FE95C1E
:1059D000F04FC082D182E282F3822CC1CE2FD0E080
:1059E000CC0FDD1FCC0FDD1FCD5BD04F20E030E0B2
:1059F00040E752E4C701B6010E94074220E030E0D0
:105A000040E752E40E940742688379838A839B833C
:105A100011C1F0E0EE0FFF1FEE0FFF1FE15BF04F33
:105A2000F7FAF094F7F8F094C082D182E282F38220
:105A300001C1F0E0EE0FFF1FEE0FFF1FE55DF04F1D
:105A4000C082D182E282F382F5C09F5FEA3008F41F
:105A5000F8C08E1709F4F7C0EA50E21396CFEAC0F7
:105A6000C701B6010E94D5420E943D408C2F90E0B4
:105A70008132910508F0E9C0FC018827E25DFE4F04
:105A80008F4F0C94D83E633008F4E1C060935B0FF5
:105A9000D1C060935E0FCEC060935C0FD5D4CAC0F6
:105AA00060935D0FD1D4C6C0662331F0E0E7FFE01C
:105AB000808184608083BEC0E0E7FFE080818B7FCF
:105AC0008083B8C0662331F0E0E7FFE08081806426
:105AD0008083B0C0E0E7FFE080818F7B8083AAC035
