:1000000095C20000A7C20000A5C20000A3C2000064
:10001000A1C200009FC200009DC200009BC2000060
:1000200099C200000C946A1095C200000C94073B22
:1000300091C200008FC200008DC200008BC2000080
:1000400089C200000C94F22F85C2000083C2000018
:1000500081C200007FC200007DC200000C94E93123
:1000600079C200000C94C42A0C94882A73C2000040
:1000700071C200006FC200006DC200006BC20000C0
:1000800069C2000067C2000065C200000C94502ED7
:1000900061C200005FC200005DC200005BC20000E0
:1000A00059C2000057C2000055C2000053C20000F0
:1000B00051C200004FC200004DC200004BC2000000
:1000C00049C2000047C2000045C2000043C2000010
:1000D00041C200003FC200003DC200003BC2000020
:1000E00039C2000081058105810581056205080F7F
:1000F000080F080F080F080F5605080F080F080F04
:10010000080F080F080FAB05AB05AB05CC05CC05F8
:10011000080F080F080F080F080F080F5605080FE3
:100120005605080F080F080F080F080F080F080FD3
:100130008105080FF705080F080FD205080F080FF3
:10014000080F080F080FD205080F080F080F6205E7
:10015000EB05EB05EB05EB05EB05EB05080FF105F2
:10016000080F080F080F080F080F080F080F080FD7
:10017000080F080F080F080F080F080F080F080FC7
:10018000080F080F8705080F080F080F080F080F42
:10019000080F080F080F080FB105B1055605C60571
:1001A000C605220622062206310631063106220F36
:1001B000480648064806220F220F220F220F220F60
:1001C000220F220F220F220F220F220F220F220FA7
:1001D000220F220F220F220F220F220F220F2206A0
:1001E0008806260F260F92069F06AC06B906260F34
:1001F000BD06260FCB06260FD506DF06E906260F1D
:10020000260F260FF90606071307B025B425B825D3
:10021000BC25C025C425C825CC25D025D425D82566
:10022000052B092B112B682B682B682B682B682B4F
:10023000682B682B682B682B1A2B1E2B222B262B46
:100240002A2B2E2B322B362B682B3A2B3E2B422B74
:10025000462B4A2B4E2B682B522B562B1E2D242D12
:10026000272D2B2D2F2D3D2D4B2D002E002E002E1A
:100270005C2D5F2D682D712D002E002E002E002E7E
:10028000002E002E812D912DA12DAF2DB22DBB2D35
:10029000C42DCB2D002E002ED42DDE2DE82D084AA6
:1002A000D73B3BCE016E84BCBFFDC12F3D6C74318A
:1002B0009ABD56833DDA3D00C77F11BED9E4BB4CE1
:1002C0003E916BAAAABE000000803F05A84CCDB2AB
:1002D000D44EB93836A9020C50B9918688083CA68C
:1002E000AAAA2ABE000000803F007C413A007C4F51
:1002F000763A007C57434F3A007C506E3A007C4679
:10030000533A007C4C6E3A007C42663A007C57506F
:100310006F733A007C4D506F733A00536C65657093
:1003200000446F6F723A00436865636B00416C6113
:10033000726D00486F6D65004A6F6700486F6C64AE
:100340003A0052756E0049646C65005B4F50543A38
:10035000005B5645523A312E31672E3230313830FB
:100360003831332E4D6567613A00244E00204D0030
:1003700020470020530020460020540033382E0030
:100380005B47433A47005B544C4F3A005B47393276
:100390003A003330003238005B47005B5052423A3B
:1003A000005B484C503A2424202423202447202456
:1003B0004920244E2024783D76616C20244E783DDF
:1003C0006C696E6520244A3D6C696E652024534C2F
:1003D00050202443202458202448207E2021203FE0
:1003E000206374726C2D785D0D0A000D0A477262ED
:1003F0006C20312E3167286261636B6C61736820F9
:10040000636F6D7029205B27242720666F72206838
:10041000656C705D0D0A00536C656570696E6700F0
:10042000526573746F72696E67207370696E646C65
:100430006500526573746F72696E672064656661EA
:10044000756C74730050676D20456E640043686579
:10045000636B204C696D69747300436865636B203E
:10046000446F6F720044697361626C656400456E2D
:1004700061626C65640043617574696F6E3A205502
:100480006E6C6F636B656400272448277C272458B3
:100490002720746F20756E6C6F636B0052657365F7
:1004A0007420746F20636F6E74696E7565005B4DA8
:1004B00053473A00414C41524D3A000D0A006572D3
:1004C000726F723A006F6B0D0A0000007A430000F1
:1004D0007A4300007A4300000000000000000000A2
:1004E00000000000FA430000FA430000FA4300A0B5
:1004F0000C4700A00C4700A00C47000048C30000B8
:1005000048C3000048C30A000019010AD7233C6F02
:1005100012033B00007A440000000000000000C805
:10052000410000FA43FA000000803F0011241FBE82
:10053000CFEFD1E2DEBFCDBF00E00CBF2FE0A0E0E7
:10054000B2E001C01D92A935B207E1F70E94D812AE
:100550000C94DC4255CD83E0EEE3FCE0DF011D921C
:100560008A95E9F78CE0E1E4FCE0DF011D928A95D1
:10057000E9F708952F923F924F925F926F927F9288
:100580008F929F92AF92BF92CF92DF92EF92FF92A3
:100590000F931F93CF93DF93CDB7DEB76C970FB652
:1005A000F894DEBF0FBECDBFC82ED92E7C8F6B8FC7
:1005B000FB01848581FF0CC02CE0E8EEFCE080E0CC
:1005C00090E0A82FB92F01900D922A95E1F702C073
:1005D0000E94901A0DE31CE0EC2CFD2C0F2EF7EF7F
:1005E000AF2EFEE0BF2EF02D682E792E0F2EF9E4EF
:1005F0008F2EFCE09F2EF02D6801512C412C97018D
:10060000F70181919191A191B1917F011801F801B8
:1006100084839583A683B783F5016191719181915C
:1006200091915F01F90120813181428153810E94C2
:10063000E2410E94B241F3012191319141915191E6
:100640003F01DC01CB01821B930BA40BB50B1816E9
:1006500019061A061B060CF459C0BC01CD01990FEE
:10066000660B762FCB01F6012181222331F1611532
:1006700071058105910509F104C061E070E080E039
:10068000942D022E000C330B440B550B621773078D
:100690008407950791F00E9446409B01AC01F5014B
:1006A00060857185828593850E94E241F1016483B2
:1006B000758386839783552453940C5F1F4FFFEFF8
:1006C000CF1ADF0A0815190509F099CF552019F13D
:1006D0008CE0E1E4FCE0DE011F9601900D928A952A
:1006E000E1F78EE0EB8DFC8DDE01119601900D920D
:1006F0008A95E1F781E091E09E878D87BE016F5F6B
:100700007F4FCE010F960E94331305C0F601218161
:10071000222399F2B2CF6C960FB6F894DEBF0FBECB
:10072000CDBFDF91CF911F910F91FF90EF90DF90A0
:10073000CF90BF90AF909F908F907F906F905F9081
:100740004F903F902F9008958091020185FF02C045
:1007500080E401C080E09091020196FD80680895D8
:10076000E2E0F1E080818F7D808380818F7B8083D8
:100770000895E1E0F1E0808180628083808180647F
:100780008083EECF08959091C90C91111CC086FF13
:1007900006C0E2E0F1E090819062908305C0E2E063
:1007A000F1E090819F7D9083882334F4E2E0F1E0D2
:1007B00080818064808305C0E2E0F1E080818F7BEE
:1007C00080831092D30C0895CF939091C80C9230EF
:1007D00029F0C82F0E9428258C2FD5DFCF910895AE
:1007E000F999FECF92BD81BD81E08FBB80B50895A0
:1007F000F894F999FECF92BD81BD81E08FBB80B5A1
:100800008627962F982359F06F3F29F060BD84E02A
:100810008FBBF99A0AC084E18FBBF99A06C088237E
:1008200021F060BD84E28FBBF99A789408958F928D
:100830009F92AF92BF92CF92DF92EF92FF920F936F
:100840001F93CF93DF937C018B016A014115510502
:1008500001F15A01C0E0D1E001C0C401C11108C0DA
:100860006C2FCC0F770BC72FCC1FCC27CC1F01C010
:10087000CD2FF80161918F01C60F4C01FFEF8F1A48
:100880009F0AB6DF21E0A21AB10839F7EC0CFD1C73
:1008900001C0C0E06C2FC701ABDFDF91CF911F918A
:1008A0000F91FF90EF90DF90CF90BF90AF909F900F
:1008B0008F9008958F929F92AF92BF92CF92DF92C6
:1008C000EF92FF920F931F93CF93DF937B016A0107
:1008D0004115510509F1C82FD92F5A01CB01912C8F
:1008E000882483948C010F5F1F4F7ADF911008C01A
:1008F000292D990C330B232F221F2227221F01C0E1
:10090000282D982E920E899381E0A81AB108C8016B
:1009100049F7EC0CFD1C01C0912CC70161DF21E0FF
:1009200030E0891511F020E030E0C901DF91CF916E
:100930001F910F91FF90EF90DF90CF90BF90AF90FD
:100940009F908F90089580E4EDE4FCE0DF011D921C
:100950008A95E9F761E77CE080E00E944C2C8111E8
:1009600003C087E00C948025089568EE7CE085E65E
:100970009CE00C94923B08952F923F924F925F928D
:100980006F927F928F929F92AF92BF92CF92DF929F
:10099000EF92FF920F931F93CF93DF93CDB7DEB704
:1009A000E2970FB6F894DEBF0FBECDBF8C018AE38D
:1009B000EDE8FCE0DF011D928A95E9F78BE0EDE4BC
:1009C000FCE0AEE8BCE001900D928A95E1F7F801F9
:1009D0008081843211F00C94720FEDE8FCE081E02C
:1009E0008183128283E08983F1E0FDA3212C312CE5
:1009F000E12CF12C1CA21AA21BA2CC24C394D12C52
:100A00000F2EF1E68F2EF3E09F2EF02D19A308A3F1
:100A100037C29FEB910F9A3110F00C94040F8F5F47
:100A20008983AE014E5F5F4FBE016F5F7F4F88A12C
:100A300099A10E941E17882311F40C94060F4A8076
:100A40005B806C807D80C301B2010E94B0420E9435
:100A50001840A62E70E080E090E00E9446409B0186
:100A6000AC01C301B2010E94CA3E20E030E048EC74
:100A700052E40E94E2410E9445420E941840862FA3
:100A8000972F9C01173421F01D3409F4C9C030C1DF
:100A90008A2D90E08F35910510F00C94080FFC0121
:100AA0008827EE58FF4F8F4F0C94B33E2115310528
:100AB00011F00C94760F4BA1442311F40C947E0F8B
:100AC0000C940A0FADE8BCE0AC92BCE1AB1631F07F
:100AD000EEE1AE1619F0FCE5AF128BC02115310521
:100AE00051F02A30310539F00C940C0F21E02BA382
:100AF00002C031E03BA36A0DADE8BCE06C9380E03E
:100B00007FC0BBA1B1110C940E0FE2E0EBA3A09249
:100B10008E0CF6E2AF126FC02431310559F02E3140
:100B2000310541F02832310529F02233310511F029
:100B30000C94100F262F372FADECBCEC0E94BB3E5F
:100B400096958795969587959695879586578093E0
:100B50008E0C81E055C06FEE6A0D6093920C82E0BE
:100B60004BC02115310531F466EA6A0D6093910C92
:100B700083E046C02A30310511F00C94120F2AE5AB
:100B8000A21611F40C94140F84E03AC08EE58A1971
:100B900080938F0C85E030C085E18A198093900C9A
:100BA00086E02AC04BA141110C94160F81E3A812D4
:100BB00006C01092930C88E093E09BA321C02A30DA
:100BC000310511F00C94180FA1E0A093930C88E06C
:100BD000B3E0BBA315C06AEC6A0D6093940C89E086
:100BE0000BC0232B11F00C941A0F8AE009C087E088
:100BF00003C080E001C081E0232B11F00C941C0F96
:100C0000F60102C0EE0FFF1F8A95E2F797012E232F
:100C10003F23232B11F00C941E0FEE2AFF2A30C124
:100C2000232B11F00C94200F8A2D90E08F31910529
:100C300010F00C94220FFC018827EF52FF4F8F4FCA
:100C40000C94B33EAA2021F0F1E0AF16E1F105C00B
:100C500023E02093950C8BE03BC0A092950C8BE099
:100C600037C034E0A31659F045E0A41669F083E0DC
:100C7000A8122BC080E18093970C8CE029C080E201
:100C80008093970C8CE024C01092970C8CE020C0CD
:100C900098E0A91669F0A9E0AA1689F0B7E0AB12AE
:100CA00016C08091960C80688093960C8DE010C0E1
:100CB0008091960C80648093960C8DE009C0109210
:100CC000960C8DE005C08BE003C08CE001C08DE088
:100CD000F60102C0EE0FFF1F8A95E2F797012E235F
:100CE0003F23232B11F00C94240FEE2AFF2AC8C0B7
:100CF000812F90E0FC01E654F109E531F10510F097
:100D00000C94260F8827E051FF4F8F4F0C94B33E71
:100D10004092990C50929A0C60929B0C70929C0C91
:100D200080E08DC040929D0C50929E0C60929F0C72
:100D30007092A00CFCA1F160FCA381E080C0409205
:100D4000A10C5092A20C6092A30C7092A40C2CA146
:100D500022602CA382E073C04092A50C5092A60C96
:100D60006092A70C7092A80C3CA134603CA383E075
:100D700066C0A092A90C84E062C0C301B2010E94C7
:100D800013406093AA0C7093AB0C8093AC0C9093BF
:100D9000AD0C85E054C04092AE0C5092AF0C609206
:100DA000B00C7092B10C86E04AC04092B20C5092E6
:100DB000B30C6092B40C7092B50C87E040C04092C6
:100DC000B60C5092B70C6092B80C7092B90C88E0D7
:100DD00036C020E030E04FE753E4C301B2010E9487
:100DE000A741181614F40C94280FA092BA0C89E0AD
:100DF00026C04092BB0C5092BC0C6092BD0C70920D
:100E0000BE0C4AA141604AA38AE019C04092BF0CBF
:100E10005092C00C6092C10C7092C20C8AA1826088
:100E20008AA38BE00CC04092C30C5092C40C609219
:100E3000C50C7092C60C9AA194609AA38CE05601DE
:100E4000082E02C0AA0CBB1C0A94E2F791012A21C9
:100E50003B21232B09F0FEC7D40102C0B595A7950D
:100E60008A95E2F7A0FF0AC020E030E0A901C301A3
:100E7000B2010E94A43F88230CF4EEC72A283B2825
:100E80008981E8A1F9A1E80FF11D10811111C1CDEF
:100E9000BAA1BB2329F0EBA1E11102C0F2E0FBA350
:100EA00025FE0EC08091AA0C9091AB0CA091AC0CC9
:100EB000B091AD0C81389649A849B1050CF0CEC768
:100EC0003DA13323E1F020FECBC78091900C81300F
:100ED00009F054C00DE81CE023E333E34BEC51E48C
:100EE000D8011C966D917D918D919C911F970E94C8
:100EF000E241F80164877587868797873FC08091B4
:100F00008F0C813061F4FBA1F230C1F580918E0C21
:100F10008035A1F1882391F120FEA4C72FC08091D4
:100F20004E0C81112BC020FE19C08091900C813095
:100F300029F50DE81CE023E333E34BEC51E4D80141
:100F40001C966D917D918D919C911F970E94E2411D
:100F5000F801648775878687978710C080915C0C3D
:100F600090915D0CA0915E0CB0915F0C8093990CF8
:100F700090939A0CA0939B0CB0939C0C30FC10C0E7
:100F80008091580C9091590CA0915A0CB0915B0C27
:100F90008093B60C9093B70CA093B80CB093B90C97
:100FA00080918D0C843021F426FE5EC7E89426F8EB
:100FB0008091920C882349F0813009F4A7C718AAC0
:100FC000F2E0FFA321E02EA3A6C78091900C813010
:100FD000A1F532E038AB41E04FA31EA20F2EFDE891
:100FE000AF2EFCE0BF2EF02D00E010E08AA1C82E4D
:100FF000D12CC601002E02C0959587950A94E2F780
:1010000080FF12C023E333E34BEC51E4D5019E96FD
:101010006D917D918D919C91D1970E94E241F50156
:1010200066A777A780AB91AB0F5F1F4FF4E0AF0EC1
:10103000B11C03301105E9F605C022E028AB31E010
:101040003FA31EA24BA1433041F48091930C813009
:1010500021F48AA1843009F009C78CE0E1E7FCE0C3
:10106000DE01169601900D928A95E1F7F1FE11C00E
:101070008091940C873008F0FBC69091530C89172F
:1010800041F0BE016A5F7F4F0E944C2C882309F417
:10109000F1C6B0908D0C9AE0B91629F0ACE5BA16FD
:1010A00009F49AC00EC1BAA1BB2309F4E5C6C10177
:1010B00080759927892B09F4E1C66091AE0C709177
:1010C000AF0C8091B00C9091B10C0E94B0420E9484
:1010D0001840673008F0D4C68091A90C843129F0FB
:1010E000823009F0CFC627FCCFC6EFEA2E22662356
:1010F00019F0615068A303C0F091940CF8A36DE956
:101100007CE088A10E944C2C882309F4BFC6209162
:10111000A90C28A74090890C50908A0C60908B0CE9
:1011200070908C0C0DE81CE00F2EFDE4CF2EFCE03F
:10113000DF2EF02DA12CB12C3AA1832E912CC401CD
:101140000A2C02C0959587950A94E2F780FF36C075
:1011500048A5443151F5D601D0962D913D914D9140
:101160005C91D39758966D917D918D919C915B97F1
:101170000E94CA3EF80126A537A540A951A90E94A0
:10118000CA3ED80150966D937D938D939C9353974F
:10119000B2E0AB1213C0A30192010E94CA3EF80153
:1011A000608B718B828B938B09C0F80186A597A504
:1011B000A0A9B1A9808B918BA28BB38BFFEFAF1A43
:1011C000BF0A0C5F1F4F24E0C20ED11C33E0A316F0
:1011D000B10409F0B4CFB1C64AA1442309F458C6FA
:1011E0000F2EFDE4AF2EFCE0BF2EF02D4E0186E069
:1011F000880E911C0DE81CE0C12CD12C642E712CA2
:10120000C3010C2C02C0959587950A94E2F780FFE4
:101210003CC0D4012D913D914D915C91F501608DC3
:10122000718D828D938D0E94CA3ED8019E962D911C
:101230003D914D915C91D1970E94CA3EF80166A7FD
:1012400077A780AB91ABF2E0CF1229C08601000FE7
:10125000111F000F111F0357134F2091890C30915C
:101260008A0C40918B0C50918C0C0E94CA3ED80184
:101270009E966D937D938D939C93D19710918E0C38
:10128000103509F407C618A2F8C0F50180A991A984
:10129000A2A9B3A9F80186A797A7A0ABB1ABFFEFAE
:1012A000CF1ADF0A24E0A20EB11C34E0830E911C99
:1012B0000C5F1F4F43E0C416D10409F0A1CF18A260
:1012C0003CC68BA1833009F490C09AA1992309F4FC
:1012D0008CC0A090910C0F2EFDE4CF2EFCE0DF2EF1
:1012E000F02D0DE81CE03E01A6E06A0E711C812C79
:1012F000912C492E512C99A288A2C201082C02C01F
:10130000959587950A94E2F780FD0BC0F601808DD4
:10131000918DA28DB38DF80186A797A7A0ABB1AB35
:1013200054C0F5E3BF1609F450C0A1103BC0D6016C
:10133000D0962D913D914D915C91D397F3016081B1
:101340007181828193810E94CB3ED8019E962D911E
:101350003D914D915C91D1970E94CB3E9B01AC0198
:10136000F80166A777A780AB91ABF2E08F122DC092
:1013700008A119A1000F111F000F111F0357134FD0
:101380006091890C70918A0C80918B0C90918C0CDF
:101390000E94CB3ED8019E966D937D938D939C9336
:1013A000D19723C0F601208D318D428D538DD80108
:1013B0009E966D917D918D919C91D1970E94CB3E8F
:1013C000F80166A777A780AB91ABFFEF8F1A9F0A52
:1013D00024E0C20ED11C0C5F1F4F34E0630E711C61
:1013E00043E08416910409F086CF8EE1B81631F0FF
:1013F00095E3B91699F1ACE1BA1235C0BCE1BB1264
:1014000009C06DE97CE086E00E944C2C882309F439
:1014100043C587C56DE97CE087E00E944C2C88239A
:1014200009F43CC57EC5A901082E02C05595479513
:101430000A94E2F740FD0AC058964D915D916D9176
:101440007C915B97408B518B628B738B01961496CA
:1014500034968330910539F718A26FC580918E0CB0
:10146000823008F01DC510918E0C103529F4EAA1C8
:10147000E11118C518A246C218A2FBA1F23009F06A
:1014800041C2111105C02AA121113CC21BA23AC2BE
:1014900020E030E0A9016091990C70919A0C809144
:1014A0009B0C90919C0C0E94A43F882309F4FCC4DF
:1014B0001C3809F40FC240F41230A1F01330A9F027
:1014C000113009F01FC209C01E3809F403C208F424
:1014D000FEC11F3809F4FBC115C23AA1311112C275
:1014E0001BA210C24DA144604DA38AA1882309F418
:1014F000DDC4BEA1AB2FB0E0BAABA9ABEFA1CE2E3D
:10150000D12C81E090E08C010EA002C0000F111FD1
:101510000A94E2F702C0880F991FEA95E2F7082BB8
:10152000192BFAA18F2F90E080239123892B09F4A6
:10153000BFC4FD01EE0FFF1FEE0FFF1FE357F34F78
:10154000AA0FBB1FAA0FBB1FAB59B34F2D913D91E3
:101550004D915C9166A577A580A991A90E94CA3E8C
:1015600068A779A78AA79BA7F601EE0FFF1FEE0FCA
:10157000FF1FE357F34FD601AA0FBB1FAA0FBB1FD4
:10158000AB59B34F2D913D914D915C9166A577A5D7
:1015900080A991A90E94CA3E6CA77DA78EA79FA78C
:1015A00027FEEAC0E89427F84CE050E06BEB7CE0C3
:1015B00085E69CE00E94CF42892B09F47BC4809190
:1015C000900C8130A1F40DE81CE023E333E34BECF5
:1015D00051E4D80195966D917D918D919C9198974C
:1015E0000E94E241F80165A376A387A390A78090AB
:1015F000B20C9090B30CA090B40CB090B50C20E05D
:1016000030E040E850E4C501B4010E94E241A50188
:1016100094010E94E2414B015C0128A539A54AA52D
:101620005BA5CA01B9010E94E2419B01AC01C50161
:10163000B4010E94CA3E4B015C012CA53DA54EA5FC
:101640005FA5CA01B9010E94E2419B01AC01C5013D
:10165000B4010E94CA3E4B015C0120E030E0A901C8
:101660000E94A43F88230CF427C4C501B4010E9442
:101670006F424B015C012CA53DA54EA55FA568A559
:1016800079A58AA59BA50E942C189B01AC01C501D8
:10169000B40190580E94AB3F4B015C0180918E0CCD
:1016A000833021F4B7FAB094B7F8B0944090B20CFC
:1016B0005090B30C6090B40C7090B50C20E030E00A
:1016C000A901C301B2010E94A43F882384F4B7FAA0
:1016D000B094B7F8B09477FA709477F87094409219
:1016E000B20C5092B30C6092B40C7092B50C09A974
:1016F0001AA9000F111F000F111F0356134F2CA51D
:101700003DA54EA55FA5C501B4010E94E2419B0124
:10171000AC0168A579A58AA59BA50E94CA3E20E0D8
:1017200030E040E05FE30E94E241D8016D937D9399
:101730008D939C9313978601000F111F000F111FAB
:101740000356134F28A539A54AA55BA5C501B401C9
:101750000E94E2412CA53DA54EA55FA50E94CB3E6F
:1017600020E030E040E05FE30E94E241F801608366
:10177000718382839383C6C0FCA18F2E912C082194
:101780001921012B09F49AC321EF22228091900C98
:10179000813041F50DE81CE0A12CB12CC4010A2CCC
:1017A00002C0959587950A94E2F780FF12C023E363
:1017B00033E34BEC51E4D80150966D917D918D91BE
:1017C0009C9153970E94E241F801608B718B828B50
:1017D000938BFFEFAF1ABF0A0C5F1F4F23E0A216D7
:1017E000B104E1F6C601880F991F880F991FDC012B
:1017F000A356B34F6D012D913D914D915C916CA518
:101800007DA58EA59FA50E94CA3E4B015C0109A93A
:101810001AA9000F111F000F111F0356134FF801D3
:10182000208131814281538168A579A58AA59BA534
:101830000E94CA3EA50194010E942C184B015C0134
:10184000D6012D913D914D915C91F801608171819E
:10185000828193810E942C182B013C016093B20C71
:101860007093B30C8093B40C9093B50C9B01AC01B6
:10187000C501B4010E94CA3E4B015C01E894B7F86F
:101880002AE037ED43EA5BE3C501B4010E94A741BA
:101890001816C4F520E030E040E05FE3C501B40174
:1018A0000E94A74118160CF40BC32FE632E143E85F
:1018B0005AE3C301B2010E94E2419B01AC01C501A0
:1018C000B4010E94A74118160CF4FCC21BC0FDA174
:1018D000F061FDA31E58123018F42DA128602DA32D
:1018E0003AA1332309F4F0C24CE050E06BEB7CE00A
:1018F00085E69CE00E94CF42892B09F4E7C202C032
:1019000018A21BA24DA14170D42E8DA180FF03C04F
:10191000C1018E7D03C0C1018E7D9C7FABA1A11151
:10192000937E892B09F0D4C2FE0172968EE0DF010E
:101930001D928A95E9F7DD2061F1B6EBEB22EF28E5
:1019400009F0C8C280918D0C853311F08111C4C299
:10195000EDE4FCE083859485A585B6858E8B9F8B11
:10196000A88FB98F91858085892B90E09F8F8E8F6E
:101970006DE87CE0CE01429616D38111FBC29CE05B
:10198000EBEBFCE0A5E6BCE001900D929A95E1F747
:10199000F1C28091480F81FF26C080918E0C81504A
:1019A000833018F0EDA1E064EDA3FAA1FF2339F034
:1019B0002BA1223021F43DA130683DA314C08091B9
:1019C000560C803181F480914D0C8150833030F47D
:1019D0004DA146FF08C040624DA305C08DA186FD04
:1019E00002C080628DA3ADE8BCE05D964D915D9133
:1019F0006D917C919097EDE4FCE0448B558B668B68
:101A0000778B4A8F5B8F6C8F7D8F12968C91818341
:101A1000882321F088E090E09F8F8E8FADE8BCE0B6
:101A20001C964D915D916D917C911F97EDE4FCE0CA
:101A30004787508B618B728B4A8B5B8B6C8B7D8B5A
:101A400099968D909D90AD90BC909C97A501940126
:101A500063857485858596850E94A43F811103C0A6
:101A60009DA195FF23C08091560C882379F0ADA1EC
:101A7000AA2364F0A6FF06C040E050E0BA010E942D
:101A8000942F04C0B501A4010E94942F8091B60C3C
:101A90009091B70CA091B80CB091B90C8093580CF0
:101AA0009093590CA0935A0CB0935B0CBDA1B6FD5A
:101AB0000CC08091580C9091590CA0915A0CB09187
:101AC0005B0C8E8B9F8BA88FB98FEDE4FCE0ADE8AB
:101AD000BCE09D968C919D97838B1A968C919185F5
:101AE000981751F04E895F89688D798D0E94942FE7
:101AF0008091970C8093560CEDE4FCE021858E8D4F
:101B00009F8D822B9F8F8E8F8091960C908598173A
:101B100031F00E94E4038091960C8093550C209143
:101B2000550C8E8D9F8D822B9F8F8E8F80918D0C6B
:101B3000843051F46091AE0C7091AF0C8091B00C78
:101B40009091B10C0E945E16EDE4FCE0ADE8BCE0C3
:101B500015968C911597848313968C918283EBA1B3
:101B6000E33071F58091930C8093520C811108C081
:101B70001092C30C1092C40C1092C50C1092C60C9B
:101B80008090C30C9090C40CA090C50CB090C60C73
:101B9000A50194016091890C70918A0C80918B0C45
:101BA00090918C0C0E94A43F882351F08092890C64
:101BB00090928A0CA0928B0CB0928C0C0E94733B7A
:101BC0008091940C9091530C981769F08093530C6A
:101BD0008CE0FE013696A1E7BCE001900D928A955B
:101BE000E1F70E94733BEDE8FCE084818093500CA8
:101BF0008081863209F446C038F48C3129F18E3167
:101C000019F18A3059F05FC08C3509F447C0863627
:101C100009F450C0883209F056C03AC06DE97CE042
:101C200088A10E949F2B8091530CF8A18F134BC069
:101C30008CE0EDE9FCE0A1E7BCE001900D928A9513
:101C4000E1F70E94733B3FC08E8D9F8D81609F8F17
:101C50008E8F2BA1222331F0BE016E5E7F4F8BEB66
:101C60009CE001D5BE016E5E7F4F8DE99CE0FBD408
:101C70008CE0EDE9FCE0A5E6BCE001900D928A95D0
:101C8000E1F721C065E67CE086E00E949F2B1BC047
:101C900065E67CE087E00E949F2B15C08CE0EBEBB3
:101CA000FCE0ADE7BCE001900D928A95E1F70E945F
:101CB000733B09C08CE0EDE7FCE0DF011D928A95E3
:101CC000E9F70E94733B80918E0C80934D0C803518
:101CD00009F456C0BBA1B23009F052C0813039F4CA
:101CE000BE016E5E7F4F8BEB9CE0BDD43BC081118B
:101CF0000CC08E8D9F8D81609F8F8E8FBE016E5E1A
:101D00007F4F8BEB9CE0AFD42DC082508230E0F44B
:101D1000E090B20CF090B30C0091B40C1091B50CA3
:101D2000EDA1E2FB882780F98F9388A8AFA0CEA011
:101D30002DE93CE045E65CE0BE016E5E7F4F8BEB3B
:101D40009CE0D9D40F900EC08E8D9F8D84609F8FA4
:101D50008E8F4DA1BE016E5E7F4F8BEB9CE0D4D782
:101D600081110AC08CE0EBEBFCE0A5E6BCE0019041
:101D70000D928A95E1F704C0813011F40E94B504F8
:101D80008091950C8093540C882309F4F3C00E9431
:101D900028258091540C833051F48091C80C8230F6
:101DA00079F188E00E94113C0E945E2329C0EDE495
:101DB000FCE081E0808314821382118216821186F6
:101DC0001086E8ECFCE084E6878380878187808149
:101DD000823099F061E77CE080E00E944C2C8823FF
:101DE00009F47CC00E94733B40E050E0BA0180E0FF
:101DF0000E946A2F80E00E94C30388E00E949E2513
:101E00001092540C8D2DB6C081E0B4C082E0B2C0F7
:101E100084E1B0C088E1AEC084E1ACC088E1AAC072
:101E200084E1A8C084E1A6C084E1A4C088E1A2C086
:101E300084E1A0C084E19EC087E19CC085E19AC096
:101E400087E198C084E196C085E194C084E192C0A6
:101E500086E290C089E18EC084E08CC08BE18AC0AC
:101E600086E188C086E186C08CE184C085E282C0BC
:101E70008DE180C087E07EC08AE17CC08CE17AC0C1
:101E80008DE178C084E176C084E174C087E072C0DF
:101E90008AE170C08FE16EC087E06CC087E06AC0E5
:101EA0008EE168C08FE166C086E164C08AE162C0ED
:101EB00080E260C081E25EC082E25CC083E25AC020
:101EC00081E258C081E256C08AE154C081E252C02A
:101ED00084E250C080E14EC080E14CC087E04AC03F
:101EE0008FE148C019821DA20C94F604ADE8BCE055
:101EF000AC92BCE1AB1227C00C947105EDE8FCE09C
:101F0000A082FCE1AF1225C00C94760521E028AB3D
:101F10001FA232E03EA38091900C813009F092C85C
:101F20005DC84AA14423F1F0ADE4BCE0EDE8FCE07B
:101F300080E090E0242F30E076CA10918E0C1035AE
:101F400009F09BCACDCF8EE1A8120C946B050C94BE
:101F500071059EE1A91611F40C947905A1E0ABA3DB
:101F60000C946B0510918E0C103509F4C9CC18A295
:101F70001BA283CAE2960FB6F894DEBF0FBECDBF98
:101F8000DF91CF911F910F91FF90EF90DF90CF9055
:101F9000BF90AF909F908F907F906F905F904F9089
:101FA0003F902F9008950F931F93CF93DF93EC01F1
:101FB0008B01FB0184859585A685B78588839983E8
:101FC000AA83BB838C859D8584609D878C87858D46
:101FD000968DA78DB0A188879987AA87BB878091A6
:101FE000480F85FF06C0CB018E960E94AC3B811145
:101FF00014C0BE01C8018E9636D3C091C80CC11161
:102000000EC00E94C31A892B59F080E28093C80C3D
:102010000E94B0320E94AC2F03C0CFE001C0C0E0EC
:102020008C2FDF91CF911F910F910895EBE6F0E097
:1020300080818F788083E8E6F0E080818E7F8083E6
:10204000089584B18F7884B985B1806785B980910E
:10205000480F83FF0BC0EBE6F0E080818067808350
:10206000E8E6F0E08081816080830895DFCF089505
:10207000EF92FF920F931F93CF93DF9313B11077DB
:102080008091480F86FD1BC080E7182718C0C0E06C
:10209000D0E000E0EE24E394F12C8C2F0E94342E4B
:1020A000812341F0C7010C2E02C0880F991F0A94AA
:1020B000E2F7082B2196C330D10579F703C011113F
:1020C000E6CF00E0802FDF91CF911F910F91FF901D
:1020D000EF9008951F920F920FB60F9211240BB636
:1020E0000F922F933F934F935F936F937F938F93B1
:1020F0009F93AF93BF93EF93FF938091C80C813070
:1021000041F08091F40C811104C074D681E00E94EA
:10211000673EFF91EF91BF91AF919F918F917F911A
:102120006F915F914F913F912F910F900BBE0F9048
:102130000FBE0F901F9018952F923F924F925F9273
:102140006F927F928F929F92AF92BF92CF92DF92C7
:10215000EF92FF920F931F93CF93DF93CDB7DEB72C
:10216000AA970FB6F894DEBF0FBECDBF9091C90CF1
:102170009111E3C188A7FE0131968EE0DF011D9227
:102180008A95E9F786E090E09E878D87E7EFFEE08D
:10219000FDA3ECA37F019E01215F3F4F590100E0A9
:1021A00010E0412C512C320138A5C32ED12C802FA8
:1021B0000E94202ED5018D935D01DF8ECE8EC6014B
:1021C000002E02C0959587950A94E2F780FF19C00A
:1021D00020E030E040EC5FEBF70160A971A982A933
:1021E00093A90E94E241862E972E282E392EA30114
:1021F00092010E94A43F882324F0482C592C622C81
:10220000732C0F5F1F4FF4E0EF0EF11C033011052C
:1022100071F62E8C3F8C80914E0F90914F0FA091B4
:10222000500FB091510F88A399A3AAA3BBA394E028
:102230009E8F01E00F2EF8ECCF2EFCE0DF2EF02D6C
:1022400068EE7CE0CE0142960E94923BA9E4BFE09A
:10225000EC90F12CAE014E5E5F4FE8EEFCE0FFA388
:10226000EEA3DE011F9680E090E060E010E05301F5
:102270004201B7FAB094B7F8B094BAA7A9A79101F0
:10228000082E02C0359527950A94E2F720FF31C049
:102290006F5F10821182128213829701082E02C092
:1022A000359527950A94E2F720FF10C0002339F0F6
:1022B000DA018D929D92AD92BC92139716C0DA010D
:1022C0004D925D926D927C9213970FC0002339F06E
:1022D000DA014D925D926D927C92139706C0DA01FD
:1022E0008D929D92AD92BC921397A9A5BAA52C91FF
:1022F000122B019629A53AA52F5F3F4F3AA729A790
:102300004C5F5F4F34968330910509F0B8CF462E6D
:10231000512C612C712CC301B2010E9444400E94D7
:102320006F429B01AC01D60116961C9368A179A15E
:102330008AA19BA10E94E24169837A838B839C835B
:10234000BE016F5F7F4FCE0142960E942A1C24E09F
:10235000F60124830E94B0320E94AC2F0023F1F0DA
:1023600087DEFE013F9620E030E0682F70E081912B
:10237000982F912359F0AB01022E02C05595479535
:102380000A94E2F740FF02C0809518232F5F3F4F69
:102390002330310561F7D60116961C930E94B032A6
:1023A0008091DA0C847329F11091DA0C14FF03C0C8
:1023B00086E00E94673E15FF03C087E00E94673EEB
:1023C0000111B8C055DEB8A58B2339F088E00E9412
:1023D000673E03C089E00E94673E8091F40C882329
:1023E00021F008D50E945E23A8C084E00E945D3ED3
:1023F00004C0812F8C7109F0B1CF0E943D32E2E51B
:10240000FFE0808191811DD6F1E00F27D1F020E01F
:1024100030E040EA50E4A4E5BFE06D917D918D91FC
:102420009C910E94E2412B013C01AAE4BFE08D9106
:102430009D910D90BC91A02D88A399A3AAA3BBA3A5
:1024400011C0E4E5FFE04080518062807380AEE41B
:10245000BFE08D919D910D90BC91A02D88A399A373
:10246000AAA3BBA3BE8DB150BE8FB111E9CEE0903F
:10247000490FF12C8090540F9090550FA090560F5B
:10248000B090570F2401350177FA709477F8709463
:1024900000E010E0CEA0DFA0C101002E02C09595A3
:1024A00087950A94E2F780FF34C0C701002E02C06E
:1024B000959587950A94E2F780FF15C0ECA1FDA1E0
:1024C00020A931A942A953A9C501B4010E94CB3E5C
:1024D000ACA1BDA12D913D914D915C910E94E24135
:1024E0000E94B2410CC0ECA1FDA12081318142814A
:1024F0005381C301B2010E94E2410E94B241D60160
:102500006C9311967C93119712968C931297139655
:102510009C930F5F1F4FB4E0CB0ED11CECA1FDA12B
:102520003496FDA3ECA30330110509F0B5CF10924A
:10253000CC0C03C012FF51CF4DCFAA960FB6F89422
:10254000DEBF0FBECDBFDF91CF911F910F91FF90E6
:10255000EF90DF90CF90BF90AF909F908F907F9043
:102560006F905F904F903F902F900895CF93DF939F
:102570000E94AC3B8823C9F0E8ECFCE081E0838357
:102580008081883061F40E94113CC8ECDCE00E943C
:102590005E238981811109C088818111F8CF2AD4F5
:1025A00082E00E94673E0E945E23DF91CF910895F2
:1025B0000E945F2A0E94152E0E946E320E94DE3A0F
:1025C0008CE0E8EEFCE0DF011D928A95E9F7789453
:1025D0001092C80C8091480F84FF03C081E0809363
:1025E000C80CC8ECDCE00F2EF1E1DF2EF02D14E674
:1025F0000F2EFCEDEF2EFCE0FF2EF02D0CE088817D
:10260000FE019D2D11929A95E9F788831F83188703
:102610001987D701E02F1D92EA95E9F71092DB0C9C
:102620001092DA0C1092F40C1092C70C1092D90C84
:102630000E947B2B0E94A3040E947E2E0E94B9035D
:1026400000DD0E9469210E943E2E77D70E943D3214
:102650000E94AB020E94911F0E94B5040E94DE25D9
:102660000E947C24CCCFEF92FF920F931F93CF93C5
:10267000DF937C018B018091480F85FF06C080911C
:10268000C80C803231F0C70171DF8091C80C8230F4
:1026900059F1F8018485958590FD04C0B801C70102
:1026A0000E94BA02C8ECDCE00E945E23898181119D
:1026B0001BC092D7882319F00E949121F5CFB80151
:1026C000C7010E942A1C81110FC08091480F81FF11
:1026D0000BC0F801848584FF07C044815581668161
:1026E000778180E10E94942FDF91CF911F910F910C
:1026F000FF90EF9008952F923F924F925F926F92CA
:102700007F928F929F92AF92BF92CF92DF92EF9281
:10271000FF920F931F93CF93DF93CDB7DEB7E2976E
:102720000FB6F894DEBF0FBECDBF9AAB89AB788BE6
:102730006F875E874D873901ED82FE820F83188790
:10274000898AD12CCC0CDD1CCC0CDD1CCA018C0D73
:102750009D1D9E8B8D8BD901AC0DBD1DBEA7ADA758
:102760002D903D904D905C90FC0120813181428103
:102770005381C201B1010E94CB3E6F8B788F898F4C
:102780009A8F0A2D10E0000F111F000F111F8D8569
:102790009E85800F911F9C8F8B8FD301A00FB11F3F
:1027A000B8ABAFA78D909D90AD90BC90FC012081FF
:1027B000318142815381C501B4010E94CB3E6D8FAE
:1027C0007E8F8F8F98A3D201C101B05889839A83DD
:1027D000AB83BC83D501C401B05889879A87AB8786
:1027E000BC87E9A9FAA9EC0DFD1D2F89388D498D0B
:1027F0005A8D60817181828193810E94CA3E6B01F2
:102800007C01E9A9FAA9E00FF11F2D8D3E8D4F8DB6
:1028100058A160817181828193810E94CA3E4B01DF
:102820005C01A701960169817A818B819C810E945C
:10283000E2412B013C01A501940169857A858B85D4
:102840009C850E94E2419B01AC01C301B2010E9440
:10285000CB3E2B013C01A501940169817A818B81DA
:102860009C810E94E2414B015C01A70196016985B0
:102870007A858B859C850E94E2419B01AC01C50154
:10288000B4010E94CA3EA30192010E943E3F4B0147
:102890005C0129968FAD29978823A9F02DEB37E3AA
:1028A00046E055EBC501B4010E94A7418823FCF026
:1028B0002BED3FE049EC50E4C501B4010E94CA3E53
:1028C0004B015C0114C02DEB37E346E055E3C50135
:1028D000B4010E94A43F181654F02BED3FE049ECE0
:1028E00050E4C501B4010E94CB3E4B015C01C09095
:1028F0003C0FD0903D0FE0903E0FF0903F0F2D81A8
:102900003E814F815885CA01B9010E94CB3E2B01FF
:102910003C01A7019601C301B2010E94CA3EA70172
:1029200096010E94E2410E946F426B017C0120E00F
:1029300030E040E05FE3C501B4010E94E2412D8137
:102940003E814F8158850E94E2419F77A701960101
:102950000E94AB3F0E9481400E9418406B017C01A5
:102960003B016115710509F48BC1AF85B8891C96CF
:102970000D911C911D9703FF1AC080E090E00E940A
:1029800044409B01AC01EF85F889608171818281AF
:1029900093810E94E241AF85B8896D937D938D93B9
:1029A0009C931397077F1D961C930E931C97B6015B
:1029B00080E090E00E9444406B017C019B01AC01EF
:1029C000C501B4010E94AB3F69A77AA78BA79CA75A
:1029D000B9898B2E912C880C991C880C991C4D84DC
:1029E0005E84480C591CE9A9FAA9E80DF91DD20129
:1029F0002D913D914D915C91608171818281938196
:102A00000E94CA3EA70196010E94AB3F698B7A8B58
:102A10008B8B9C8B29A53AA54BA55CA5CA01B90156
:102A20000E94E2419B01AC0160E070E080E090E434
:102A30000E94CA3E6B017C012BEA3AEA4AE25EE35D
:102A400069A57AA58BA59CA50E94E2414B015C017A
:102A500020E030E040E850E4C701B6010E94CB3EE0
:102A60009B01AC01C501B4010E94E24169A37AA3B4
:102A70008BA39CA320E030E040E05FE3C701B601F8
:102A80000E94E2416DA37EA38FA398A7B2E06B16CC
:102A9000710408F4F5C010E022242394312CC98479
:102AA000DA84EB84FC841C3008F044C0A701960152
:102AB0006DA17EA18FA198A50E94E2414B015C010E
:102AC00029813A814B815C8169A17AA18BA19CA16A
:102AD0000E94E241A50194010E94CB3E962EA72EB2
:102AE000B82E092F29813A814B815C816DA17EA18D
:102AF0008FA198A50E94E24169837A838B839C838E
:102B0000A701960169A17AA18BA19CA10E94E24133
:102B10009B01AC0169817A818B819C810E94CA3EB4
:102B200069837A838B839C831F5FC92CDA2CEB2CFF
:102B3000F02E66C0B10180E090E00E94444029A5DB
:102B40003AA54BA55CA50E94E2416B017C010E9465
:102B5000A83F6D837E838F839887C701B6010E944B
:102B6000654269877A878B879C87EDA5FEA5C08023
:102B7000D180E280F380F7FAF094F7F8F094AFA5F3
:102B8000B8A98D909D90AD90BC90A70196016D81E4
:102B90007E818F8198850E94E24169837A838B834D
:102BA0009C83A501940169857A858B859C850E940B
:102BB000E2419B01AC0169817A818B819C810E94F9
:102BC000CB3E69837A838B839C83A70196016985B9
:102BD0007A858B859C850E94E2416B017C01A50171
:102BE00094016D817E818F8198850E94E2419B01D5
:102BF000AC01C701B6010E94CA3E6B017C0110E026
:102C00002F89388D498D5A8D69817A818B819C817C
:102C10000E94CB3EED89FE8960837183828393831A
:102C20002D8D3E8D4F8D58A1C701B6010E94CB3E20
:102C3000AB8DBC8D6D937D938D939C931397298958
:102C40003A894B895C89F20160817181828193812B
:102C50000E94CB3ED2016D937D938D939C931397ED
:102C60006F8578898D859E85FEDC8091C90C8111E8
:102C70000CC0BFEF2B1A3B0A6214730409F013CF88
:102C80006F85788989A99AA9EEDCE2960FB6F89447
:102C9000DEBF0FBECDBFDF91CF911F910F91FF908F
:102CA000EF90DF90CF90BF90AF909F908F907F90EC
:102CB0006F905F904F903F902F900895CF92DF924A
:102CC000EF92FF922091C80C223041F06B017C0101
:102CD0000E94282540E0C701B60176D1FF90EF9011
:102CE000DF90CF900895A2D984E026DA83E024DA39
:102CF0000E945E238091C90C811105C00E94B50419
:102D00000E94911F9EC90895DF92EF92FF920F9348
:102D10001F93CF93DF932091C80C223009F45DC03C
:102D2000D42E7B018C010E9428258091C90C811131
:102D300056C01092CD0CD3FA882780F90E945821F2
:102D40000E947621882351F084E00E94673E0E9411
:102D50005E2380E00E94582182E044C0B701C80190
:102D600082DC81E08093DB0C82E00E94113CC8ECA5
:102D7000DCE00E945E238981811133C0888181114A
:102D8000F8CF8091DB0C813081F4D4FE0AC08CE056
:102D9000E8EEFCE0ACEDBCE001900D928A95E1F725
:102DA00007C085E00E94673E03C081E08093CD0CA0
:102DB0001092DB0C80E00E9458210E945E230E944A
:102DC0003D32BBD30E94911F0E94F82681E0909172
:102DD000CD0C911107C080E005C080E003C082E007
:102DE00001C082E0DF91CF911F910F91FF90EF9092
:102DF000DF9008958091DA0C84FD1FC080E10E946D
:102E0000113C0E94732E0E94B0038091C80C982F31
:102E10009C7221F49091CC0C967079F0843041F43E
:102E20008091F40C811107C086E00E94673E03C0C8
:102E300083E00E94673E0C94C42F08954F925F92E6
:102E40006F927F928F929F92AF92BF92CF92DF92BA
:102E5000EF92FF920F931F93CF93DF93DC01FB015F
:102E6000C081D0E0FC01EC0FFD1F90819D3229F460
:102E7000EF012296918101E00BC09B3229F021964F
:102E8000CA0FDB1F00E004C0EF012296918100E031
:102E900080E020E010E0412C512C320131E0FE01B5
:102EA00090539A3010F52F5F2930D8F481111150CA
:102EB00053014201880C991CAA1CBB1C880C991C4C
:102EC000AA1CBB1C840C951CA61CB71C880C991C46
:102ED000AA1CBB1C24013501490E511C611C711C2C
:102EE00009C0811107C01F5F05C09E3F31F48111E9
:102EF00004C0832F90812196D2CF222309F452C09F
:102F00006A017B015D01C301B2010E9444402B01B3
:102F10003C0120E030E0A9010E94A43F882351F148
:102F20001F3F6CF42AE037ED43E25CE3C301B201DA
:102F30000E94E2412B013C011E5F1F3F9CF31123C5
:102F40005CF42DEC3CEC4CEC5DE3C301B2010E945F
:102F5000E2412B013C010EC0111664F420E030E088
:102F600040E251E4C301B2010E94E2412B013C0165
:102F70001150A1F7002351F077FA709477F870940C
:102F8000F601408251826282738205C0F60140825E
:102F9000518262827382CA19DB09C150F701C08372
:102FA00081E001C080E0DF91CF911F910F91FF90F0
:102FB000EF90DF90CF90BF90AF909F908F907F90D9
:102FC0006F905F904F900895FF920F931F93CF9350
:102FD000DF93F42E20E030E040EA51E40E94E24129
:102FE0000E94913F0E9418406115710521F12091C6
:102FF000C90C211120C0EB0108EC1CE005C0219791
:10300000F8018181811117C0F11003C00E945E2375
:1030100006C00E949821F801828181FD0CC0FFEF5B
:1030200020E782E0F15020408040E1F700C000003E
:10303000C130D10521F7DF91CF911F910F91FF9002
:103040000895009741F0EFE9FFE03197F1F700C0F4
:1030500000000197C1F708954F925F926F927F929F
:103060008F929F92AF92BF92CF92DF92EF92FF9298
:103070004B015C0169017A01A5019401C501B4010C
:103080000E94E2414B015C01A7019601C701B60114
:103090000E94E2419B01AC01C501B4010E94CB3EFC
:1030A0000E946F42FF90EF90DF90CF90BF90AF9063
:1030B0009F908F907F906F905F904F9008954F9268
:1030C0005F926F927F92AF92BF92CF92DF92EF9218
:1030D000FF920F931F93CF93DF93EC015C018CE081
:1030E000A80EB11C8E01412C512C3201F801C19067
:1030F000D190E190F1908F0120E030E0A901C7016B
:10310000B6010E94A43F882371F0A7019601C70170
:10311000B6010E94E2419B01AC01C301B2010E94D1
:10312000CB3E2B013C010A151B0501F7C301B2017F
:103130000E946F422B013C019B01AC0160E070E0FA
:1031400080E89FE30E94AB3F6B017C01A7019601E1
:10315000688179818A819B810E94E2416993799398
:1031600089939993CA15DB0589F7C301B201DF91F1
:10317000CF911F910F91FF90EF90DF90CF90BF9074
:10318000AF907F906F905F904F9008956F927F9275
:103190008F929F92AF92BF92CF92DF92EF92FF9267
:1031A0000F931F93CF93DF93EB018C017B018CE096
:1031B000E80EF11C0F2EF9E97F2EF02D0F2EF6E709
:1031C000CF2EF02D0F2EF6E9DF2EF02D0F2EFEE77D
:1031D0006F2EF02D89909990A990B99020E030E061
:1031E000A901C501B4010E94A43F8823D9F0A5011B
:1031F0009401F80160817181828193810E94AB3FCB
:103200004B015C01E894B7F8272D3C2D4D2D562D30
:10321000C501B4010E94A741181624F0782CC92CCE
:10322000DA2C6B2C0C5F1F4FCE15DF0599F6672D3E
:103230007C2D8D2D962DDF91CF911F910F91FF90B9
:10324000EF90DF90CF90BF90AF909F908F907F9046
:103250006F9008952F923F924F925F926F927F925C
:103260008F929F92AF92BF92CF92DF92EF92FF9296
:103270000F931F93CF93DF93C0911E02C11101C022
:10328000C4E2C150D0911C02DC1709F436C10C2FE6
:1032900010E027E3C29FC0011124FC01E05EFD4F56
:1032A0006F01E28CF38C948C858C668D778D80A178
:1032B00091A19B01AC010E94CB3EF60122A133A15A
:1032C00044A155A10E94E241A62EB72EC82ED92EA8
:1032D000262F372F482F592F6E2D7F2D892D982D72
:1032E0000E94A43F882324F0EA2CFB2C9C2C8D2CDC
:1032F00087E3809FF001819FF00D1124E05EFD4F78
:103300008E2D9F2DA92DB82D868B978BA08FB18FD9
:10331000C11101C0C4E2C150DC1307C080911F027B
:10332000D8137CC00E94903279C027E3209FC0014F
:10333000219F900D11249C01205E3D4F6901D7E330
:10334000EC2EF12CDE9D8001DF9D100D1124005E1E
:103350001D4FC11101C0C4E2C15080911F028C13E6
:1033600002C00E949032DE9DF001DF9DF00D11241D
:10337000E05EFD4F428C538C648C758CA3019201EE
:1033800066897789808D918D0E94A43F882309F4F6
:1033900040C0DE9DC001DF9D900D1124FC01E05E68
:1033A000FD4F5F01668D778D80A191A19B01AC01DE
:1033B0000E94CB3EF50122A133A144A155A10E9458
:1033C000E241F60126893789408D518D0E94CB3E1E
:1033D0004B015C019B01AC01C301B2010E94A741FA
:1033E000181664F4DE9DF001DF9DF00D1124E05EFF
:1033F000FD4F868A978AA08EB18E0BC0DE9DF001AC
:10340000DF9DF00D1124E05EFD4F468A578A608EE5
:10341000718E680180911C028C1392CF20901C0247
:10342000F7E32F9EC00111249C01205E3D4F7901DE
:10343000C1E0C20DC43209F4C0E030901E02D7E3EF
:1034400058C0CC2ED12CDC9D8001DD9D100D1124A7
:10345000005E1D4FF70146885788608C718CF8011B
:1034600086889788A08CB18CA5019401C301B20114
:103470000E94A43F882324F5F701668D778D80A1F3
:1034800091A19B01AC010E94CB3EF70122A133A187
:1034900044A155A10E94E241A30192010E94CB3EAA
:1034A0002B013C019B01AC01C501B4010E94A74165
:1034B000181634F4F801468A578A608E718E2C2EC5
:1034C000DC9DF001DD9DF00D1124E05EFD4F228DAD
:1034D000338D448D558D66897789808D918D0E94BD
:1034E000A43F811101C02C2ECF5FC43209F4C0E08B
:1034F0007801C311A6CF20921C02DF91CF911F91BA
:103500000F91FF90EF90DF90CF90BF90AF909F9082
:103510008F907F906F905F904F903F902F90089585
:1035200080E092E0089510921F0210921E0281E046
:1035300080931D0210921C0208958CE1E0E0F2E0FD
:10354000DF011D928A95E9F7EECF089580911F0261
:1035500090911E02981769F091E0980F943209F447
:1035600090E020911C02821302C090931C02909361
:103570001F02089580911E0227E3829FC00111243B
:10358000805E9D4F089580911F0290911E029817B2
:1035900039F027E3829FC0011124805E9D4F08957A
:1035A00080E090E00895E0911F02EF5FE43209F4BB
:1035B000E0E080911E028E1759F087E3E89FF0014A
:1035C0001124E05EFD4F66897789808D918D089585
:1035D00060E070E0CB01089581E020911F0290919E
:1035E0001D02291380E00895AF92BF92CF92DF921F
:1035F000EF92FF920F931F93CF93DF93EC011EA5E1
:10360000AFA4E8A809A9898980FF1AC06091D00CED
:1036100070E080E090E00E9446402AE037ED43E20F
:103620005CE30E94E2419B01AC01612F7A2D8E2D5B
:10363000902F0E94E241162FA72EE82E092F2FC0AF
:1036400082FD19C06091CF0C70E080E090E00E9494
:1036500046402AE037ED43E25CE30E94E2419B01F1
:10366000AC01612F7A2D8E2D902F0E94E241162FF2
:10367000A72EE82E092FBAA4CBA4DCA4FDA42B2DE1
:103680003C2D4D2D5F2D612F7A2D8E2D902F0E9478
:10369000A741181624F41B2DAC2CED2C0F2D20E087
:1036A00030E040E85FE3612F7A2D8E2D902F0E944D
:1036B000A74118161CF4DA2DCE2D04C010E0D0E07E
:1036C000C0E80FE3612F7D2F8C2F902FDF91CF91DA
:1036D0001F910F91FF90EF90DF90CF90BF90AF9030
:1036E00008955F926F927F928F929F92AF92BF9256
:1036F000CF92DF92EF92FF920F931F93CF93DF93BE
:1037000010911F0250901E020F2EF9E99F2EF02DEE
:103710000F2EF6E78F2EF02D0F2EF6E97F2EF02DCF
:103720000F2EFEE76F2EF02D0F2EF7E3CF2EF02D8C
:1037300073C0C12FD0E0CC9EC001CD9E900D11244E
:10374000805E9D4F51DF062FF72EE82ED92E262FB3
:10375000372F482F592F692D782D872D962D0E94B0
:10376000A43F8823CCF4CC9EC001CD9E900D1124A3
:103770009C01205E3D4F5901292D382D472D562D96
:10378000692D782D872D962D0E94E241F501628FDB
:10379000738F848F958F18C0CC9EC001CD9E900DE5
:1037A00011249C01205E3D4F5901202F3F2D4E2DAD
:1037B0005D2D602F7F2D8E2D9D2D0E94E241F50104
:1037C000628F738F848F958FCC9EF001CD9EF00D0C
:1037D0001124E05EFD4F86A097A0A0A4B1A4A5018E
:1037E0009401628D738D848D958D0E94A74118166A
:1037F0005CF4CC9EF001CD9EF00D1124E05EFD4FF7
:10380000828E938EA48EB58E1F5F143209F410E061
:10381000902E8F2C7E2C6D2C15118BCF892D982DF1
:10382000A72DB62D8093180290931902A0931A0227
:10383000B0931B02DF91CF911F910F91FF90EF90FA
:10384000DF90CF90BF90AF909F908F907F906F90C0
:103850005F9008952F923F924F925F926F927F9266
:103860008F929F92AF92BF92CF92DF92EF92FF9290
:103870000F931F93CF93DF93CDB7DEB7CA54D1090F
:103880000FB6F894DEBF0FBECDBF25967FAF6EAFEB
:10389000259720911E02222E312C37E3329DA00164
:1038A000339D500D1124BA01605E7D4F27967FAF86
:1038B0006EAF2797DB011D923A95E9F72596EEAD9D
:1038C000FFAD25973485DB0151963C9344815581AA
:1038D000668177812796EEADFFAD279742AB53AB5C
:1038E00064AB75AB2596AEADBFAD259718964D91DF
:1038F0005D916D917C911B97428B538B648B758B83
:103900001C964D915C911D9750FF0AC047E3429D64
:10391000F001439DF00D1124E05EFD4F41E046AB08
:10392000FE013D964CE0DF011D924A95E9F731FF1B
:103930000AC03CE0E8EEFCE0DE011D9601900D922D
:103940003A95E1F797C237E3329DF001339DF00DD0
:103950001124E05EFD4F36A931118CC23CE0E0E05D
:10396000F2E0DE011D9601900D923A95E1F782C2D8
:10397000E9A9FAA96191719181919191FAABE9ABB1
:10398000ADA9BEA9CD90DD90ED90FD90BEABADABE5
:10399000A70196010E94E2410E94B24123966CAFBA
:1039A0007DAF8EAF9FAF2397EFA9F8AD6193719371
:1039B00081939193F8AFEFABA9ADBAAD4D905D9007
:1039C0006D907D90BAAFA9AF641975098609970902
:1039D0009B01AC013AF422273327A901261B370BA0
:1039E000480B590BEBADFCAD2193319341935193AF
:1039F000FCAFEBAFD4014D905D906D907C90421682
:103A000053066406750610F429013A01F401408258
:103A10005182628273820E944640A70196010E94F1
:103A2000AB3FADADBEAD6D937D938D939D93BEAF1A
:103A3000ADAF23962CAD3DAD4EAD5FAD2397232B9F
:103A4000242B252B19F0D50111960C9320E030E0A2
:103A5000A9010E94A43F882374F4812F0E942A2E7A
:103A60002B96EEADFFAD2B979081892B8083EFEFE6
:103A7000D5011196EC931F5FFFEFAF1ABF0A133009
:103A800009F076CF87E3829DF001839DF00D11242C
:103A9000E05EFD4F84859585A685B785892B8A2BA9
:103AA0008B2B09F4E3C1CE01499609DB27E3229D64
:103AB0008001239D100D1124005E1D4FD8019296A8
:103AC0006D937D938D939C939597BE01675E7F4F19
:103AD0008BE19FE05BDBF801668F778F80A391A37A
:103AE000BE01675E7F4F8FE09FE050DBD8019A9662
:103AF0006D937D938D939C939D9751961C915197B7
:103B000010FF06C0FD0166A777A780AB91AB22C06E
:103B10002596EEADFFAD25972081318142815381FD
:103B200087E3829DF001839DF00D1124E05EFD4F3F
:103B300026A737A740AB51AB13FF0CC07F0162A192
:103B400073A184A195A10E94E241F70166A777A71E
:103B500080AB91AB90911E0280911F02981711F0DB
:103B600011FF11C087E3829DF001839DF00D1124A8
:103B7000E05EFD4F168A178A108E118E16A217A2CC
:103B800010A611A6D6C00CE012E02E01F5E24F0EF1
:103B9000511C320119AA1AAA1BAA1CAAD801CD903D
:103BA000DD90ED90FD908D012996EEADFFAD29974A
:103BB00081909190A190B1902996FFAFEEAF299797
:103BC000A5019401C701B6010E94E2419B01AC012D
:103BD00069A97AA98BA99CA90E94CA3E69AB7AAB54
:103BE0008BAB9CABA7019601C501B4010E94CA3EF4
:103BF000D2016D937D938D939D932D012996EEAD0A
:103C0000FFAD2997E615F70549F62FEE3FEF4FE791
:103C10005FE369A97AA98BA99CA90E94A7411816FC
:103C20006CF487E3829DF001839DF00D1124E05E2A
:103C3000FD4F16A217A210A611A67BC02FEE3FEFD4
:103C40004FE75FEB69A97AA98BA99CA90E94A43FC1
:103C500088238CF487E3829DF001839DF00D11246D
:103C6000E05EFD4F89E996E7A6E9BEE786A397A344
:103C7000A0A7B1A75EC0CE01859621DABE016B5D1B
:103C80007F4F8BE19FE082DA6B017C0129A93AA981
:103C90004BA95CA960E070E080E89FE30E94CA3E07
:103CA00020E030E040E05FE30E94E2410E946F428A
:103CB0004B015C012091380F3091390F40913A0F40
:103CC00050913B0FC701B6010E94E241A50194014A
:103CD0000E94E2416B017C01A501940160E070E06B
:103CE00080E89FE30E94CA3E9B01AC01C701B60178
:103CF0000E94AB3FE62EF72E082F192F20E030E070
:103D0000A9010E94A43F882324F4E12CF12C00E0B7
:103D100010E087E3829DF001839DF00D1124E05EA9
:103D2000FD4F4E2D5F2D602F712F46A357A360A727
:103D300071A787E3829DF001839DF00D1124E05E61
:103D4000FD4F818981FD94C027968EAD9FAD279749
:103D50004BDC6B017C018090180290901902A090BE
:103D60001A02B0901B02A50194010E94A7411816E7
:103D7000B4F487E3829D8001839D100D1124005EC1
:103D80001D4FA5019401C501B4010E94E241D80173
:103D90005A966D937D938D939C935D9713C087E3A3
:103DA000829D8001839D100D1124005E1D4FA7018F
:103DB0009601C701B6010E94E241F801628F738F3C
:103DC000848F958F87E3829DF001839DF00D1124F0
:103DD000E05EFD4F86A097A0A0A4B1A4A501940128
:103DE000628D738D848D958D0E94A741181664F4A1
:103DF00087E3829DF001839DF00D1124E05EFD4F6D
:103E0000828E938EA48EB58EC0921802D092190223
:103E1000E0921A02F0921B028CE0FE017996ACE06F
:103E2000B2E001900D928A95E1F787E3829DF0015F
:103E3000839DF00D1124E05EFD4F86A9811109C01C
:103E40008CE0FE013196A0E0B2E001900D928A95DF
:103E5000E1F780911D0280931E028F5F843209F486
:103E600080E080931D02F6D981E041C080E03FC030
:103E700081E03DC089AB9AAB47EF5EE05EAB4DABF6
:103E8000BE016F5F7F4F78AF6FABCE010D969AAFDB
:103E900089AFA7E32A9FC0011124FC01E05EFD4F1A
:103EA000FCAFEBAF9E01275E3F4F29963FAF2EAF91
:103EB00029970F2EFDE3AF2EFCE0BF2EF02D3EAF75
:103EC0002DAF10E027E3229DC001239D900D11240A
:103ED000805E9D4F4C013CE0830E911C01E0AC01E3
:103EE000405F5F4F2B965FAF4EAF2B9741CDC65BC8
:103EF000DF4F0FB6F894DEBF0FBECDBFDF91CF917D
:103F00001F910F91FF90EF90DF90CF90BF90AF90F7
:103F10009F908F907F906F905F904F903F902F90E9
:103F20000895E8EEFCE0A0E0B2E084EF9CE041916F
:103F30005191619171914D935D936D937D93E817CC
:103F4000F907A9F7089590911E0280911F02981712
:103F500018F08D5D891B08958150891B08950E947A
:103F6000903280911F0280931C0274C90895CF93F0
:103F7000DF93EC018881882331F021960E946F2A1B
:103F800089918111FBCFDF91CF910895CF93DF937A
:103F9000EC012196FC018491882339F00E946F2A5C
:103FA000FE01849121968111F9CFDF91CF9108957F
:103FB000CF93DF93843690F09DEC899F912D11244F
:103FC000969596959695392F330F232F220F220F12
:103FD000230F821BD0E3D80F892F01C0D0E08A3095
:103FE000F8F09DEC899F912D1124969596959695C4
:103FF000392F330F232F220F220F230FC82FC21B5D
:10400000C05D80E3890F0E946F2ACC2319F08C2FAA
:104010000E946F2ADD2341F08D2F0E946F2A04C079
:10402000805D0E946F2AF6CFDF91CF9108958F9225
:104030009F92AF92BF92EF92FF921F93CF93DF9325
:10404000CDB7DEB72A970FB6F894DEBF0FBECDBF4F
:10405000611571058105910521F480E30E946F2AA5
:104060002CC020E00F2EFAE08F2E912CA12CB12C29
:10407000F02D11E0120FEE24E394F12CEC0EFD1E56
:10408000E20EF11CA50194010E94913EF7016083AC
:10409000622F732F842F952F212F611571058105B4
:1040A000910539F7112349F0FE01E10FF11D8081DF
:1040B000805D0E946F2A1150B9F72A960FB6F894C6
:1040C000DEBF0FBECDBFDF91CF911F91FF90EF906C
:1040D000BF90AF909F908F900895CF92DF92EF9214
:1040E000FF926B017C01992364F48DE20E946F2A98
:1040F00066277727CB016C197D098E099F0997DF09
:1041000001C095DFFF90EF90DF90CF9008958F92E0
:104110009F92AF92BF92CF92DF92EF92FF920F9356
:104120001F93CF93DF93CDB7DEB72D970FB6F894DB
:10413000DEBF0FBECDBF6B017C01042F20E030E05D
:10414000A9010E94A43F88233CF48DE20E946F2ABB
:10415000F7FAF094F7F8F094023088F0102F20E08E
:1041600030E048EC52E4C701B6010E94E2416B0125
:104170007C011250123098F7802F817001C0802F7F
:10418000882351F020E030E040E251E4C701B6015D
:104190000E94E2416B017C0120E030E040E05FE3FF
:1041A000C701B6010E94CB3E0E9413406115710504
:1041B0008105910519F120E00F2EFAE08F2E912C48
:1041C000A12CB12CF02D11E0120FEE24E394F12C70
:1041D000EC0EFD1EE20EF11CA50194010E94913E21
:1041E000605DF7016083622F732F842F952F212F3D
:1041F000611571058105910531F701C010E01017B7
:1042000060F480E3E1E0F0E0EC0FFD1FE10FF11D51
:1042100080831F5F0113F6CF02C0011307C011E0B6
:10422000100F80E3FE01E00FF11D8183112369F07F
:10423000011303C08EE20E946F2AFE01E10FF11DFF
:1042400080810E946F2A115099F72D960FB6F8942D
:10425000DEBF0FBECDBFDF91CF911F910F91FF90B9
:10426000EF90DF90CF90BF90AF909F908F90089588
:104270002091480F20FF09C02BE832E441E25DE3C2
:104280000E94E24144E043CF089543E040CF0895C7
:104290002091480F20FF09C02BE832E441E25DE3A2
:1042A0000E94E24141E033CF089540E030CF0895CD
:1042B0001092F60C9091480F99231CF090E890937F
:1042C000F60C882329F08091F60C80588093F60C28
:1042D0000895E7E0F1E080818F778083E8E0F1E006
:1042E00080818068808380E0E3CF0895809106011B
:1042F00080789091F60C89270895F8DF882381F063
:104300001092DB0C8CE0E8EEFCE0ACEDBCE0019040
:104310000D928A95E1F78091DA0C80648093DA0C33
:10432000089531D9892B19F082E00C94113C08953D
:10433000CF93DF93C091F40CCC2399F081E080936C
:10434000C80C8C2FEDD3C150C23048F481E0F6D3B5
:1043500080E10E945D3E8091DA0C84FFFCCF0E94D8
:104360006D3EC091DA0CCC2309F4F2C0C4FF04C046
:1043700081E08093C90C9FC1C0FF04C09ED681E03C
:104380000E945D3E8C2F887E09F463C08091C80C2A
:10439000982F937009F04CC0887299F08091CA0CE4
:1043A000807C79F40E949032E8ECFCE082E0848327
:1043B0008081803231F4CC23BCF09281906892836A
:1043C00013C08091C80C811106C091E09093CA0C73
:1043D000C6FD05C068C1C6FF07C085FD05C0E8EC85
:1043E000FCE0928190649283C3FF05C0807E19F443
:1043F00080E18093C80CC5FF1BC086E09FD38091ED
:10440000CA0C882384F09091C80C903439F483FF4F
:1044100007C0837E82608093CA0C02C0903819F076
:1044200080E48093C80CE8ECFCE0828180628283A7
:10443000CC2364F48091C80C813029F4E8ECFCE0D2
:1044400082818560828380E88093C80C88EE0E9418
:104450005D3EC1FF42C08C2F8876E1F58091C80C8B
:10446000803479F48091CA0C85FD34C084FF03C088
:104470001092C80C18C082FF2DC088608093CA0CAF
:1044800029C0882381F084FF25C09091CA0C90FF39
:1044900021C0803141F48091D20C882321F08860C2
:1044A0008093D20C17C01092CC0C6DD8892B71F070
:1044B0008091CA0C86FD0AC0E8ECFCE0128288E01C
:1044C00080830E94B0320E94AC2F04C0E8ECFCE074
:1044D0001282108282E00E945D3EC2FF39C080914C
:1044E000C80C807DB1F08091CB0C811112C08091FD
:1044F000CA0C882394F033DD8091CC0C81FF05C079
:10450000E8ECFCE0928191609283897F8093CC0CEF
:104510001CC08091CA0C882344F41092CC0C0DD896
:104520000E943D320E94B504FCDC8091CA0C85FFDC
:1045300008C0E8ECFCE08F778160828380E48083B0
:1045400004C0E8ECFCE01282108284E00E945D3E30
:10455000C091C70CCC2371F10E94853E2091CF0CF5
:10456000C0FF02C084E601C0822FC1FD865FC2FD8C
:104570008A50C3FD8F5FC4FD8150893C08F088ECF0
:104580008A3008F48AE03091D00CC5FF02C094E66E
:1045900001C0932FC6FD92E3CC230CF499E12813BC
:1045A00002C0931739F0E8ECFCE08783908713860C
:1045B00098D8D5DCC091D90CCC2309F462C00E94F4
:1045C0008B3E9091D10CC0FF02C084E601C0892FC0
:1045D000C1FD865FC2FD8A50C3FD8F5FC4FD81505F
:1045E000893C08F088EC8A3008F48AE09817B9F022
:1045F000E8ECFCE08187808181110AC0EDE4FCE0F9
:10460000438554856585768581850E946A2F05C01E
:10461000E8ECFCE08481886084831092D30CC5FFB1
:1046200012C08091C80C803171F48091D20C81113C
:1046300004C082E08093D20C32C080FF30C084601E
:104640008093D20C2CC08C2F807CD9F08091C80C28
:10465000882311F08873A9F0D091550CCC232CF449
:10466000DD2314F4DF7701C0D068C6FF05C0D6FF94
:1046700002C0DF7B01C0D0648D2F0E94C303D093A2
:10468000550C8091F50C882319F00BD71092F50C7E
:104690008091C80C8C7F79F00E94B0320CC08C2FB6
:1046A000807CD1F603C0C3FDA3CEA5CE8091F50CCE
:1046B000882391F3EACFDF91CF9108957F928F9273
:1046C0009F92AF92BF92CF92DF92EF92FF920F93A1
:1046D0001F93CF93DF932CDE8091CA0C882309F4BB
:1046E000FDC00E94C31AEC01892B51F4EDE4FCE0FB
:1046F000D1848085D82A83849484A584B6840BC011
:104700008989182F10730E94A403D82ED12A8AA851
:104710009BA8ACA8BDA88091480F81FF03C080E290
:104720000E947C3E9091CA0C992309F4D7C08091D5
:10473000C90C8111D3C0C8ECDCE08D2D8073C82E6C
:104740000DE41CE00F2EF8E4EF2EFFE0FF2EF02D1D
:1047500077247394ED2DE07CDE2E03C02981211196
:10476000BDC090FFAFC02881322F307C09F46FC0EC
:1047700092FD0FC01A8640E050E0BA0180E00E942E
:104780006A2F80E00E94C3038A818D7F84608A83C0
:1047900099C02038C1F48BE0D1D140E050E0BA019B
:1047A00080E00E946A2F80E00E94C3030E94C42F11
:1047B0008091C90C811192C0C8ECDCE0B9DD89811F
:1047C0008823E1F38BC0203439F40E944C3B8111E3
:1047D00003C08A818F7D8A838A8183FF73C0F80139
:1047E00091859923D1F081FD72C0F701808181FF0D
:1047F00008C08C8188608C83F8018085811114C089
:104800006BC0B501A4018C2D0E946A2F472D60E07A
:1048100070E080E890E40E94E417F8018085882326
:1048200069F08A8181FD4EC08D2D0E94C303472D02
:1048300060E070E080E89FE30E94E4178A8181FDD8
:1048400041C080618A8382E00E94113C3BC09A850E
:10485000992369F191FF0EC0F8018185882341F009
:1048600040E050E0BA0180E00E946A2F7A862AC0B8
:104870001A8628C09C7031F1F8018185882379F06F
:104880008AE05CD1F701808181FF04C08C8188605F
:104890008C8305C0B501A4018C2D0E946A2F8A85E6
:1048A00083FF03C082E00E94113C1A860BC08C81FA
:1048B00083FF08C0B501A4018C2D0E946A2F8C8152
:1048C000877F8C8335DD9A81911148CF07C0F8012D
:1048D00080858111F7CFB2CF8A81B3CFDF91CF919D
:1048E0001F910F91FF90EF90DF90CF90BF90AF900E
:1048F0009F908F907F900895DF92EF92FF920F9399
:104900001F93CF93DF938091480F83FF09C00E94CC
:104910003810882329F081E08093C80C87E00ED1FD
:104920008091C80C817869F082E008D181E08093A1
:10493000C80CF12CE12CC8ECDCE00CED19E0D12C1A
:1049400076C01092C80C0E944C3B882331F08091B5
:10495000DA0C80628093DA0CB1DE8CED99E00E9473
:104960004F3BE7CF8A3011F08D3089F5A7DE898182
:10497000811166C0EF2DF0E0E452F64F1082E0FEA8
:1049800005C08BE0BDD0FD2CE12C51C0F801808129
:10499000811105C08D2DB4D0FD2CE12C48C084328E
:1049A00039F4C8010E941A3CABD0FD2CE12C3FC069
:1049B0008881817229F089E0A3D0FD2CE12C37C0D9
:1049C000C8010E94BC049CD0FD2CE12C30C0EE201C
:1049D00031F0893261F5FE2DFD7FEF2E28C0813246
:1049E00030F18F3221F18832C1F08B33D1F09FEF5B
:1049F000F916D9F09FE9980F9A3140F4EF2DF0E0C5
:104A0000E452F64F80528083F39411C0EF2DF0E012
:104A1000E452F64F8083F3940AC06894EE24E1F8E0
:104A200006C06894EE24E2F802C0EE24E3949BD51D
:104A30008F3F09F097CF75DC41DE89818823B9F378
:104A4000DF91CF911F910F91FF90EF90DF9008952C
:104A5000CF93DF9366DCC8ECDCE030DE8981811126
:104A600007C00E94C31A892BC1F788818830A9F337
:104A7000DF91CF9108958BEB94E088CA08958DE57E
:104A80002ED5F9CF08950F931F93CF938C01C0E0DB
:104A9000F80161917191819191918F01E9DBC230AF
:104AA00010F48CE21CD5CF5FC33091F7CF911F91EA
:104AB0000F910895CF93C82F84E211D58C2F78DA07
:104AC0008DE30DD5CF910895CF93C62FF3DF8C2FB3
:104AD0006FDAD1DFCF910895CF92DF92EF92FF92FC
:104AE000CF936A017B01C22FE5DF4C2FC701B601CE
:104AF0000EDBC1DFCF91FF90EF90DF90CF90089554
:104B0000CF93C82F811104C085EC94E03FDA06C032
:104B10008EEB94E03BDA8C2F4BDAADDFCF9108952A
:104B2000CF93C82F84EB94E031DA8C2F41DAA3DFE6
:104B300084EF91E00E942118CF910895CF93C82F60
:104B40008EEA94E023DA8C2F90E0FC013197EB3071
:104B5000F10588F58827EB5FFE4F8F4F0C94B33E2D
:104B60008CE994E013DA27C088E894E00FDA23C0D8
:104B700086E794E00BDA1FC08EE694E007DA1BC0EC
:104B800085E694E003DA17C08AE594E0FFD913C004
:104B90008DE494E0FBD90FC085E494E0F7D90BC015
:104BA00082E394E0F3D907C080E294E0EFD903C038
:104BB00087E194E0EBD963DFCF9108958BEE93E02A
:104BC000E5C9089581EA93E0E1C90895EF92FF9263
:104BD0000F931F93CF93DF93C7EFDEE06CAD70E0D0
:104BE00080E072DF6FAD70E081E06EDF6DAD70E090
:104BF00082E06ADF6EAD70E083E066DFC8E4DFE08C
:104C0000688162FB662760F970E084E05DDF68819F
:104C100066FB662760F970E085E056DF8881082E24
:104C2000000C990B692F661F6627661F70E086E0EF
:104C30004BDF6091370F70E08AE046DF4091380F1C
:104C40005091390F60913A0F70913B0F23E08BE048
:104C500043DF40913C0F50913D0F60913E0F7091AA
:104C60003F0F23E08CE038DF6881617070E08DE0F9
:104C70002BDF688165FB662760F970E084E124DF43
:104C8000688163FB662760F970E085E11DDF68815C
:104C90006295617070E086E117DF6091490F70E006
:104CA00087E112DF40914A0F50914B0F60914C0FFA
:104CB00070914D0F23E088E10FDF40914E0F50912E
:104CC0004F0F6091500F7091510F23E089E104DF85
:104CD0006091520F7091530F8AE1F6DE4091540FAC
:104CE0005091550F6091560F7091570F23E08BE153
:104CF000F3DE4091400F5091410F6091420F70914F
:104D0000430F20E08EE1E8DE4091440F5091450FC3
:104D10006091460F7091470F20E08FE1DDDE6881E2
:104D20006695617070E080E2CFDE0F2EF4E6FF2E14
:104D3000F02DD0E04DC0D230E9F028F4DD2341F071
:104D4000D13079F03AC0D33031F1D43071F135C07F
:104D5000F801408151816281738123E08C2FBCDE98
:104D60002CC0F801408D518D628D738D23E08C2F06
:104D7000B3DE23C020E030E041E655E4F80164A151
:104D800075A186A197A10E94AB3FAB01BC0123E0B6
:104D90008C2FA2DE12C0F80140A951A962A973A903
:104DA000705823E08C2F98DE08C0F80144855585A3
:104DB0006685778523E08C2F8FDE0C5F1F4FCF5FDA
:104DC000CE11B9CFFAE0FF0EDF5F86E9F81649F0A1
:104DD00007EF1EE00F2EF3E0EF2EF02DEF0CCF2D9E
:104DE000AACFDF91CF911F910F91FF90EF9008957F
:104DF000CF93DF93CDB7DEB72C970FB6F894DEBF15
:104E00000FBECDBF8BE993E0C1D86CED7CE0CE0145
:104E100001960E94923BCE01019635DE8AE35FD374
:104E20008091CD0CC5D82BDE2C960FB6F894DEBF42
:104E30000FBECDBFDF91CF9108950F931F93CF93F6
:104E4000DF93CDB7DEB72C970FB6F894DEBF0FBE59
:104E5000CDBF01E001C00F5F1FEF100FBE016F5FFC
:104E60007F4F812F19D5811103C087E049DE3DC0F6
:104E700088E993E08BD8163019F0173059F014C038
:104E800085E993E083D88AE32AD3CE010196FBDD3E
:104E9000F6DDE1CF82E993E079D88AE320D3CE0131
:104EA0000196F1DDECDD0CC085E3800F81D88AE34B
:104EB00016D3CE010196E7DDE2DD083008F4CBCF52
:104EC0008CE893E063D88DE79CE0DDDDD8DD86E8F3
:104ED00093E05CD86091890C70918A0C80918B0C66
:104EE00090918C0CC5D9CBDD83DF2C960FB6F8944E
:104EF000DEBF0FBECDBFDF91CF911F910F910895FF
:104F0000CF93DF9380E893E041D880914D0C8C38AB
:104F100040F08CE793E03AD880914D0C8A5848D8FD
:104F200001C046D880E793E031D8CDE4DCE08E8143
:104F30008A5C3ED880E793E029D88C818F5E38D890
:104F400080E793E023D89A8185E1891B31D880E7F7
:104F500093E01CD88B81865A2BD880E793E016D833
:104F600099818EE5891B24D88F81882381F08DE675
:104F700093E00CD88091540C833029F08E3131F0BD
:104F8000823029F403C080E3AAD201C011D88DE693
:104F900093E00E94C61F8091560C803129F0803228
:104FA00031F0811109C006C083E399D205C084E3C2
:104FB00096D202C085E393D28DE693E00E94C61F8D
:104FC0008091550C882351F014F487E388D28091A6
:104FD000550C86FF05C088E382D202C089E37FD2E8
:104FE00089E793E00E94C61FCDE4DCE08B890E9434
:104FF000D81F86E793E00E94C61F6F85788989894C
:105000009A8946D983E793E00E94C61F6B857C8509
:105010008D859E8540E07BD832DDDF91CF9108956C
:105020001F93CF93DF93182FEB018AE693E00E9442
:10503000C61F812F0E94D81F8DE351D2CE010E943E
:10504000B71F19DDDF91CF911F9108950F931F9323
:10505000CF938C01C62F8EE342D2C8010E94B71FA6
:105060008AE33DD28C2F4CDDCF911F910F91089593
:10507000CF93DF93EC0181E593E00E94C61FCE0140
:105080000E94B71FFCDC8BE493E00E94C61F86E5FC
:1050900026D28EE424D28DE422D28BE220D28CE27E
:1050A0001ED283E20E94D81F8CE219D28FEF0E9499
:1050B000D81FE5DCDF91CF9108954F925F926F92F8
:1050C0007F928F929F92AF92BF92CF92DF92EF9298
:1050D000FF920F931F93CF93DF93CDB7DEB7A497C3
:1050E0000FB6F894DEBF0FBECDBF8CE0E8EEFCE05B
:1050F000DE01119601900D928A95E1F7BE016F5F76
:105100007F4FCE010D960E94923B8CE3E8D18091B7
:10511000C80C8830D1F040F48130C1F188F0823081
:10512000D1F1843071F158C0803231F118F48031FE
:1051300089F052C08034A1F1803809F449C04CC0D4
:1051400086E493E00E94C61F47C082E493E00E9479
:10515000C61F42C08091CA0C882374F08CE393E090
:105160000E94C61F8091CA0C80FF03C080E3B7D1A4
:1051700033C081E3B4D130C088E393E00E94C61FFE
:105180002BC083E393E00E94C61F26C08DE293E00C
:105190000E94C61F21C087E293E00E94C61F1CC068
:1051A00081E293E00E94C61F8091CA0C83FF03C076
:1051B00083E395D111C082FF08C085FF03C081E35E
:1051C0008ED10AC080E38BD107C082E388D104C0AE
:1051D0008BE193E00E94C61F8091370F282F21702A
:1051E000E22E80FF04C08091D40C811155C0409004
:1051F000890C50908A0C60908B0C70908C0C0F2E48
:10520000F1E7CF2EFCE0DF2EF02D8E01075E1F4F61
:105210005E018DE0A80EB11CF12CF6016191719137
:10522000819191916F0120853185428553850E943E
:10523000CB3E4801F8016083718382839383F2E05F
:10524000FF120CC0A30192010E94CB3EF8016083C3
:10525000718382839383E1101FC002C0E11011C0EB
:10526000F4012081318142815381F5016081718196
:10527000828193810E94CA3EF5016083718382839B
:105280009383F3940C5F1F4FF4E0AF0EB11C23E047
:10529000F212C3CFEE2029F084E193E00E94C61FF2
:1052A00004C08DE093E00E94C61FCE010D96EBDB9B
:1052B0008091370F81FF0DC088E093E00E94C61FE8
:1052C0000E94A31F0E94D81F8CE209D1EBD00E943C
:1052D000D81F0E94C31A009791F0FC01C288D3889E
:1052E000E488F588C114D104E104F10441F083E0BD
:1052F00093E00E94C61FC701B6010E946D208EEF89
:1053000092E00E94C61F0E94CD3A0E9448218CE282
:10531000E6D06091D50C7091D60C8091D70C90910D
:10532000D80C40E00E9487200E943810082F0E946D
:10533000F33A182F0E947621F82E802F812B8F2987
:1053400041F189EF92E00E94C61FFF2011F080E535
:10535000C6D0002361F000FF02C088E5C0D001FF85
:1053600002C089E5BCD002FF02C08AE5B8D0112393
:1053700081F010FF02C084E4B2D011FF02C082E5C8
:10538000AED012FF02C088E4AAD013FF02C083E5AA
:10539000A6D08091D40C882321F081508093D40C26
:1053A00019C08091C80C8C7721F08DE18093D40CCA
:1053B00003C089E08093D40C8091D30C811103C089
:1053C00081E08093D30C83EF92E00E94C61FCE0150
:1053D000499659DB8091D30C882321F0815080932A
:1053E000D30C38C08091C80C8C7721F083E1809376
:1053F000D30C03C089E08093D30C8EEE92E00E9420
:10540000C61F08EC1CE0F80187810E94D81F8CE2BF
:1054100066D0F80180850E94D81F8CE260D0F80128
:1054200081850E94D81F4DD4082F0E94A403182FF5
:10543000011114C0811119C00DC083E550D002C004
:1054400083E44DD016FF02C086E449D0112314F442
:105450008DE445D08EE343D00EDB0CC08AEE92E0A3
:105460000E94C61F013061F7E8CF8AEE92E00E94E9
:10547000C61FE8CFA4960FB6F894DEBF0FBECDBF0F
:10548000DF91CF911F910F91FF90EF90DF90CF9020
:10549000BF90AF909F908F907F906F905F904F9054
:1054A000089508958091DE0A9091DF0A981720F000
:1054B000981B892F809508958150891B0895E0ECF1
:1054C000F0E08081826080831092C50080E180934B
:1054D000C400E1ECF0E08081886980830895E09168
:1054E000DD0A21E02E0F04C09091DA0C94FD0FC06C
:1054F0009091DC0A2917C1F3F0E0E950F34F808363
:105500002093DD0AE1ECF0E08081806280830895E1
:105510001F920F920FB60F9211240BB60F928F931A
:105520009F93EF93FF938091DC0AE82FF0E0E9501E
:10553000F34F90819093C6008F5F8093DC0A909127
:10554000DD0A891305C0E1ECF0E080818F7D808366
:10555000FF91EF919F918F910F900BBE0F900FBE17
:105560000F901F9018959091DE0A8091DF0A98178E
:1055700049F0E92FF0E0E950F24F80819F5F90936E
:10558000DE0A08958FEF08951F920F920FB60F92C3
:1055900011240BB60F922F933F934F935F936F930A
:1055A0007F938F939F93AF93BF93EF93FF93E0917C
:1055B000C600E132A1F018F4E83131F014C0EF3345
:1055C00031F0EE3741F00FC00E94FA1681C081E041
:1055D0000E94113C7DC082E00E94113C79C088E0AD
:1055E0000E94113C75C0EE230CF064C08E2F90E039
:1055F000FC01E458F109EE31F10508F069C0882793
:10560000E05FFE4F8F4F0C94B33E80E20E94113C4E
:105610005FC08091C80C85FF5BC080E40E94113C94
:1056200057C09FB7F8948091F50C81608093F50C7A
:105630009FBF4EC081E00E94733E4AC082E00E943C
:10564000733E46C084E00E94733E42C088E00E94E0
:10565000733E3EC080E10E94733E3AC080E20E94E9
:10566000733E36C080E40E94733E32C080E80E94E0
:10567000733E2EC081E00E947C3E2AC082E00E94E0
:105680007C3E26C084E00E947C3E22C088E00E94CE
:105690007C3E1EC080E10E947C3E1AC080E20E94D7
:1056A0007C3E16C080E40E947C3E12C080E80E94CE
:1056B0007C3E0EC0A091DF0A81E08A0F9091DE0A45
:1056C000891731F0B0E0A950B24FEC938093DF0A14
:1056D000FF91EF91BF91AF919F918F917F916F91CA
:1056E0005F914F913F912F910F900BBE0F900FBE86
:1056F0000F901F9018958091DF0A8093DE0A08951D
:105700001F93CF93DF93182FEB01A2D921E031E053
:10571000129FC001139F900D112440E051E0BE0183
:105720009D5F0E941704DF91CF911F91089540E083
:1057300051E0BC018EEA93E00C94170408950F9396
:105740001F93CF93C82F8B0183D92DE0C29FC00137
:1057500011244CE050E0B8019E5F0E941704CF91E5
:105760001F910F9108956AE080E090E00E94F80395
:1057700041E650E067EF7EE081E090E00C94170492
:1057800008950F931F93CF93DF93CDB7DEB72C9778
:105790000FB6F894DEBF0FBECDBF082F80FF0AC042
:1057A00081E6EAECF4E0A7EFBEE005900D928A9561
:1057B000E1F7D9DF01FF10C0FE0131968CE0DF0177
:1057C0001D928A95E9F710E0BE016F5F7F4F812F30
:1057D000B6DF1F5F1830C1F702FF14C060E080E041
:1057E00093E00E94F80360E081E093E00E94F803F8
:1057F00060E081E094E00E94F80360E082E094E0E1
:105800000E94F80303FF0AC060E08EEA93E00E9462
:10581000F80360E08FEA93E00E94F8032C960FB63D
:10582000F894DEBF0FBECDBFDF91CF911F910F91D6
:1058300008951F93CF93DF93182FEB0181E091E040
:10584000189FB001199F700D11247D5F40E051E059
:10585000CE010E945A04892B31F41882BE01812F97
:105860004FDF80E001C081E0DF91CF911F9108956B
:10587000CF93DF93EC0140E051E06EEA73E00E94C9
:105880005A04892B29F41882CE0151DF80E001C02F
:1058900081E0DF91CF9108951F93CF93DF93182F6D
:1058A000EB018DE0189FB00111247E5F4CE050E0C9
:1058B000CE010E945A04892B51F48CE0FE01119212
:1058C0008A95E9F7BE01812F3ADF80E001C081E0CF
:1058D000DF91CF911F91089580E090E00E94F00346
:1058E0008A3069F441E650E061E070E087EF9EE0C5
:1058F0000E945A0421E0892B19F420E001C020E025
:10590000822F0895CF92DF92EF92FF92CF93DF9391
:10591000C82F6A017B0120E030E0A901C701B60170
:105920000E94A43F88230CF463C1C43608F473C0FA
:10593000ECE9EC0FE330A8F0EA3008F067C15AC197
:10594000E33008F05DC0923021F128F4992349F04A
:10595000913099F04AC19330B9F1943009F444C0C0
:1059600044C1F0E0EE0FFF1FEE0FFF1FE950F14FB3
:10597000C082D182E282F38238C1F0E0EE0FFF1FD5
:10598000EE0FFF1FE15FF04FC082D182E282F3820F
:105990002CC1CE2FD0E0CC0FDD1FCC0FDD1FC55E9C
:1059A000D04F20E030E040E752E4C701B6010E944A
:1059B000E24120E030E040E752E40E94E2416883A7
:1059C00079838A839B8311C1F0E0EE0FFF1FEE0FF6
:1059D000FF1FE95DF04FF7FAF094F7F8F094C082FA
:1059E000D182E282F38201C1F0E0EE0FFF1FEE0FE1
:1059F000FF1FED5FF04FC082D182E282F382F5C0DB
:105A00009F5FEA3008F4F8C08E1709F4F7C0EA5037
:105A1000E21396CFEAC0C701B6010E94B0420E94CD
:105A200018408C2F90E08132910508F0E9C0FC010C
:105A30008827E25DFE4F8F4F0C94B33E633008F42D
:105A4000E1C06093330FD1C06093360FCEC0609336
:105A5000340FD5D4CAC06093350FD1D4C6C06623E5
:105A600031F0E8E4FFE0808184608083BEC0E8E438
:105A7000FFE080818B7F8083B8C0662331F0E8E44B
:105A8000FFE0808180648083B0C0E8E4FFE0808133
:105A90008F7B8083AAC0662331F0E8E4FFE0808139
:105AA0008068808305C0E8E4FFE080818F77808391
:105AB00080E00E94582199C06093370F96C0C09231
:105AC000380FD092390FE0923A0FF0923B0F8DC011
:105AD000C0923C0FD0923D0FE0923E0FF0923F0FEC
